{
	"contractName": "SATPWrapper",
	"bytecode": "608060405234801561000f575f80fd5b50604051613ce0380380613ce083398181016040528101906100319190610217565b805f73ffffffffffffffffffffffffffffffffffffffff168173ffffffffffffffffffffffffffffffffffffffff16036100a2575f6040517f1e4fbdf70000000000000000000000000000000000000000000000000000000081526004016100999190610251565b60405180910390fd5b6100b1816100f860201b60201c565b508060035f6101000a81548173ffffffffffffffffffffffffffffffffffffffff021916908373ffffffffffffffffffffffffffffffffffffffff1602179055505061026a565b5f805f9054906101000a900473ffffffffffffffffffffffffffffffffffffffff169050815f806101000a81548173ffffffffffffffffffffffffffffffffffffffff021916908373ffffffffffffffffffffffffffffffffffffffff1602179055508173ffffffffffffffffffffffffffffffffffffffff168173ffffffffffffffffffffffffffffffffffffffff167f8be0079c531659141344cd1fd0a4f28419497f9722a3daafe3b4186f6b6457e060405160405180910390a35050565b5f80fd5b5f73ffffffffffffffffffffffffffffffffffffffff82169050919050565b5f6101e6826101bd565b9050919050565b6101f6816101dc565b8114610200575f80fd5b50565b5f81519050610211816101ed565b92915050565b5f6020828403121561022c5761022b6101b9565b5b5f61023984828501610203565b91505092915050565b61024b816101dc565b82525050565b5f6020820190506102645f830184610242565b92915050565b613a69806102775f395ff3fe608060405234801561000f575f80fd5b50600436106100e8575f3560e01c80638da5cb5b1161008a578063c1733f6811610064578063c1733f6814610274578063d9cf884c146102a4578063e1efb596146102d4578063f2fde38b14610304576100e8565b80638da5cb5b146101f6578063a1bc17c514610214578063b48272cc14610244576100e8565b80634534ba17116100c65780634534ba171461016e5780635137b8a71461019e578063715018a6146101bc57806372d4c33b146101c6576100e8565b806304c2320b146100ec578063056b01ce146101205780631255c18914610150575b5f80fd5b61010660048036038101906101019190612ac5565b610320565b604051610117959493929190612c36565b60405180910390f35b61013a60048036038101906101359190612cb8565b61043a565b6040516101479190612d2c565b60405180910390f35b6101586107cd565b6040516101659190612d45565b60405180910390f35b61018860048036038101906101839190612d88565b6107f2565b6040516101959190612d2c565b60405180910390f35b6101a6610afb565b6040516101b39190612ef7565b60405180910390f35b6101c4610bcf565b005b6101e060048036038101906101db9190612f3a565b610be2565b6040516101ed9190612d2c565b60405180910390f35b6101fe610eb4565b60405161020b9190612d45565b60405180910390f35b61022e60048036038101906102299190612ac5565b610edb565b60405161023b9190612d2c565b60405180910390f35b61025e60048036038101906102599190612cb8565b611335565b60405161026b9190612d2c565b60405180910390f35b61028e60048036038101906102899190612ac5565b611671565b60405161029b919061305a565b60405180910390f35b6102be60048036038101906102b99190612cb8565b611826565b6040516102cb9190612d2c565b60405180910390f35b6102ee60048036038101906102e99190612cb8565b611e16565b6040516102fb9190612d2c565b60405180910390f35b61031e6004803603810190610319919061307a565b612204565b005b6001818051602081018201805184825260208301602085012081835280955050505050505f91509050805f015f9054906101000a900473ffffffffffffffffffffffffffffffffffffffff1690805f0160149054906101000a900460ff169080600101805461038e906130d2565b80601f01602080910402602001604051908101604052809291908181526020018280546103ba906130d2565b80156104055780601f106103dc57610100808354040283529160200191610405565b820191905f5260205f20905b8154815290600101906020018083116103e857829003601f168201915b505050505090806002015f9054906101000a900473ffffffffffffffffffffffffffffffffffffffff16908060030154905085565b5f610443612288565b6104836040518060400160405280601f81526020017f57726170706572204d696e7420746f3a2025730a20616d6f756e743a20257300815250848461230f565b5f73ffffffffffffffffffffffffffffffffffffffff166001846040516104aa919061313c565b90815260200160405180910390205f015f9054906101000a900473ffffffffffffffffffffffffffffffffffffffff1673ffffffffffffffffffffffffffffffffffffffff160361053257826040517fc0bab25f0000000000000000000000000000000000000000000000000000000081526004016105299190613152565b60405180910390fd5b5f600184604051610543919061313c565b90815260200160405180910390205f015f9054906101000a900473ffffffffffffffffffffffffffffffffffffffff1673ffffffffffffffffffffffffffffffffffffffff16308460405160240161059c929190613172565b6040516020818303038152906040527f40c10f19000000000000000000000000000000000000000000000000000000007bffffffffffffffffffffffffffffffffffffffffffffffffffffffff19166020820180517bffffffffffffffffffffffffffffffffffffffffffffffffffffffff838183161783525050505060405161062691906131dd565b5f604051808303815f865af19150503d805f811461065f576040519150601f19603f3d011682016040523d82523d5f602084013e610664565b606091505b50509050806106a8576040517f08c379a000000000000000000000000000000000000000000000000000000000815260040161069f9061323d565b60405180910390fd5b826001856040516106b9919061313c565b9081526020016040518091039020600301819055505f600167ffffffffffffffff8111156106ea576106e96129a1565b5b60405190808252806020026020018201604052801561071d57816020015b60608152602001906001900390816107085790505b5090506040518060400160405280600481526020017f61746f6100000000000000000000000000000000000000000000000000000000815250815f815181106107695761076861325b565b5b602002602001018190525084604051610782919061313c565b60405180910390207f2e880e99c8ec365b5c6ebf33d629f356b595654b480d1ad1872023d6e3cc6094826040516107b99190612ef7565b60405180910390a260019250505092915050565b60035f9054906101000a900473ffffffffffffffffffffffffffffffffffffffff1681565b5f6107fb612288565b61081f6040518060600160405280602b8152602001613a09602b91398585856123ae565b81600185604051610830919061313c565b9081526020016040518091039020600301541015610883576040517f08c379a000000000000000000000000000000000000000000000000000000000815260040161087a906132d2565b60405180910390fd5b5f600185604051610894919061313c565b90815260200160405180910390205f015f9054906101000a900473ffffffffffffffffffffffffffffffffffffffff1673ffffffffffffffffffffffffffffffffffffffff163085856040516024016108ef939291906132f0565b6040516020818303038152906040527f5f52d44e000000000000000000000000000000000000000000000000000000007bffffffffffffffffffffffffffffffffffffffffffffffffffffffff19166020820180517bffffffffffffffffffffffffffffffffffffffffffffffffffffffff838183161783525050505060405161097991906131dd565b5f604051808303815f865af19150503d805f81146109b2576040519150601f19603f3d011682016040523d82523d5f602084013e6109b7565b606091505b50509050806109fb576040517f08c379a00000000000000000000000000000000000000000000000000000000081526004016109f29061336f565b60405180910390fd5b5f600167ffffffffffffffff811115610a1757610a166129a1565b5b604051908082528060200260200182016040528015610a4a57816020015b6060815260200190600190039081610a355790505b5090506040518060400160405280600481526020017f61746f6100000000000000000000000000000000000000000000000000000000815250815f81518110610a9657610a9561325b565b5b602002602001018190525085604051610aaf919061313c565b60405180910390207f2e880e99c8ec365b5c6ebf33d629f356b595654b480d1ad1872023d6e3cc609482604051610ae69190612ef7565b60405180910390a26001925050509392505050565b60606002805480602002602001604051908101604052809291908181526020015f905b82821015610bc6578382905f5260205f20018054610b3b906130d2565b80601f0160208091040260200160405190810160405280929190818152602001828054610b67906130d2565b8015610bb25780601f10610b8957610100808354040283529160200191610bb2565b820191905f5260205f20905b815481529060010190602001808311610b9557829003601f168201915b505050505081526020019060010190610b1e565b50505050905090565b610bd7612288565b610be05f612450565b565b5f610beb612288565b610c2a6040518060400160405280600e81526020017f5772617020746f6b656e3a20257300000000000000000000000000000000000081525086612511565b5f73ffffffffffffffffffffffffffffffffffffffff16600184604051610c51919061313c565b90815260200160405180910390205f015f9054906101000a900473ffffffffffffffffffffffffffffffffffffffff1673ffffffffffffffffffffffffffffffffffffffff1614610d1757610cda6040518060400160405280601581526020017f546f6b656e20416c7265616479205772617070656400000000000000000000008152506125ad565b826040517f67ab2344000000000000000000000000000000000000000000000000000000008152600401610d0e9190613152565b60405180910390fd5b6040518060a001604052808673ffffffffffffffffffffffffffffffffffffffff168152602001856002811115610d5157610d50612b4b565b5b81526020018481526020018373ffffffffffffffffffffffffffffffffffffffff1681526020015f815250600184604051610d8c919061313c565b90815260200160405180910390205f820151815f015f6101000a81548173ffffffffffffffffffffffffffffffffffffffff021916908373ffffffffffffffffffffffffffffffffffffffff1602179055506020820151815f0160146101000a81548160ff02191690836002811115610e0857610e07612b4b565b5b02179055506040820151816001019081610e22919061352a565b506060820151816002015f6101000a81548173ffffffffffffffffffffffffffffffffffffffff021916908373ffffffffffffffffffffffffffffffffffffffff16021790555060808201518160030155905050600283908060018154018082558091505060019003905f5260205f20015f909190919091509081610ea7919061352a565b5060019050949350505050565b5f805f9054906101000a900473ffffffffffffffffffffffffffffffffffffffff16905090565b5f610ee4612288565b610f236040518060400160405280601081526020017f556e7772617020746f6b656e3a2025730000000000000000000000000000000081525083612646565b5f73ffffffffffffffffffffffffffffffffffffffff16600183604051610f4a919061313c565b90815260200160405180910390205f015f9054906101000a900473ffffffffffffffffffffffffffffffffffffffff1673ffffffffffffffffffffffffffffffffffffffff160361101057610fd36040518060400160405280601181526020017f546f6b656e206e6f7420577261707065640000000000000000000000000000008152506125ad565b816040517fc0bab25f0000000000000000000000000000000000000000000000000000000081526004016110079190613152565b60405180910390fd5b5f600183604051611021919061313c565b90815260200160405180910390206003015411156110b4576110776040518060400160405280600f81526020017f546f6b656e206973206c6f636b656400000000000000000000000000000000008152506125ad565b816040517fb7d2c10a0000000000000000000000000000000000000000000000000000000081526004016110ab9190613152565b60405180910390fd5b6111646001836040516110c7919061313c565b908152602001604051809103902060010180546110e3906130d2565b80601f016020809104026020016040519081016040528092919081815260200182805461110f906130d2565b801561115a5780601f106111315761010080835404028352916020019161115a565b820191905f5260205f20905b81548152906001019060200180831161113d57829003601f168201915b50505050506126e2565b6111a36040518060400160405280601c81526020017f44656c657465642066726f6d20617272617920746f6b656e3a2025730000000081525083612646565b6001826040516111b3919061313c565b90815260200160405180910390205f8082015f6101000a81549073ffffffffffffffffffffffffffffffffffffffff02191690555f820160146101000a81549060ff0219169055600182015f61120991906128ad565b600282015f6101000a81549073ffffffffffffffffffffffffffffffffffffffff0219169055600382015f905550505f600167ffffffffffffffff811115611254576112536129a1565b5b60405190808252806020026020018201604052801561128757816020015b60608152602001906001900390816112725790505b5090506040518060400160405280600481526020017f61746f6100000000000000000000000000000000000000000000000000000000815250815f815181106112d3576112d261325b565b5b6020026020010181905250826040516112ec919061313c565b60405180910390207f2e880e99c8ec365b5c6ebf33d629f356b595654b480d1ad1872023d6e3cc6094826040516113239190612ef7565b60405180910390a26001915050919050565b5f61133e612288565b6113616040518060600160405280602181526020016139e860219139848461230f565b81600184604051611372919061313c565b90815260200160405180910390206003015410156113c5576040517f08c379a00000000000000000000000000000000000000000000000000000000081526004016113bc90613643565b60405180910390fd5b5f6001846040516113d6919061313c565b90815260200160405180910390205f015f9054906101000a900473ffffffffffffffffffffffffffffffffffffffff1673ffffffffffffffffffffffffffffffffffffffff16308460405160240161142f929190613172565b6040516020818303038152906040527f9dc29fac000000000000000000000000000000000000000000000000000000007bffffffffffffffffffffffffffffffffffffffffffffffffffffffff19166020820180517bffffffffffffffffffffffffffffffffffffffffffffffffffffffff83818316178352505050506040516114b991906131dd565b5f604051808303815f865af19150503d805f81146114f2576040519150601f19603f3d011682016040523d82523d5f602084013e6114f7565b606091505b505090508061153b576040517f08c379a0000000000000000000000000000000000000000000000000000000008152600401611532906136ab565b60405180910390fd5b8260018560405161154c919061313c565b90815260200160405180910390206003015f82825461156b91906136f6565b925050819055505f600167ffffffffffffffff81111561158e5761158d6129a1565b5b6040519080825280602002602001820160405280156115c157816020015b60608152602001906001900390816115ac5790505b5090506040518060400160405280600481526020017f61746f6100000000000000000000000000000000000000000000000000000000815250815f8151811061160d5761160c61325b565b5b602002602001018190525084604051611626919061313c565b60405180910390207f2e880e99c8ec365b5c6ebf33d629f356b595654b480d1ad1872023d6e3cc60948260405161165d9190612ef7565b60405180910390a260019250505092915050565b6116796128ea565b600182604051611689919061313c565b90815260200160405180910390206040518060a00160405290815f82015f9054906101000a900473ffffffffffffffffffffffffffffffffffffffff1673ffffffffffffffffffffffffffffffffffffffff1673ffffffffffffffffffffffffffffffffffffffff1681526020015f820160149054906101000a900460ff16600281111561171a57611719612b4b565b5b600281111561172c5761172b612b4b565b5b8152602001600182018054611740906130d2565b80601f016020809104026020016040519081016040528092919081815260200182805461176c906130d2565b80156117b75780601f1061178e576101008083540402835291602001916117b7565b820191905f5260205f20905b81548152906001019060200180831161179a57829003601f168201915b50505050508152602001600282015f9054906101000a900473ffffffffffffffffffffffffffffffffffffffff1673ffffffffffffffffffffffffffffffffffffffff1673ffffffffffffffffffffffffffffffffffffffff1681526020016003820154815250509050919050565b5f61182f612288565b61186f6040518060400160405280601c81526020017f556e6c6f636b20746f6b656e3a2025730a20616d6f756e743a20257300000000815250848461230f565b5f73ffffffffffffffffffffffffffffffffffffffff16600184604051611896919061313c565b90815260200160405180910390205f015f9054906101000a900473ffffffffffffffffffffffffffffffffffffffff1673ffffffffffffffffffffffffffffffffffffffff160361191e57826040517fc0bab25f0000000000000000000000000000000000000000000000000000000081526004016119159190613152565b60405180910390fd5b8160018460405161192f919061313c565b90815260200160405180910390206003015410156119865782826040517fed579e6000000000000000000000000000000000000000000000000000000000815260040161197d929190613729565b60405180910390fd5b5f600184604051611997919061313c565b90815260200160405180910390205f015f9054906101000a900473ffffffffffffffffffffffffffffffffffffffff1673ffffffffffffffffffffffffffffffffffffffff1630846040516024016119f0929190613172565b6040516020818303038152906040527f095ea7b3000000000000000000000000000000000000000000000000000000007bffffffffffffffffffffffffffffffffffffffffffffffffffffffff19166020820180517bffffffffffffffffffffffffffffffffffffffffffffffffffffffff8381831617835250505050604051611a7a91906131dd565b5f604051808303815f865af19150503d805f8114611ab3576040519150601f19603f3d011682016040523d82523d5f602084013e611ab8565b606091505b5050905080611afe57836040517f58300fe7000000000000000000000000000000000000000000000000000000008152600401611af59190613152565b60405180910390fd5b5f600185604051611b0f919061313c565b90815260200160405180910390205f015f9054906101000a900473ffffffffffffffffffffffffffffffffffffffff1673ffffffffffffffffffffffffffffffffffffffff1630600187604051611b66919061313c565b90815260200160405180910390206002015f9054906101000a900473ffffffffffffffffffffffffffffffffffffffff16600188604051611ba7919061313c565b908152602001604051809103902060030154604051602401611bcb939291906132f0565b6040516020818303038152906040527fbeabacc8000000000000000000000000000000000000000000000000000000007bffffffffffffffffffffffffffffffffffffffffffffffffffffffff19166020820180517bffffffffffffffffffffffffffffffffffffffffffffffffffffffff8381831617835250505050604051611c5591906131dd565b5f604051808303815f865af19150503d805f8114611c8e576040519150601f19603f3d011682016040523d82523d5f602084013e611c93565b606091505b505090508015611dd35783600186604051611cae919061313c565b90815260200160405180910390206003015f828254611ccd91906136f6565b925050819055505f600167ffffffffffffffff811115611cf057611cef6129a1565b5b604051908082528060200260200182016040528015611d2357816020015b6060815260200190600190039081611d0e5790505b5090506040518060400160405280600481526020017f61746f6100000000000000000000000000000000000000000000000000000000815250815f81518110611d6f57611d6e61325b565b5b602002602001018190525085604051611d88919061313c565b60405180910390207f2e880e99c8ec365b5c6ebf33d629f356b595654b480d1ad1872023d6e3cc609482604051611dbf9190612ef7565b60405180910390a260019350505050611e10565b846040517f58300fe7000000000000000000000000000000000000000000000000000000008152600401611e079190613152565b60405180910390fd5b92915050565b5f611e1f612288565b611e5f6040518060400160405280601a81526020017f4c6f636b20746f6b656e3a2025730a20616d6f756e743a202573000000000000815250848461230f565b5f73ffffffffffffffffffffffffffffffffffffffff16600184604051611e86919061313c565b90815260200160405180910390205f015f9054906101000a900473ffffffffffffffffffffffffffffffffffffffff1673ffffffffffffffffffffffffffffffffffffffff1603611f0e57826040517fc0bab25f000000000000000000000000000000000000000000000000000000008152600401611f059190613152565b60405180910390fd5b5f600184604051611f1f919061313c565b90815260200160405180910390205f015f9054906101000a900473ffffffffffffffffffffffffffffffffffffffff1673ffffffffffffffffffffffffffffffffffffffff16600185604051611f75919061313c565b90815260200160405180910390206002015f9054906101000a900473ffffffffffffffffffffffffffffffffffffffff163085604051602401611fba939291906132f0565b6040516020818303038152906040527fbeabacc8000000000000000000000000000000000000000000000000000000007bffffffffffffffffffffffffffffffffffffffffffffffffffffffff19166020820180517bffffffffffffffffffffffffffffffffffffffffffffffffffffffff838183161783525050505060405161204491906131dd565b5f604051808303815f865af19150503d805f811461207d576040519150601f19603f3d011682016040523d82523d5f602084013e612082565b606091505b5050905080156121c1578260018560405161209d919061313c565b90815260200160405180910390206003015f8282546120bc9190613757565b925050819055505f600167ffffffffffffffff8111156120df576120de6129a1565b5b60405190808252806020026020018201604052801561211257816020015b60608152602001906001900390816120fd5790505b5090506040518060400160405280600481526020017f61746f6100000000000000000000000000000000000000000000000000000000815250815f8151811061215e5761215d61325b565b5b602002602001018190525084604051612177919061313c565b60405180910390207f2e880e99c8ec365b5c6ebf33d629f356b595654b480d1ad1872023d6e3cc6094826040516121ae9190612ef7565b60405180910390a26001925050506121fe565b836040517f8244096a0000000000000000000000000000000000000000000000000000000081526004016121f59190613152565b60405180910390fd5b92915050565b61220c612288565b5f73ffffffffffffffffffffffffffffffffffffffff168173ffffffffffffffffffffffffffffffffffffffff160361227c575f6040517f1e4fbdf70000000000000000000000000000000000000000000000000000000081526004016122739190612d45565b60405180910390fd5b61228581612450565b50565b61229061283b565b73ffffffffffffffffffffffffffffffffffffffff166122ae610eb4565b73ffffffffffffffffffffffffffffffffffffffff161461230d576122d161283b565b6040517f118cdaa70000000000000000000000000000000000000000000000000000000081526004016123049190612d45565b60405180910390fd5b565b6123a98383836040516024016123279392919061378a565b6040516020818303038152906040527f5821efa1000000000000000000000000000000000000000000000000000000007bffffffffffffffffffffffffffffffffffffffffffffffffffffffff19166020820180517bffffffffffffffffffffffffffffffffffffffffffffffffffffffff8381831617835250505050612842565b505050565b61244a848484846040516024016123c894939291906137cd565b6040516020818303038152906040527f7cc3c607000000000000000000000000000000000000000000000000000000007bffffffffffffffffffffffffffffffffffffffffffffffffffffffff19166020820180517bffffffffffffffffffffffffffffffffffffffffffffffffffffffff8381831617835250505050612842565b50505050565b5f805f9054906101000a900473ffffffffffffffffffffffffffffffffffffffff169050815f806101000a81548173ffffffffffffffffffffffffffffffffffffffff021916908373ffffffffffffffffffffffffffffffffffffffff1602179055508173ffffffffffffffffffffffffffffffffffffffff168173ffffffffffffffffffffffffffffffffffffffff167f8be0079c531659141344cd1fd0a4f28419497f9722a3daafe3b4186f6b6457e060405160405180910390a35050565b6125a9828260405160240161252792919061381e565b6040516020818303038152906040527f319af333000000000000000000000000000000000000000000000000000000007bffffffffffffffffffffffffffffffffffffffffffffffffffffffff19166020820180517bffffffffffffffffffffffffffffffffffffffffffffffffffffffff8381831617835250505050612842565b5050565b612643816040516024016125c19190613152565b6040516020818303038152906040527f41304fac000000000000000000000000000000000000000000000000000000007bffffffffffffffffffffffffffffffffffffffffffffffffffffffff19166020820180517bffffffffffffffffffffffffffffffffffffffffffffffffffffffff8381831617835250505050612842565b50565b6126de828260405160240161265c92919061384c565b6040516020818303038152906040527f4b5c4277000000000000000000000000000000000000000000000000000000007bffffffffffffffffffffffffffffffffffffffffffffffffffffffff19166020820180517bffffffffffffffffffffffffffffffffffffffffffffffffffffffff8381831617835250505050612842565b5050565b5f5b6002805490508110156128375761279d600282815481106127085761270761325b565b5b905f5260205f2001805461271b906130d2565b80601f0160208091040260200160405190810160405280929190818152602001828054612747906130d2565b80156127925780601f1061276957610100808354040283529160200191612792565b820191905f5260205f20905b81548152906001019060200180831161277557829003601f168201915b50505050508361285c565b1561282a57600260016002805490506127b691906136f6565b815481106127c7576127c661325b565b5b905f5260205f2001600282815481106127e3576127e261325b565b5b905f5260205f200190816127f791906138a8565b50600280548061280a5761280961398d565b5b600190038181905f5260205f20015f61282391906128ad565b9055612837565b80806001019150506126e4565b5050565b5f33905090565b612859816128516128836128a2565b63ffffffff16565b50565b5f8151835114801561287b575081805190602001208380519060200120145b905092915050565b5f6a636f6e736f6c652e6c6f6790505f80835160208501845afa505050565b612953819050919050565b5080546128b9906130d2565b5f825580601f106128ca57506128e7565b601f0160209004905f5260205f20908101906128e6919061295d565b5b50565b6040518060a001604052805f73ffffffffffffffffffffffffffffffffffffffff1681526020015f600281111561292457612923612b4b565b5b8152602001606081526020015f73ffffffffffffffffffffffffffffffffffffffff1681526020015f81525090565b61295b6139ba565b565b5b80821115612974575f815f90555060010161295e565b5090565b5f604051905090565b5f80fd5b5f80fd5b5f80fd5b5f80fd5b5f601f19601f8301169050919050565b7f4e487b71000000000000000000000000000000000000000000000000000000005f52604160045260245ffd5b6129d782612991565b810181811067ffffffffffffffff821117156129f6576129f56129a1565b5b80604052505050565b5f612a08612978565b9050612a1482826129ce565b919050565b5f67ffffffffffffffff821115612a3357612a326129a1565b5b612a3c82612991565b9050602081019050919050565b828183375f83830152505050565b5f612a69612a6484612a19565b6129ff565b905082815260208101848484011115612a8557612a8461298d565b5b612a90848285612a49565b509392505050565b5f82601f830112612aac57612aab612989565b5b8135612abc848260208601612a57565b91505092915050565b5f60208284031215612ada57612ad9612981565b5b5f82013567ffffffffffffffff811115612af757612af6612985565b5b612b0384828501612a98565b91505092915050565b5f73ffffffffffffffffffffffffffffffffffffffff82169050919050565b5f612b3582612b0c565b9050919050565b612b4581612b2b565b82525050565b7f4e487b71000000000000000000000000000000000000000000000000000000005f52602160045260245ffd5b60038110612b8957612b88612b4b565b5b50565b5f819050612b9982612b78565b919050565b5f612ba882612b8c565b9050919050565b612bb881612b9e565b82525050565b5f81519050919050565b5f82825260208201905092915050565b8281835e5f83830152505050565b5f612bf082612bbe565b612bfa8185612bc8565b9350612c0a818560208601612bd8565b612c1381612991565b840191505092915050565b5f819050919050565b612c3081612c1e565b82525050565b5f60a082019050612c495f830188612b3c565b612c566020830187612baf565b8181036040830152612c688186612be6565b9050612c776060830185612b3c565b612c846080830184612c27565b9695505050505050565b612c9781612c1e565b8114612ca1575f80fd5b50565b5f81359050612cb281612c8e565b92915050565b5f8060408385031215612cce57612ccd612981565b5b5f83013567ffffffffffffffff811115612ceb57612cea612985565b5b612cf785828601612a98565b9250506020612d0885828601612ca4565b9150509250929050565b5f8115159050919050565b612d2681612d12565b82525050565b5f602082019050612d3f5f830184612d1d565b92915050565b5f602082019050612d585f830184612b3c565b92915050565b612d6781612b2b565b8114612d71575f80fd5b50565b5f81359050612d8281612d5e565b92915050565b5f805f60608486031215612d9f57612d9e612981565b5b5f84013567ffffffffffffffff811115612dbc57612dbb612985565b5b612dc886828701612a98565b9350506020612dd986828701612d74565b9250506040612dea86828701612ca4565b9150509250925092565b5f81519050919050565b5f82825260208201905092915050565b5f819050602082019050919050565b5f82825260208201905092915050565b5f612e3782612bbe565b612e418185612e1d565b9350612e51818560208601612bd8565b612e5a81612991565b840191505092915050565b5f612e708383612e2d565b905092915050565b5f602082019050919050565b5f612e8e82612df4565b612e988185612dfe565b935083602082028501612eaa85612e0e565b805f5b85811015612ee55784840389528151612ec68582612e65565b9450612ed183612e78565b925060208a01995050600181019050612ead565b50829750879550505050505092915050565b5f6020820190508181035f830152612f0f8184612e84565b905092915050565b60038110612f23575f80fd5b50565b5f81359050612f3481612f17565b92915050565b5f805f8060808587031215612f5257612f51612981565b5b5f612f5f87828801612d74565b9450506020612f7087828801612f26565b935050604085013567ffffffffffffffff811115612f9157612f90612985565b5b612f9d87828801612a98565b9250506060612fae87828801612d74565b91505092959194509250565b612fc381612b2b565b82525050565b612fd281612b9e565b82525050565b612fe181612c1e565b82525050565b5f60a083015f830151612ffc5f860182612fba565b50602083015161300f6020860182612fc9565b50604083015184820360408601526130278282612e2d565b915050606083015161303c6060860182612fba565b50608083015161304f6080860182612fd8565b508091505092915050565b5f6020820190508181035f8301526130728184612fe7565b905092915050565b5f6020828403121561308f5761308e612981565b5b5f61309c84828501612d74565b91505092915050565b7f4e487b71000000000000000000000000000000000000000000000000000000005f52602260045260245ffd5b5f60028204905060018216806130e957607f821691505b6020821081036130fc576130fb6130a5565b5b50919050565b5f81905092915050565b5f61311682612bbe565b6131208185613102565b9350613130818560208601612bd8565b80840191505092915050565b5f613147828461310c565b915081905092915050565b5f6020820190508181035f83015261316a8184612be6565b905092915050565b5f6040820190506131855f830185612b3c565b6131926020830184612c27565b9392505050565b5f81519050919050565b5f81905092915050565b5f6131b782613199565b6131c181856131a3565b93506131d1818560208601612bd8565b80840191505092915050565b5f6131e882846131ad565b915081905092915050565b7f6d696e742061737365742063616c6c206661696c6564000000000000000000005f82015250565b5f613227601683612bc8565b9150613232826131f3565b602082019050919050565b5f6020820190508181035f8301526132548161321b565b9050919050565b7f4e487b71000000000000000000000000000000000000000000000000000000005f52603260045260245ffd5b7f61737369676e206173736574206173736574206973206e6f74206c6f636b65645f82015250565b5f6132bc602083612bc8565b91506132c782613288565b602082019050919050565b5f6020820190508181035f8301526132e9816132b0565b9050919050565b5f6060820190506133035f830186612b3c565b6133106020830185612b3c565b61331d6040830184612c27565b949350505050565b7f61737369676e2061737365742063616c6c206661696c656400000000000000005f82015250565b5f613359601883612bc8565b915061336482613325565b602082019050919050565b5f6020820190508181035f8301526133868161334d565b9050919050565b5f819050815f5260205f209050919050565b5f6020601f8301049050919050565b5f82821b905092915050565b5f600883026133e97fffffffffffffffffffffffffffffffffffffffffffffffffffffffffffffffff826133ae565b6133f386836133ae565b95508019841693508086168417925050509392505050565b5f819050919050565b5f61342e61342961342484612c1e565b61340b565b612c1e565b9050919050565b5f819050919050565b61344783613414565b61345b61345382613435565b8484546133ba565b825550505050565b5f90565b61346f613463565b61347a81848461343e565b505050565b5b8181101561349d576134925f82613467565b600181019050613480565b5050565b601f8211156134e2576134b38161338d565b6134bc8461339f565b810160208510156134cb578190505b6134df6134d78561339f565b83018261347f565b50505b505050565b5f82821c905092915050565b5f6135025f19846008026134e7565b1980831691505092915050565b5f61351a83836134f3565b9150826002028217905092915050565b61353382612bbe565b67ffffffffffffffff81111561354c5761354b6129a1565b5b61355682546130d2565b6135618282856134a1565b5f60209050601f831160018114613592575f8415613580578287015190505b61358a858261350f565b8655506135f1565b601f1984166135a08661338d565b5f5b828110156135c7578489015182556001820191506020850194506020810190506135a2565b868310156135e457848901516135e0601f8916826134f3565b8355505b6001600288020188555050505b505050505050565b7f6275726e206173736574206173736574206973206e6f74206c6f636b656400005f82015250565b5f61362d601e83612bc8565b9150613638826135f9565b602082019050919050565b5f6020820190508181035f83015261365a81613621565b9050919050565b7f6275726e2061737365742063616c6c206661696c6564000000000000000000005f82015250565b5f613695601683612bc8565b91506136a082613661565b602082019050919050565b5f6020820190508181035f8301526136c281613689565b9050919050565b7f4e487b71000000000000000000000000000000000000000000000000000000005f52601160045260245ffd5b5f61370082612c1e565b915061370b83612c1e565b9250828203905081811115613723576137226136c9565b5b92915050565b5f6040820190508181035f8301526137418185612be6565b90506137506020830184612c27565b9392505050565b5f61376182612c1e565b915061376c83612c1e565b9250828201905080821115613784576137836136c9565b5b92915050565b5f6060820190508181035f8301526137a28186612be6565b905081810360208301526137b68185612be6565b90506137c56040830184612c27565b949350505050565b5f6080820190508181035f8301526137e58187612be6565b905081810360208301526137f98186612be6565b90506138086040830185612b3c565b6138156060830184612c27565b95945050505050565b5f6040820190508181035f8301526138368185612be6565b90506138456020830184612b3c565b9392505050565b5f6040820190508181035f8301526138648185612be6565b905081810360208301526138788184612be6565b90509392505050565b5f8154905061388f816130d2565b9050919050565b5f819050815f5260205f209050919050565b8181036138b657505061398b565b6138bf82613881565b67ffffffffffffffff8111156138d8576138d76129a1565b5b6138e282546130d2565b6138ed8282856134a1565b5f601f83116001811461391a575f8415613908578287015490505b613912858261350f565b865550613984565b601f19841661392887613896565b96506139338661338d565b5f5b8281101561395a57848901548255600182019150600185019450602081019050613935565b868310156139775784890154613973601f8916826134f3565b8355505b6001600288020188555050505b5050505050505b565b7f4e487b71000000000000000000000000000000000000000000000000000000005f52603160045260245ffd5b7f4e487b71000000000000000000000000000000000000000000000000000000005f52605160045260245ffdfe57726170706572204275726e2066726f6d3a2025730a20616d6f756e743a202573577261707065722041737369676e2066726f6d3a2025730a20746f3a2025730a20616d6f756e743a202573a26469706673582212200e2ea61dacc347e7b319f14a36f7614deac9c4c54fc3539cd8c5ac490395971364736f6c634300081a0033",
	"data": {
		"bytecode": {
			"linkReferences": {},
			"object": "608060405234801561000f575f80fd5b50604051613ce0380380613ce083398181016040528101906100319190610217565b805f73ffffffffffffffffffffffffffffffffffffffff168173ffffffffffffffffffffffffffffffffffffffff16036100a2575f6040517f1e4fbdf70000000000000000000000000000000000000000000000000000000081526004016100999190610251565b60405180910390fd5b6100b1816100f860201b60201c565b508060035f6101000a81548173ffffffffffffffffffffffffffffffffffffffff021916908373ffffffffffffffffffffffffffffffffffffffff1602179055505061026a565b5f805f9054906101000a900473ffffffffffffffffffffffffffffffffffffffff169050815f806101000a81548173ffffffffffffffffffffffffffffffffffffffff021916908373ffffffffffffffffffffffffffffffffffffffff1602179055508173ffffffffffffffffffffffffffffffffffffffff168173ffffffffffffffffffffffffffffffffffffffff167f8be0079c531659141344cd1fd0a4f28419497f9722a3daafe3b4186f6b6457e060405160405180910390a35050565b5f80fd5b5f73ffffffffffffffffffffffffffffffffffffffff82169050919050565b5f6101e6826101bd565b9050919050565b6101f6816101dc565b8114610200575f80fd5b50565b5f81519050610211816101ed565b92915050565b5f6020828403121561022c5761022b6101b9565b5b5f61023984828501610203565b91505092915050565b61024b816101dc565b82525050565b5f6020820190506102645f830184610242565b92915050565b613a69806102775f395ff3fe608060405234801561000f575f80fd5b50600436106100e8575f3560e01c80638da5cb5b1161008a578063c1733f6811610064578063c1733f6814610274578063d9cf884c146102a4578063e1efb596146102d4578063f2fde38b14610304576100e8565b80638da5cb5b146101f6578063a1bc17c514610214578063b48272cc14610244576100e8565b80634534ba17116100c65780634534ba171461016e5780635137b8a71461019e578063715018a6146101bc57806372d4c33b146101c6576100e8565b806304c2320b146100ec578063056b01ce146101205780631255c18914610150575b5f80fd5b61010660048036038101906101019190612ac5565b610320565b604051610117959493929190612c36565b60405180910390f35b61013a60048036038101906101359190612cb8565b61043a565b6040516101479190612d2c565b60405180910390f35b6101586107cd565b6040516101659190612d45565b60405180910390f35b61018860048036038101906101839190612d88565b6107f2565b6040516101959190612d2c565b60405180910390f35b6101a6610afb565b6040516101b39190612ef7565b60405180910390f35b6101c4610bcf565b005b6101e060048036038101906101db9190612f3a565b610be2565b6040516101ed9190612d2c565b60405180910390f35b6101fe610eb4565b60405161020b9190612d45565b60405180910390f35b61022e60048036038101906102299190612ac5565b610edb565b60405161023b9190612d2c565b60405180910390f35b61025e60048036038101906102599190612cb8565b611335565b60405161026b9190612d2c565b60405180910390f35b61028e60048036038101906102899190612ac5565b611671565b60405161029b919061305a565b60405180910390f35b6102be60048036038101906102b99190612cb8565b611826565b6040516102cb9190612d2c565b60405180910390f35b6102ee60048036038101906102e99190612cb8565b611e16565b6040516102fb9190612d2c565b60405180910390f35b61031e6004803603810190610319919061307a565b612204565b005b6001818051602081018201805184825260208301602085012081835280955050505050505f91509050805f015f9054906101000a900473ffffffffffffffffffffffffffffffffffffffff1690805f0160149054906101000a900460ff169080600101805461038e906130d2565b80601f01602080910402602001604051908101604052809291908181526020018280546103ba906130d2565b80156104055780601f106103dc57610100808354040283529160200191610405565b820191905f5260205f20905b8154815290600101906020018083116103e857829003601f168201915b505050505090806002015f9054906101000a900473ffffffffffffffffffffffffffffffffffffffff16908060030154905085565b5f610443612288565b6104836040518060400160405280601f81526020017f57726170706572204d696e7420746f3a2025730a20616d6f756e743a20257300815250848461230f565b5f73ffffffffffffffffffffffffffffffffffffffff166001846040516104aa919061313c565b90815260200160405180910390205f015f9054906101000a900473ffffffffffffffffffffffffffffffffffffffff1673ffffffffffffffffffffffffffffffffffffffff160361053257826040517fc0bab25f0000000000000000000000000000000000000000000000000000000081526004016105299190613152565b60405180910390fd5b5f600184604051610543919061313c565b90815260200160405180910390205f015f9054906101000a900473ffffffffffffffffffffffffffffffffffffffff1673ffffffffffffffffffffffffffffffffffffffff16308460405160240161059c929190613172565b6040516020818303038152906040527f40c10f19000000000000000000000000000000000000000000000000000000007bffffffffffffffffffffffffffffffffffffffffffffffffffffffff19166020820180517bffffffffffffffffffffffffffffffffffffffffffffffffffffffff838183161783525050505060405161062691906131dd565b5f604051808303815f865af19150503d805f811461065f576040519150601f19603f3d011682016040523d82523d5f602084013e610664565b606091505b50509050806106a8576040517f08c379a000000000000000000000000000000000000000000000000000000000815260040161069f9061323d565b60405180910390fd5b826001856040516106b9919061313c565b9081526020016040518091039020600301819055505f600267ffffffffffffffff8111156106ea576106e96129a1565b5b60405190808252806020026020018201604052801561071d57816020015b60608152602001906001900390816107085790505b5090506040518060400160405280600481526020017f61746f6100000000000000000000000000000000000000000000000000000000815250815f815181106107695761076861325b565b5b602002602001018190525084604051610782919061313c565b60405180910390207f2e880e99c8ec365b5c6ebf33d629f356b595654b480d1ad1872023d6e3cc6094826040516107b99190612ef7565b60405180910390a260019250505092915050565b60035f9054906101000a900473ffffffffffffffffffffffffffffffffffffffff1681565b5f6107fb612288565b61081f6040518060600160405280602b8152602001613a09602b91398585856123ae565b81600185604051610830919061313c565b9081526020016040518091039020600301541015610883576040517f08c379a000000000000000000000000000000000000000000000000000000000815260040161087a906132d2565b60405180910390fd5b5f600185604051610894919061313c565b90815260200160405180910390205f015f9054906101000a900473ffffffffffffffffffffffffffffffffffffffff1673ffffffffffffffffffffffffffffffffffffffff163085856040516024016108ef939291906132f0565b6040516020818303038152906040527f5f52d44e000000000000000000000000000000000000000000000000000000007bffffffffffffffffffffffffffffffffffffffffffffffffffffffff19166020820180517bffffffffffffffffffffffffffffffffffffffffffffffffffffffff838183161783525050505060405161097991906131dd565b5f604051808303815f865af19150503d805f81146109b2576040519150601f19603f3d011682016040523d82523d5f602084013e6109b7565b606091505b50509050806109fb576040517f08c379a00000000000000000000000000000000000000000000000000000000081526004016109f29061336f565b60405180910390fd5b5f600267ffffffffffffffff811115610a1757610a166129a1565b5b604051908082528060200260200182016040528015610a4a57816020015b6060815260200190600190039081610a355790505b5090506040518060400160405280600481526020017f61746f6100000000000000000000000000000000000000000000000000000000815250815f81518110610a9657610a9561325b565b5b602002602001018190525085604051610aaf919061313c565b60405180910390207f2e880e99c8ec365b5c6ebf33d629f356b595654b480d1ad1872023d6e3cc609482604051610ae69190612ef7565b60405180910390a26001925050509392505050565b60606002805480602002602001604051908101604052809291908181526020015f905b82821015610bc6578382905f5260205f20018054610b3b906130d2565b80601f0160208091040260200160405190810160405280929190818152602001828054610b67906130d2565b8015610bb25780601f10610b8957610100808354040283529160200191610bb2565b820191905f5260205f20905b815481529060010190602001808311610b9557829003601f168201915b505050505081526020019060010190610b1e565b50505050905090565b610bd7612288565b610be05f612450565b565b5f610beb612288565b610c2a6040518060400160405280600e81526020017f5772617020746f6b656e3a20257300000000000000000000000000000000000081525086612511565b5f73ffffffffffffffffffffffffffffffffffffffff16600184604051610c51919061313c565b90815260200160405180910390205f015f9054906101000a900473ffffffffffffffffffffffffffffffffffffffff1673ffffffffffffffffffffffffffffffffffffffff1614610d1757610cda6040518060400160405280601581526020017f546f6b656e20416c7265616479205772617070656400000000000000000000008152506125ad565b826040517f67ab2344000000000000000000000000000000000000000000000000000000008152600401610d0e9190613152565b60405180910390fd5b6040518060a001604052808673ffffffffffffffffffffffffffffffffffffffff168152602001856002811115610d5157610d50612b4b565b5b81526020018481526020018373ffffffffffffffffffffffffffffffffffffffff1681526020015f815250600184604051610d8c919061313c565b90815260200160405180910390205f820151815f015f6101000a81548173ffffffffffffffffffffffffffffffffffffffff021916908373ffffffffffffffffffffffffffffffffffffffff1602179055506020820151815f0160146101000a81548160ff02191690836002811115610e0857610e07612b4b565b5b02179055506040820151816001019081610e22919061352a565b506060820151816002015f6101000a81548173ffffffffffffffffffffffffffffffffffffffff021916908373ffffffffffffffffffffffffffffffffffffffff16021790555060808201518160030155905050600283908060018154018082558091505060019003905f5260205f20015f909190919091509081610ea7919061352a565b5060019050949350505050565b5f805f9054906101000a900473ffffffffffffffffffffffffffffffffffffffff16905090565b5f610ee4612288565b610f236040518060400160405280601081526020017f556e7772617020746f6b656e3a2025730000000000000000000000000000000081525083612646565b5f73ffffffffffffffffffffffffffffffffffffffff16600183604051610f4a919061313c565b90815260200160405180910390205f015f9054906101000a900473ffffffffffffffffffffffffffffffffffffffff1673ffffffffffffffffffffffffffffffffffffffff160361101057610fd36040518060400160405280601181526020017f546f6b656e206e6f7420577261707065640000000000000000000000000000008152506125ad565b816040517fc0bab25f0000000000000000000000000000000000000000000000000000000081526004016110079190613152565b60405180910390fd5b5f600183604051611021919061313c565b90815260200160405180910390206003015411156110b4576110776040518060400160405280600f81526020017f546f6b656e206973206c6f636b656400000000000000000000000000000000008152506125ad565b816040517fb7d2c10a0000000000000000000000000000000000000000000000000000000081526004016110ab9190613152565b60405180910390fd5b6111646001836040516110c7919061313c565b908152602001604051809103902060010180546110e3906130d2565b80601f016020809104026020016040519081016040528092919081815260200182805461110f906130d2565b801561115a5780601f106111315761010080835404028352916020019161115a565b820191905f5260205f20905b81548152906001019060200180831161113d57829003601f168201915b50505050506126e2565b6111a36040518060400160405280601c81526020017f44656c657465642066726f6d20617272617920746f6b656e3a2025730000000081525083612646565b6001826040516111b3919061313c565b90815260200160405180910390205f8082015f6101000a81549073ffffffffffffffffffffffffffffffffffffffff02191690555f820160146101000a81549060ff0219169055600182015f61120991906128ad565b600282015f6101000a81549073ffffffffffffffffffffffffffffffffffffffff0219169055600382015f905550505f600267ffffffffffffffff811115611254576112536129a1565b5b60405190808252806020026020018201604052801561128757816020015b60608152602001906001900390816112725790505b5090506040518060400160405280600481526020017f61746f6100000000000000000000000000000000000000000000000000000000815250815f815181106112d3576112d261325b565b5b6020026020010181905250826040516112ec919061313c565b60405180910390207f2e880e99c8ec365b5c6ebf33d629f356b595654b480d1ad1872023d6e3cc6094826040516113239190612ef7565b60405180910390a26001915050919050565b5f61133e612288565b6113616040518060600160405280602181526020016139e860219139848461230f565b81600184604051611372919061313c565b90815260200160405180910390206003015410156113c5576040517f08c379a00000000000000000000000000000000000000000000000000000000081526004016113bc90613643565b60405180910390fd5b5f6001846040516113d6919061313c565b90815260200160405180910390205f015f9054906101000a900473ffffffffffffffffffffffffffffffffffffffff1673ffffffffffffffffffffffffffffffffffffffff16308460405160240161142f929190613172565b6040516020818303038152906040527f9dc29fac000000000000000000000000000000000000000000000000000000007bffffffffffffffffffffffffffffffffffffffffffffffffffffffff19166020820180517bffffffffffffffffffffffffffffffffffffffffffffffffffffffff83818316178352505050506040516114b991906131dd565b5f604051808303815f865af19150503d805f81146114f2576040519150601f19603f3d011682016040523d82523d5f602084013e6114f7565b606091505b505090508061153b576040517f08c379a0000000000000000000000000000000000000000000000000000000008152600401611532906136ab565b60405180910390fd5b8260018560405161154c919061313c565b90815260200160405180910390206003015f82825461156b91906136f6565b925050819055505f600267ffffffffffffffff81111561158e5761158d6129a1565b5b6040519080825280602002602001820160405280156115c157816020015b60608152602001906001900390816115ac5790505b5090506040518060400160405280600481526020017f61746f6100000000000000000000000000000000000000000000000000000000815250815f8151811061160d5761160c61325b565b5b602002602001018190525084604051611626919061313c565b60405180910390207f2e880e99c8ec365b5c6ebf33d629f356b595654b480d1ad1872023d6e3cc60948260405161165d9190612ef7565b60405180910390a260019250505092915050565b6116796128ea565b600182604051611689919061313c565b90815260200160405180910390206040518060a00160405290815f82015f9054906101000a900473ffffffffffffffffffffffffffffffffffffffff1673ffffffffffffffffffffffffffffffffffffffff1673ffffffffffffffffffffffffffffffffffffffff1681526020015f820160149054906101000a900460ff16600281111561171a57611719612b4b565b5b600281111561172c5761172b612b4b565b5b8152602001600182018054611740906130d2565b80601f016020809104026020016040519081016040528092919081815260200182805461176c906130d2565b80156117b75780601f1061178e576101008083540402835291602001916117b7565b820191905f5260205f20905b81548152906001019060200180831161179a57829003601f168201915b50505050508152602001600282015f9054906101000a900473ffffffffffffffffffffffffffffffffffffffff1673ffffffffffffffffffffffffffffffffffffffff1673ffffffffffffffffffffffffffffffffffffffff1681526020016003820154815250509050919050565b5f61182f612288565b61186f6040518060400160405280601c81526020017f556e6c6f636b20746f6b656e3a2025730a20616d6f756e743a20257300000000815250848461230f565b5f73ffffffffffffffffffffffffffffffffffffffff16600184604051611896919061313c565b90815260200160405180910390205f015f9054906101000a900473ffffffffffffffffffffffffffffffffffffffff1673ffffffffffffffffffffffffffffffffffffffff160361191e57826040517fc0bab25f0000000000000000000000000000000000000000000000000000000081526004016119159190613152565b60405180910390fd5b8160018460405161192f919061313c565b90815260200160405180910390206003015410156119865782826040517fed579e6000000000000000000000000000000000000000000000000000000000815260040161197d929190613729565b60405180910390fd5b5f600184604051611997919061313c565b90815260200160405180910390205f015f9054906101000a900473ffffffffffffffffffffffffffffffffffffffff1673ffffffffffffffffffffffffffffffffffffffff1630846040516024016119f0929190613172565b6040516020818303038152906040527f095ea7b3000000000000000000000000000000000000000000000000000000007bffffffffffffffffffffffffffffffffffffffffffffffffffffffff19166020820180517bffffffffffffffffffffffffffffffffffffffffffffffffffffffff8381831617835250505050604051611a7a91906131dd565b5f604051808303815f865af19150503d805f8114611ab3576040519150601f19603f3d011682016040523d82523d5f602084013e611ab8565b606091505b5050905080611afe57836040517f58300fe7000000000000000000000000000000000000000000000000000000008152600401611af59190613152565b60405180910390fd5b5f600185604051611b0f919061313c565b90815260200160405180910390205f015f9054906101000a900473ffffffffffffffffffffffffffffffffffffffff1673ffffffffffffffffffffffffffffffffffffffff1630600187604051611b66919061313c565b90815260200160405180910390206002015f9054906101000a900473ffffffffffffffffffffffffffffffffffffffff16600188604051611ba7919061313c565b908152602001604051809103902060030154604051602401611bcb939291906132f0565b6040516020818303038152906040527fbeabacc8000000000000000000000000000000000000000000000000000000007bffffffffffffffffffffffffffffffffffffffffffffffffffffffff19166020820180517bffffffffffffffffffffffffffffffffffffffffffffffffffffffff8381831617835250505050604051611c5591906131dd565b5f604051808303815f865af19150503d805f8114611c8e576040519150601f19603f3d011682016040523d82523d5f602084013e611c93565b606091505b505090508015611dd35783600186604051611cae919061313c565b90815260200160405180910390206003015f828254611ccd91906136f6565b925050819055505f600267ffffffffffffffff811115611cf057611cef6129a1565b5b604051908082528060200260200182016040528015611d2357816020015b6060815260200190600190039081611d0e5790505b5090506040518060400160405280600481526020017f61746f6100000000000000000000000000000000000000000000000000000000815250815f81518110611d6f57611d6e61325b565b5b602002602001018190525085604051611d88919061313c565b60405180910390207f2e880e99c8ec365b5c6ebf33d629f356b595654b480d1ad1872023d6e3cc609482604051611dbf9190612ef7565b60405180910390a260019350505050611e10565b846040517f58300fe7000000000000000000000000000000000000000000000000000000008152600401611e079190613152565b60405180910390fd5b92915050565b5f611e1f612288565b611e5f6040518060400160405280601a81526020017f4c6f636b20746f6b656e3a2025730a20616d6f756e743a202573000000000000815250848461230f565b5f73ffffffffffffffffffffffffffffffffffffffff16600184604051611e86919061313c565b90815260200160405180910390205f015f9054906101000a900473ffffffffffffffffffffffffffffffffffffffff1673ffffffffffffffffffffffffffffffffffffffff1603611f0e57826040517fc0bab25f000000000000000000000000000000000000000000000000000000008152600401611f059190613152565b60405180910390fd5b5f600184604051611f1f919061313c565b90815260200160405180910390205f015f9054906101000a900473ffffffffffffffffffffffffffffffffffffffff1673ffffffffffffffffffffffffffffffffffffffff16600185604051611f75919061313c565b90815260200160405180910390206002015f9054906101000a900473ffffffffffffffffffffffffffffffffffffffff163085604051602401611fba939291906132f0565b6040516020818303038152906040527fbeabacc8000000000000000000000000000000000000000000000000000000007bffffffffffffffffffffffffffffffffffffffffffffffffffffffff19166020820180517bffffffffffffffffffffffffffffffffffffffffffffffffffffffff838183161783525050505060405161204491906131dd565b5f604051808303815f865af19150503d805f811461207d576040519150601f19603f3d011682016040523d82523d5f602084013e612082565b606091505b5050905080156121c1578260018560405161209d919061313c565b90815260200160405180910390206003015f8282546120bc9190613757565b925050819055505f600267ffffffffffffffff8111156120df576120de6129a1565b5b60405190808252806020026020018201604052801561211257816020015b60608152602001906001900390816120fd5790505b5090506040518060400160405280600481526020017f61746f6100000000000000000000000000000000000000000000000000000000815250815f8151811061215e5761215d61325b565b5b602002602001018190525084604051612177919061313c565b60405180910390207f2e880e99c8ec365b5c6ebf33d629f356b595654b480d1ad1872023d6e3cc6094826040516121ae9190612ef7565b60405180910390a26001925050506121fe565b836040517f8244096a0000000000000000000000000000000000000000000000000000000081526004016121f59190613152565b60405180910390fd5b92915050565b61220c612288565b5f73ffffffffffffffffffffffffffffffffffffffff168173ffffffffffffffffffffffffffffffffffffffff160361227c575f6040517f1e4fbdf70000000000000000000000000000000000000000000000000000000081526004016122739190612d45565b60405180910390fd5b61228581612450565b50565b61229061283b565b73ffffffffffffffffffffffffffffffffffffffff166122ae610eb4565b73ffffffffffffffffffffffffffffffffffffffff161461230d576122d161283b565b6040517f118cdaa70000000000000000000000000000000000000000000000000000000081526004016123049190612d45565b60405180910390fd5b565b6123a98383836040516024016123279392919061378a565b6040516020818303038152906040527f5821efa1000000000000000000000000000000000000000000000000000000007bffffffffffffffffffffffffffffffffffffffffffffffffffffffff19166020820180517bffffffffffffffffffffffffffffffffffffffffffffffffffffffff8381831617835250505050612842565b505050565b61244a848484846040516024016123c894939291906137cd565b6040516020818303038152906040527f7cc3c607000000000000000000000000000000000000000000000000000000007bffffffffffffffffffffffffffffffffffffffffffffffffffffffff19166020820180517bffffffffffffffffffffffffffffffffffffffffffffffffffffffff8381831617835250505050612842565b50505050565b5f805f9054906101000a900473ffffffffffffffffffffffffffffffffffffffff169050815f806101000a81548173ffffffffffffffffffffffffffffffffffffffff021916908373ffffffffffffffffffffffffffffffffffffffff1602179055508173ffffffffffffffffffffffffffffffffffffffff168173ffffffffffffffffffffffffffffffffffffffff167f8be0079c531659141344cd1fd0a4f28419497f9722a3daafe3b4186f6b6457e060405160405180910390a35050565b6125a9828260405160240161252792919061381e565b6040516020818303038152906040527f319af333000000000000000000000000000000000000000000000000000000007bffffffffffffffffffffffffffffffffffffffffffffffffffffffff19166020820180517bffffffffffffffffffffffffffffffffffffffffffffffffffffffff8381831617835250505050612842565b5050565b612643816040516024016125c19190613152565b6040516020818303038152906040527f41304fac000000000000000000000000000000000000000000000000000000007bffffffffffffffffffffffffffffffffffffffffffffffffffffffff19166020820180517bffffffffffffffffffffffffffffffffffffffffffffffffffffffff8381831617835250505050612842565b50565b6126de828260405160240161265c92919061384c565b6040516020818303038152906040527f4b5c4277000000000000000000000000000000000000000000000000000000007bffffffffffffffffffffffffffffffffffffffffffffffffffffffff19166020820180517bffffffffffffffffffffffffffffffffffffffffffffffffffffffff8381831617835250505050612842565b5050565b5f5b6002805490508110156128375761279d600282815481106127085761270761325b565b5b905f5260205f2001805461271b906130d2565b80601f0160208091040260200160405190810160405280929190818152602001828054612747906130d2565b80156127925780601f1061276957610100808354040283529160200191612792565b820191905f5260205f20905b81548152906001019060200180831161277557829003601f168201915b50505050508361285c565b1561282a57600260016002805490506127b691906136f6565b815481106127c7576127c661325b565b5b905f5260205f2001600282815481106127e3576127e261325b565b5b905f5260205f200190816127f791906138a8565b50600280548061280a5761280961398d565b5b600190038181905f5260205f20015f61282391906128ad565b9055612837565b80806001019150506126e4565b5050565b5f33905090565b612859816128516128836128a2565b63ffffffff16565b50565b5f8151835114801561287b575081805190602001208380519060200120145b905092915050565b5f6a636f6e736f6c652e6c6f6790505f80835160208501845afa505050565b612953819050919050565b5080546128b9906130d2565b5f825580601f106128ca57506128e7565b601f0160209004905f5260205f20908101906128e6919061295d565b5b50565b6040518060a001604052805f73ffffffffffffffffffffffffffffffffffffffff1681526020015f600281111561292457612923612b4b565b5b8152602001606081526020015f73ffffffffffffffffffffffffffffffffffffffff1681526020015f81525090565b61295b6139ba565b565b5b80821115612974575f815f90555060010161295e565b5090565b5f604051905090565b5f80fd5b5f80fd5b5f80fd5b5f80fd5b5f601f19601f8301169050919050565b7f4e487b71000000000000000000000000000000000000000000000000000000005f52604160045260245ffd5b6129d782612991565b810181811067ffffffffffffffff821117156129f6576129f56129a1565b5b80604052505050565b5f612a08612978565b9050612a1482826129ce565b919050565b5f67ffffffffffffffff821115612a3357612a326129a1565b5b612a3c82612991565b9050602081019050919050565b828183375f83830152505050565b5f612a69612a6484612a19565b6129ff565b905082815260208101848484011115612a8557612a8461298d565b5b612a90848285612a49565b509392505050565b5f82601f830112612aac57612aab612989565b5b8135612abc848260208601612a57565b91505092915050565b5f60208284031215612ada57612ad9612981565b5b5f82013567ffffffffffffffff811115612af757612af6612985565b5b612b0384828501612a98565b91505092915050565b5f73ffffffffffffffffffffffffffffffffffffffff82169050919050565b5f612b3582612b0c565b9050919050565b612b4581612b2b565b82525050565b7f4e487b71000000000000000000000000000000000000000000000000000000005f52602160045260245ffd5b60038110612b8957612b88612b4b565b5b50565b5f819050612b9982612b78565b919050565b5f612ba882612b8c565b9050919050565b612bb881612b9e565b82525050565b5f81519050919050565b5f82825260208201905092915050565b8281835e5f83830152505050565b5f612bf082612bbe565b612bfa8185612bc8565b9350612c0a818560208601612bd8565b612c1381612991565b840191505092915050565b5f819050919050565b612c3081612c1e565b82525050565b5f60a082019050612c495f830188612b3c565b612c566020830187612baf565b8181036040830152612c688186612be6565b9050612c776060830185612b3c565b612c846080830184612c27565b9695505050505050565b612c9781612c1e565b8114612ca1575f80fd5b50565b5f81359050612cb281612c8e565b92915050565b5f8060408385031215612cce57612ccd612981565b5b5f83013567ffffffffffffffff811115612ceb57612cea612985565b5b612cf785828601612a98565b9250506020612d0885828601612ca4565b9150509250929050565b5f8115159050919050565b612d2681612d12565b82525050565b5f602082019050612d3f5f830184612d1d565b92915050565b5f602082019050612d585f830184612b3c565b92915050565b612d6781612b2b565b8114612d71575f80fd5b50565b5f81359050612d8281612d5e565b92915050565b5f805f60608486031215612d9f57612d9e612981565b5b5f84013567ffffffffffffffff811115612dbc57612dbb612985565b5b612dc886828701612a98565b9350506020612dd986828701612d74565b9250506040612dea86828701612ca4565b9150509250925092565b5f81519050919050565b5f82825260208201905092915050565b5f819050602082019050919050565b5f82825260208201905092915050565b5f612e3782612bbe565b612e418185612e1d565b9350612e51818560208601612bd8565b612e5a81612991565b840191505092915050565b5f612e708383612e2d565b905092915050565b5f602082019050919050565b5f612e8e82612df4565b612e988185612dfe565b935083602082028501612eaa85612e0e565b805f5b85811015612ee55784840389528151612ec68582612e65565b9450612ed183612e78565b925060208a01995050600181019050612ead565b50829750879550505050505092915050565b5f6020820190508181035f830152612f0f8184612e84565b905092915050565b60038110612f23575f80fd5b50565b5f81359050612f3481612f17565b92915050565b5f805f8060808587031215612f5257612f51612981565b5b5f612f5f87828801612d74565b9450506020612f7087828801612f26565b935050604085013567ffffffffffffffff811115612f9157612f90612985565b5b612f9d87828801612a98565b9250506060612fae87828801612d74565b91505092959194509250565b612fc381612b2b565b82525050565b612fd281612b9e565b82525050565b612fe181612c1e565b82525050565b5f60a083015f830151612ffc5f860182612fba565b50602083015161300f6020860182612fc9565b50604083015184820360408601526130278282612e2d565b915050606083015161303c6060860182612fba565b50608083015161304f6080860182612fd8565b508091505092915050565b5f6020820190508181035f8301526130728184612fe7565b905092915050565b5f6020828403121561308f5761308e612981565b5b5f61309c84828501612d74565b91505092915050565b7f4e487b71000000000000000000000000000000000000000000000000000000005f52602260045260245ffd5b5f60028204905060018216806130e957607f821691505b6020821081036130fc576130fb6130a5565b5b50919050565b5f81905092915050565b5f61311682612bbe565b6131208185613102565b9350613130818560208601612bd8565b80840191505092915050565b5f613147828461310c565b915081905092915050565b5f6020820190508181035f83015261316a8184612be6565b905092915050565b5f6040820190506131855f830185612b3c565b6131926020830184612c27565b9392505050565b5f81519050919050565b5f81905092915050565b5f6131b782613199565b6131c181856131a3565b93506131d1818560208601612bd8565b80840191505092915050565b5f6131e882846131ad565b915081905092915050565b7f6d696e742061737365742063616c6c206661696c6564000000000000000000005f82015250565b5f613227601683612bc8565b9150613232826131f3565b602082019050919050565b5f6020820190508181035f8301526132548161321b565b9050919050565b7f4e487b71000000000000000000000000000000000000000000000000000000005f52603260045260245ffd5b7f61737369676e206173736574206173736574206973206e6f74206c6f636b65645f82015250565b5f6132bc602083612bc8565b91506132c782613288565b602082019050919050565b5f6020820190508181035f8301526132e9816132b0565b9050919050565b5f6060820190506133035f830186612b3c565b6133106020830185612b3c565b61331d6040830184612c27565b949350505050565b7f61737369676e2061737365742063616c6c206661696c656400000000000000005f82015250565b5f613359601883612bc8565b915061336482613325565b602082019050919050565b5f6020820190508181035f8301526133868161334d565b9050919050565b5f819050815f5260205f209050919050565b5f6020601f8301049050919050565b5f82821b905092915050565b5f600883026133e97fffffffffffffffffffffffffffffffffffffffffffffffffffffffffffffffff826133ae565b6133f386836133ae565b95508019841693508086168417925050509392505050565b5f819050919050565b5f61342e61342961342484612c1e565b61340b565b612c1e565b9050919050565b5f819050919050565b61344783613414565b61345b61345382613435565b8484546133ba565b825550505050565b5f90565b61346f613463565b61347a81848461343e565b505050565b5b8181101561349d576134925f82613467565b600181019050613480565b5050565b601f8211156134e2576134b38161338d565b6134bc8461339f565b810160208510156134cb578190505b6134df6134d78561339f565b83018261347f565b50505b505050565b5f82821c905092915050565b5f6135025f19846008026134e7565b1980831691505092915050565b5f61351a83836134f3565b9150826002028217905092915050565b61353382612bbe565b67ffffffffffffffff81111561354c5761354b6129a1565b5b61355682546130d2565b6135618282856134a1565b5f60209050601f831160018114613592575f8415613580578287015190505b61358a858261350f565b8655506135f1565b601f1984166135a08661338d565b5f5b828110156135c7578489015182556001820191506020850194506020810190506135a2565b868310156135e457848901516135e0601f8916826134f3565b8355505b6001600288020188555050505b505050505050565b7f6275726e206173736574206173736574206973206e6f74206c6f636b656400005f82015250565b5f61362d601e83612bc8565b9150613638826135f9565b602082019050919050565b5f6020820190508181035f83015261365a81613621565b9050919050565b7f6275726e2061737365742063616c6c206661696c6564000000000000000000005f82015250565b5f613695601683612bc8565b91506136a082613661565b602082019050919050565b5f6020820190508181035f8301526136c281613689565b9050919050565b7f4e487b71000000000000000000000000000000000000000000000000000000005f52601160045260245ffd5b5f61370082612c1e565b915061370b83612c1e565b9250828203905081811115613723576137226136c9565b5b92915050565b5f6040820190508181035f8301526137418185612be6565b90506137506020830184612c27565b9392505050565b5f61376182612c1e565b915061376c83612c1e565b9250828201905080821115613784576137836136c9565b5b92915050565b5f6060820190508181035f8301526137a28186612be6565b905081810360208301526137b68185612be6565b90506137c56040830184612c27565b949350505050565b5f6080820190508181035f8301526137e58187612be6565b905081810360208301526137f98186612be6565b90506138086040830185612b3c565b6138156060830184612c27565b95945050505050565b5f6040820190508181035f8301526138368185612be6565b90506138456020830184612b3c565b9392505050565b5f6040820190508181035f8301526138648185612be6565b905081810360208301526138788184612be6565b90509392505050565b5f8154905061388f816130d2565b9050919050565b5f819050815f5260205f209050919050565b8181036138b657505061398b565b6138bf82613881565b67ffffffffffffffff8111156138d8576138d76129a1565b5b6138e282546130d2565b6138ed8282856134a1565b5f601f83116001811461391a575f8415613908578287015490505b613912858261350f565b865550613984565b601f19841661392887613896565b96506139338661338d565b5f5b8281101561395a57848901548255600182019150600185019450602081019050613935565b868310156139775784890154613973601f8916826134f3565b8355505b6001600288020188555050505b5050505050505b565b7f4e487b71000000000000000000000000000000000000000000000000000000005f52603160045260245ffd5b7f4e487b71000000000000000000000000000000000000000000000000000000005f52605160045260245ffdfe57726170706572204275726e2066726f6d3a2025730a20616d6f756e743a202573577261707065722041737369676e2066726f6d3a2025730a20746f3a2025730a20616d6f756e743a202573a264697066735822122012a6db600b79dc8db5cc790e6a4e0f06d0d1b5f604bd0e8b0f6557ef5cbc0e4564736f6c634300081a0033",
			"opcodes": "PUSH1 0x80 PUSH1 0x40 MSTORE CALLVALUE DUP1 ISZERO PUSH2 0xF JUMPI PUSH0 DUP1 REVERT JUMPDEST POP PUSH1 0x40 MLOAD PUSH2 0x3CE0 CODESIZE SUB DUP1 PUSH2 0x3CE0 DUP4 CODECOPY DUP2 DUP2 ADD PUSH1 0x40 MSTORE DUP2 ADD SWAP1 PUSH2 0x31 SWAP2 SWAP1 PUSH2 0x217 JUMP JUMPDEST DUP1 PUSH0 PUSH20 0xFFFFFFFFFFFFFFFFFFFFFFFFFFFFFFFFFFFFFFFF AND DUP2 PUSH20 0xFFFFFFFFFFFFFFFFFFFFFFFFFFFFFFFFFFFFFFFF AND SUB PUSH2 0xA2 JUMPI PUSH0 PUSH1 0x40 MLOAD PUSH32 0x1E4FBDF700000000000000000000000000000000000000000000000000000000 DUP2 MSTORE PUSH1 0x4 ADD PUSH2 0x99 SWAP2 SWAP1 PUSH2 0x251 JUMP JUMPDEST PUSH1 0x40 MLOAD DUP1 SWAP2 SUB SWAP1 REVERT JUMPDEST PUSH2 0xB1 DUP2 PUSH2 0xF8 PUSH1 0x20 SHL PUSH1 0x20 SHR JUMP JUMPDEST POP DUP1 PUSH1 0x3 PUSH0 PUSH2 0x100 EXP DUP2 SLOAD DUP2 PUSH20 0xFFFFFFFFFFFFFFFFFFFFFFFFFFFFFFFFFFFFFFFF MUL NOT AND SWAP1 DUP4 PUSH20 0xFFFFFFFFFFFFFFFFFFFFFFFFFFFFFFFFFFFFFFFF AND MUL OR SWAP1 SSTORE POP POP PUSH2 0x26A JUMP JUMPDEST PUSH0 DUP1 PUSH0 SWAP1 SLOAD SWAP1 PUSH2 0x100 EXP SWAP1 DIV PUSH20 0xFFFFFFFFFFFFFFFFFFFFFFFFFFFFFFFFFFFFFFFF AND SWAP1 POP DUP2 PUSH0 DUP1 PUSH2 0x100 EXP DUP2 SLOAD DUP2 PUSH20 0xFFFFFFFFFFFFFFFFFFFFFFFFFFFFFFFFFFFFFFFF MUL NOT AND SWAP1 DUP4 PUSH20 0xFFFFFFFFFFFFFFFFFFFFFFFFFFFFFFFFFFFFFFFF AND MUL OR SWAP1 SSTORE POP DUP2 PUSH20 0xFFFFFFFFFFFFFFFFFFFFFFFFFFFFFFFFFFFFFFFF AND DUP2 PUSH20 0xFFFFFFFFFFFFFFFFFFFFFFFFFFFFFFFFFFFFFFFF AND PUSH32 0x8BE0079C531659141344CD1FD0A4F28419497F9722A3DAAFE3B4186F6B6457E0 PUSH1 0x40 MLOAD PUSH1 0x40 MLOAD DUP1 SWAP2 SUB SWAP1 LOG3 POP POP JUMP JUMPDEST PUSH0 DUP1 REVERT JUMPDEST PUSH0 PUSH20 0xFFFFFFFFFFFFFFFFFFFFFFFFFFFFFFFFFFFFFFFF DUP3 AND SWAP1 POP SWAP2 SWAP1 POP JUMP JUMPDEST PUSH0 PUSH2 0x1E6 DUP3 PUSH2 0x1BD JUMP JUMPDEST SWAP1 POP SWAP2 SWAP1 POP JUMP JUMPDEST PUSH2 0x1F6 DUP2 PUSH2 0x1DC JUMP JUMPDEST DUP2 EQ PUSH2 0x200 JUMPI PUSH0 DUP1 REVERT JUMPDEST POP JUMP JUMPDEST PUSH0 DUP2 MLOAD SWAP1 POP PUSH2 0x211 DUP2 PUSH2 0x1ED JUMP JUMPDEST SWAP3 SWAP2 POP POP JUMP JUMPDEST PUSH0 PUSH1 0x20 DUP3 DUP5 SUB SLT ISZERO PUSH2 0x22C JUMPI PUSH2 0x22B PUSH2 0x1B9 JUMP JUMPDEST JUMPDEST PUSH0 PUSH2 0x239 DUP5 DUP3 DUP6 ADD PUSH2 0x203 JUMP JUMPDEST SWAP2 POP POP SWAP3 SWAP2 POP POP JUMP JUMPDEST PUSH2 0x24B DUP2 PUSH2 0x1DC JUMP JUMPDEST DUP3 MSTORE POP POP JUMP JUMPDEST PUSH0 PUSH1 0x20 DUP3 ADD SWAP1 POP PUSH2 0x264 PUSH0 DUP4 ADD DUP5 PUSH2 0x242 JUMP JUMPDEST SWAP3 SWAP2 POP POP JUMP JUMPDEST PUSH2 0x3A69 DUP1 PUSH2 0x277 PUSH0 CODECOPY PUSH0 RETURN INVALID PUSH1 0x80 PUSH1 0x40 MSTORE CALLVALUE DUP1 ISZERO PUSH2 0xF JUMPI PUSH0 DUP1 REVERT JUMPDEST POP PUSH1 0x4 CALLDATASIZE LT PUSH2 0xE8 JUMPI PUSH0 CALLDATALOAD PUSH1 0xE0 SHR DUP1 PUSH4 0x8DA5CB5B GT PUSH2 0x8A JUMPI DUP1 PUSH4 0xC1733F68 GT PUSH2 0x64 JUMPI DUP1 PUSH4 0xC1733F68 EQ PUSH2 0x274 JUMPI DUP1 PUSH4 0xD9CF884C EQ PUSH2 0x2A4 JUMPI DUP1 PUSH4 0xE1EFB596 EQ PUSH2 0x2D4 JUMPI DUP1 PUSH4 0xF2FDE38B EQ PUSH2 0x304 JUMPI PUSH2 0xE8 JUMP JUMPDEST DUP1 PUSH4 0x8DA5CB5B EQ PUSH2 0x1F6 JUMPI DUP1 PUSH4 0xA1BC17C5 EQ PUSH2 0x214 JUMPI DUP1 PUSH4 0xB48272CC EQ PUSH2 0x244 JUMPI PUSH2 0xE8 JUMP JUMPDEST DUP1 PUSH4 0x4534BA17 GT PUSH2 0xC6 JUMPI DUP1 PUSH4 0x4534BA17 EQ PUSH2 0x16E JUMPI DUP1 PUSH4 0x5137B8A7 EQ PUSH2 0x19E JUMPI DUP1 PUSH4 0x715018A6 EQ PUSH2 0x1BC JUMPI DUP1 PUSH4 0x72D4C33B EQ PUSH2 0x1C6 JUMPI PUSH2 0xE8 JUMP JUMPDEST DUP1 PUSH4 0x4C2320B EQ PUSH2 0xEC JUMPI DUP1 PUSH4 0x56B01CE EQ PUSH2 0x120 JUMPI DUP1 PUSH4 0x1255C189 EQ PUSH2 0x150 JUMPI JUMPDEST PUSH0 DUP1 REVERT JUMPDEST PUSH2 0x106 PUSH1 0x4 DUP1 CALLDATASIZE SUB DUP2 ADD SWAP1 PUSH2 0x101 SWAP2 SWAP1 PUSH2 0x2AC5 JUMP JUMPDEST PUSH2 0x320 JUMP JUMPDEST PUSH1 0x40 MLOAD PUSH2 0x117 SWAP6 SWAP5 SWAP4 SWAP3 SWAP2 SWAP1 PUSH2 0x2C36 JUMP JUMPDEST PUSH1 0x40 MLOAD DUP1 SWAP2 SUB SWAP1 RETURN JUMPDEST PUSH2 0x13A PUSH1 0x4 DUP1 CALLDATASIZE SUB DUP2 ADD SWAP1 PUSH2 0x135 SWAP2 SWAP1 PUSH2 0x2CB8 JUMP JUMPDEST PUSH2 0x43A JUMP JUMPDEST PUSH1 0x40 MLOAD PUSH2 0x147 SWAP2 SWAP1 PUSH2 0x2D2C JUMP JUMPDEST PUSH1 0x40 MLOAD DUP1 SWAP2 SUB SWAP1 RETURN JUMPDEST PUSH2 0x158 PUSH2 0x7CD JUMP JUMPDEST PUSH1 0x40 MLOAD PUSH2 0x165 SWAP2 SWAP1 PUSH2 0x2D45 JUMP JUMPDEST PUSH1 0x40 MLOAD DUP1 SWAP2 SUB SWAP1 RETURN JUMPDEST PUSH2 0x188 PUSH1 0x4 DUP1 CALLDATASIZE SUB DUP2 ADD SWAP1 PUSH2 0x183 SWAP2 SWAP1 PUSH2 0x2D88 JUMP JUMPDEST PUSH2 0x7F2 JUMP JUMPDEST PUSH1 0x40 MLOAD PUSH2 0x195 SWAP2 SWAP1 PUSH2 0x2D2C JUMP JUMPDEST PUSH1 0x40 MLOAD DUP1 SWAP2 SUB SWAP1 RETURN JUMPDEST PUSH2 0x1A6 PUSH2 0xAFB JUMP JUMPDEST PUSH1 0x40 MLOAD PUSH2 0x1B3 SWAP2 SWAP1 PUSH2 0x2EF7 JUMP JUMPDEST PUSH1 0x40 MLOAD DUP1 SWAP2 SUB SWAP1 RETURN JUMPDEST PUSH2 0x1C4 PUSH2 0xBCF JUMP JUMPDEST STOP JUMPDEST PUSH2 0x1E0 PUSH1 0x4 DUP1 CALLDATASIZE SUB DUP2 ADD SWAP1 PUSH2 0x1DB SWAP2 SWAP1 PUSH2 0x2F3A JUMP JUMPDEST PUSH2 0xBE2 JUMP JUMPDEST PUSH1 0x40 MLOAD PUSH2 0x1ED SWAP2 SWAP1 PUSH2 0x2D2C JUMP JUMPDEST PUSH1 0x40 MLOAD DUP1 SWAP2 SUB SWAP1 RETURN JUMPDEST PUSH2 0x1FE PUSH2 0xEB4 JUMP JUMPDEST PUSH1 0x40 MLOAD PUSH2 0x20B SWAP2 SWAP1 PUSH2 0x2D45 JUMP JUMPDEST PUSH1 0x40 MLOAD DUP1 SWAP2 SUB SWAP1 RETURN JUMPDEST PUSH2 0x22E PUSH1 0x4 DUP1 CALLDATASIZE SUB DUP2 ADD SWAP1 PUSH2 0x229 SWAP2 SWAP1 PUSH2 0x2AC5 JUMP JUMPDEST PUSH2 0xEDB JUMP JUMPDEST PUSH1 0x40 MLOAD PUSH2 0x23B SWAP2 SWAP1 PUSH2 0x2D2C JUMP JUMPDEST PUSH1 0x40 MLOAD DUP1 SWAP2 SUB SWAP1 RETURN JUMPDEST PUSH2 0x25E PUSH1 0x4 DUP1 CALLDATASIZE SUB DUP2 ADD SWAP1 PUSH2 0x259 SWAP2 SWAP1 PUSH2 0x2CB8 JUMP JUMPDEST PUSH2 0x1335 JUMP JUMPDEST PUSH1 0x40 MLOAD PUSH2 0x26B SWAP2 SWAP1 PUSH2 0x2D2C JUMP JUMPDEST PUSH1 0x40 MLOAD DUP1 SWAP2 SUB SWAP1 RETURN JUMPDEST PUSH2 0x28E PUSH1 0x4 DUP1 CALLDATASIZE SUB DUP2 ADD SWAP1 PUSH2 0x289 SWAP2 SWAP1 PUSH2 0x2AC5 JUMP JUMPDEST PUSH2 0x1671 JUMP JUMPDEST PUSH1 0x40 MLOAD PUSH2 0x29B SWAP2 SWAP1 PUSH2 0x305A JUMP JUMPDEST PUSH1 0x40 MLOAD DUP1 SWAP2 SUB SWAP1 RETURN JUMPDEST PUSH2 0x2BE PUSH1 0x4 DUP1 CALLDATASIZE SUB DUP2 ADD SWAP1 PUSH2 0x2B9 SWAP2 SWAP1 PUSH2 0x2CB8 JUMP JUMPDEST PUSH2 0x1826 JUMP JUMPDEST PUSH1 0x40 MLOAD PUSH2 0x2CB SWAP2 SWAP1 PUSH2 0x2D2C JUMP JUMPDEST PUSH1 0x40 MLOAD DUP1 SWAP2 SUB SWAP1 RETURN JUMPDEST PUSH2 0x2EE PUSH1 0x4 DUP1 CALLDATASIZE SUB DUP2 ADD SWAP1 PUSH2 0x2E9 SWAP2 SWAP1 PUSH2 0x2CB8 JUMP JUMPDEST PUSH2 0x1E16 JUMP JUMPDEST PUSH1 0x40 MLOAD PUSH2 0x2FB SWAP2 SWAP1 PUSH2 0x2D2C JUMP JUMPDEST PUSH1 0x40 MLOAD DUP1 SWAP2 SUB SWAP1 RETURN JUMPDEST PUSH2 0x31E PUSH1 0x4 DUP1 CALLDATASIZE SUB DUP2 ADD SWAP1 PUSH2 0x319 SWAP2 SWAP1 PUSH2 0x307A JUMP JUMPDEST PUSH2 0x2204 JUMP JUMPDEST STOP JUMPDEST PUSH1 0x1 DUP2 DUP1 MLOAD PUSH1 0x20 DUP2 ADD DUP3 ADD DUP1 MLOAD DUP5 DUP3 MSTORE PUSH1 0x20 DUP4 ADD PUSH1 0x20 DUP6 ADD KECCAK256 DUP2 DUP4 MSTORE DUP1 SWAP6 POP POP POP POP POP POP PUSH0 SWAP2 POP SWAP1 POP DUP1 PUSH0 ADD PUSH0 SWAP1 SLOAD SWAP1 PUSH2 0x100 EXP SWAP1 DIV PUSH20 0xFFFFFFFFFFFFFFFFFFFFFFFFFFFFFFFFFFFFFFFF AND SWAP1 DUP1 PUSH0 ADD PUSH1 0x14 SWAP1 SLOAD SWAP1 PUSH2 0x100 EXP SWAP1 DIV PUSH1 0xFF AND SWAP1 DUP1 PUSH1 0x1 ADD DUP1 SLOAD PUSH2 0x38E SWAP1 PUSH2 0x30D2 JUMP JUMPDEST DUP1 PUSH1 0x1F ADD PUSH1 0x20 DUP1 SWAP2 DIV MUL PUSH1 0x20 ADD PUSH1 0x40 MLOAD SWAP1 DUP2 ADD PUSH1 0x40 MSTORE DUP1 SWAP3 SWAP2 SWAP1 DUP2 DUP2 MSTORE PUSH1 0x20 ADD DUP3 DUP1 SLOAD PUSH2 0x3BA SWAP1 PUSH2 0x30D2 JUMP JUMPDEST DUP1 ISZERO PUSH2 0x405 JUMPI DUP1 PUSH1 0x1F LT PUSH2 0x3DC JUMPI PUSH2 0x100 DUP1 DUP4 SLOAD DIV MUL DUP4 MSTORE SWAP2 PUSH1 0x20 ADD SWAP2 PUSH2 0x405 JUMP JUMPDEST DUP3 ADD SWAP2 SWAP1 PUSH0 MSTORE PUSH1 0x20 PUSH0 KECCAK256 SWAP1 JUMPDEST DUP2 SLOAD DUP2 MSTORE SWAP1 PUSH1 0x1 ADD SWAP1 PUSH1 0x20 ADD DUP1 DUP4 GT PUSH2 0x3E8 JUMPI DUP3 SWAP1 SUB PUSH1 0x1F AND DUP3 ADD SWAP2 JUMPDEST POP POP POP POP POP SWAP1 DUP1 PUSH1 0x2 ADD PUSH0 SWAP1 SLOAD SWAP1 PUSH2 0x100 EXP SWAP1 DIV PUSH20 0xFFFFFFFFFFFFFFFFFFFFFFFFFFFFFFFFFFFFFFFF AND SWAP1 DUP1 PUSH1 0x3 ADD SLOAD SWAP1 POP DUP6 JUMP JUMPDEST PUSH0 PUSH2 0x443 PUSH2 0x2288 JUMP JUMPDEST PUSH2 0x483 PUSH1 0x40 MLOAD DUP1 PUSH1 0x40 ADD PUSH1 0x40 MSTORE DUP1 PUSH1 0x1F DUP2 MSTORE PUSH1 0x20 ADD PUSH32 0x57726170706572204D696E7420746F3A2025730A20616D6F756E743A20257300 DUP2 MSTORE POP DUP5 DUP5 PUSH2 0x230F JUMP JUMPDEST PUSH0 PUSH20 0xFFFFFFFFFFFFFFFFFFFFFFFFFFFFFFFFFFFFFFFF AND PUSH1 0x1 DUP5 PUSH1 0x40 MLOAD PUSH2 0x4AA SWAP2 SWAP1 PUSH2 0x313C JUMP JUMPDEST SWAP1 DUP2 MSTORE PUSH1 0x20 ADD PUSH1 0x40 MLOAD DUP1 SWAP2 SUB SWAP1 KECCAK256 PUSH0 ADD PUSH0 SWAP1 SLOAD SWAP1 PUSH2 0x100 EXP SWAP1 DIV PUSH20 0xFFFFFFFFFFFFFFFFFFFFFFFFFFFFFFFFFFFFFFFF AND PUSH20 0xFFFFFFFFFFFFFFFFFFFFFFFFFFFFFFFFFFFFFFFF AND SUB PUSH2 0x532 JUMPI DUP3 PUSH1 0x40 MLOAD PUSH32 0xC0BAB25F00000000000000000000000000000000000000000000000000000000 DUP2 MSTORE PUSH1 0x4 ADD PUSH2 0x529 SWAP2 SWAP1 PUSH2 0x3152 JUMP JUMPDEST PUSH1 0x40 MLOAD DUP1 SWAP2 SUB SWAP1 REVERT JUMPDEST PUSH0 PUSH1 0x1 DUP5 PUSH1 0x40 MLOAD PUSH2 0x543 SWAP2 SWAP1 PUSH2 0x313C JUMP JUMPDEST SWAP1 DUP2 MSTORE PUSH1 0x20 ADD PUSH1 0x40 MLOAD DUP1 SWAP2 SUB SWAP1 KECCAK256 PUSH0 ADD PUSH0 SWAP1 SLOAD SWAP1 PUSH2 0x100 EXP SWAP1 DIV PUSH20 0xFFFFFFFFFFFFFFFFFFFFFFFFFFFFFFFFFFFFFFFF AND PUSH20 0xFFFFFFFFFFFFFFFFFFFFFFFFFFFFFFFFFFFFFFFF AND ADDRESS DUP5 PUSH1 0x40 MLOAD PUSH1 0x24 ADD PUSH2 0x59C SWAP3 SWAP2 SWAP1 PUSH2 0x3172 JUMP JUMPDEST PUSH1 0x40 MLOAD PUSH1 0x20 DUP2 DUP4 SUB SUB DUP2 MSTORE SWAP1 PUSH1 0x40 MSTORE PUSH32 0x40C10F1900000000000000000000000000000000000000000000000000000000 PUSH28 0xFFFFFFFFFFFFFFFFFFFFFFFFFFFFFFFFFFFFFFFFFFFFFFFFFFFFFFFF NOT AND PUSH1 0x20 DUP3 ADD DUP1 MLOAD PUSH28 0xFFFFFFFFFFFFFFFFFFFFFFFFFFFFFFFFFFFFFFFFFFFFFFFFFFFFFFFF DUP4 DUP2 DUP4 AND OR DUP4 MSTORE POP POP POP POP PUSH1 0x40 MLOAD PUSH2 0x626 SWAP2 SWAP1 PUSH2 0x31DD JUMP JUMPDEST PUSH0 PUSH1 0x40 MLOAD DUP1 DUP4 SUB DUP2 PUSH0 DUP7 GAS CALL SWAP2 POP POP RETURNDATASIZE DUP1 PUSH0 DUP2 EQ PUSH2 0x65F JUMPI PUSH1 0x40 MLOAD SWAP2 POP PUSH1 0x1F NOT PUSH1 0x3F RETURNDATASIZE ADD AND DUP3 ADD PUSH1 0x40 MSTORE RETURNDATASIZE DUP3 MSTORE RETURNDATASIZE PUSH0 PUSH1 0x20 DUP5 ADD RETURNDATACOPY PUSH2 0x664 JUMP JUMPDEST PUSH1 0x60 SWAP2 POP JUMPDEST POP POP SWAP1 POP DUP1 PUSH2 0x6A8 JUMPI PUSH1 0x40 MLOAD PUSH32 0x8C379A000000000000000000000000000000000000000000000000000000000 DUP2 MSTORE PUSH1 0x4 ADD PUSH2 0x69F SWAP1 PUSH2 0x323D JUMP JUMPDEST PUSH1 0x40 MLOAD DUP1 SWAP2 SUB SWAP1 REVERT JUMPDEST DUP3 PUSH1 0x1 DUP6 PUSH1 0x40 MLOAD PUSH2 0x6B9 SWAP2 SWAP1 PUSH2 0x313C JUMP JUMPDEST SWAP1 DUP2 MSTORE PUSH1 0x20 ADD PUSH1 0x40 MLOAD DUP1 SWAP2 SUB SWAP1 KECCAK256 PUSH1 0x3 ADD DUP2 SWAP1 SSTORE POP PUSH0 PUSH1 0x2 PUSH8 0xFFFFFFFFFFFFFFFF DUP2 GT ISZERO PUSH2 0x6EA JUMPI PUSH2 0x6E9 PUSH2 0x29A1 JUMP JUMPDEST JUMPDEST PUSH1 0x40 MLOAD SWAP1 DUP1 DUP3 MSTORE DUP1 PUSH1 0x20 MUL PUSH1 0x20 ADD DUP3 ADD PUSH1 0x40 MSTORE DUP1 ISZERO PUSH2 0x71D JUMPI DUP2 PUSH1 0x20 ADD JUMPDEST PUSH1 0x60 DUP2 MSTORE PUSH1 0x20 ADD SWAP1 PUSH1 0x1 SWAP1 SUB SWAP1 DUP2 PUSH2 0x708 JUMPI SWAP1 POP JUMPDEST POP SWAP1 POP PUSH1 0x40 MLOAD DUP1 PUSH1 0x40 ADD PUSH1 0x40 MSTORE DUP1 PUSH1 0x4 DUP2 MSTORE PUSH1 0x20 ADD PUSH32 0x61746F6100000000000000000000000000000000000000000000000000000000 DUP2 MSTORE POP DUP2 PUSH0 DUP2 MLOAD DUP2 LT PUSH2 0x769 JUMPI PUSH2 0x768 PUSH2 0x325B JUMP JUMPDEST JUMPDEST PUSH1 0x20 MUL PUSH1 0x20 ADD ADD DUP2 SWAP1 MSTORE POP DUP5 PUSH1 0x40 MLOAD PUSH2 0x782 SWAP2 SWAP1 PUSH2 0x313C JUMP JUMPDEST PUSH1 0x40 MLOAD DUP1 SWAP2 SUB SWAP1 KECCAK256 PUSH32 0x2E880E99C8EC365B5C6EBF33D629F356B595654B480D1AD1872023D6E3CC6094 DUP3 PUSH1 0x40 MLOAD PUSH2 0x7B9 SWAP2 SWAP1 PUSH2 0x2EF7 JUMP JUMPDEST PUSH1 0x40 MLOAD DUP1 SWAP2 SUB SWAP1 LOG2 PUSH1 0x1 SWAP3 POP POP POP SWAP3 SWAP2 POP POP JUMP JUMPDEST PUSH1 0x3 PUSH0 SWAP1 SLOAD SWAP1 PUSH2 0x100 EXP SWAP1 DIV PUSH20 0xFFFFFFFFFFFFFFFFFFFFFFFFFFFFFFFFFFFFFFFF AND DUP2 JUMP JUMPDEST PUSH0 PUSH2 0x7FB PUSH2 0x2288 JUMP JUMPDEST PUSH2 0x81F PUSH1 0x40 MLOAD DUP1 PUSH1 0x60 ADD PUSH1 0x40 MSTORE DUP1 PUSH1 0x2B DUP2 MSTORE PUSH1 0x20 ADD PUSH2 0x3A09 PUSH1 0x2B SWAP2 CODECOPY DUP6 DUP6 DUP6 PUSH2 0x23AE JUMP JUMPDEST DUP2 PUSH1 0x1 DUP6 PUSH1 0x40 MLOAD PUSH2 0x830 SWAP2 SWAP1 PUSH2 0x313C JUMP JUMPDEST SWAP1 DUP2 MSTORE PUSH1 0x20 ADD PUSH1 0x40 MLOAD DUP1 SWAP2 SUB SWAP1 KECCAK256 PUSH1 0x3 ADD SLOAD LT ISZERO PUSH2 0x883 JUMPI PUSH1 0x40 MLOAD PUSH32 0x8C379A000000000000000000000000000000000000000000000000000000000 DUP2 MSTORE PUSH1 0x4 ADD PUSH2 0x87A SWAP1 PUSH2 0x32D2 JUMP JUMPDEST PUSH1 0x40 MLOAD DUP1 SWAP2 SUB SWAP1 REVERT JUMPDEST PUSH0 PUSH1 0x1 DUP6 PUSH1 0x40 MLOAD PUSH2 0x894 SWAP2 SWAP1 PUSH2 0x313C JUMP JUMPDEST SWAP1 DUP2 MSTORE PUSH1 0x20 ADD PUSH1 0x40 MLOAD DUP1 SWAP2 SUB SWAP1 KECCAK256 PUSH0 ADD PUSH0 SWAP1 SLOAD SWAP1 PUSH2 0x100 EXP SWAP1 DIV PUSH20 0xFFFFFFFFFFFFFFFFFFFFFFFFFFFFFFFFFFFFFFFF AND PUSH20 0xFFFFFFFFFFFFFFFFFFFFFFFFFFFFFFFFFFFFFFFF AND ADDRESS DUP6 DUP6 PUSH1 0x40 MLOAD PUSH1 0x24 ADD PUSH2 0x8EF SWAP4 SWAP3 SWAP2 SWAP1 PUSH2 0x32F0 JUMP JUMPDEST PUSH1 0x40 MLOAD PUSH1 0x20 DUP2 DUP4 SUB SUB DUP2 MSTORE SWAP1 PUSH1 0x40 MSTORE PUSH32 0x5F52D44E00000000000000000000000000000000000000000000000000000000 PUSH28 0xFFFFFFFFFFFFFFFFFFFFFFFFFFFFFFFFFFFFFFFFFFFFFFFFFFFFFFFF NOT AND PUSH1 0x20 DUP3 ADD DUP1 MLOAD PUSH28 0xFFFFFFFFFFFFFFFFFFFFFFFFFFFFFFFFFFFFFFFFFFFFFFFFFFFFFFFF DUP4 DUP2 DUP4 AND OR DUP4 MSTORE POP POP POP POP PUSH1 0x40 MLOAD PUSH2 0x979 SWAP2 SWAP1 PUSH2 0x31DD JUMP JUMPDEST PUSH0 PUSH1 0x40 MLOAD DUP1 DUP4 SUB DUP2 PUSH0 DUP7 GAS CALL SWAP2 POP POP RETURNDATASIZE DUP1 PUSH0 DUP2 EQ PUSH2 0x9B2 JUMPI PUSH1 0x40 MLOAD SWAP2 POP PUSH1 0x1F NOT PUSH1 0x3F RETURNDATASIZE ADD AND DUP3 ADD PUSH1 0x40 MSTORE RETURNDATASIZE DUP3 MSTORE RETURNDATASIZE PUSH0 PUSH1 0x20 DUP5 ADD RETURNDATACOPY PUSH2 0x9B7 JUMP JUMPDEST PUSH1 0x60 SWAP2 POP JUMPDEST POP POP SWAP1 POP DUP1 PUSH2 0x9FB JUMPI PUSH1 0x40 MLOAD PUSH32 0x8C379A000000000000000000000000000000000000000000000000000000000 DUP2 MSTORE PUSH1 0x4 ADD PUSH2 0x9F2 SWAP1 PUSH2 0x336F JUMP JUMPDEST PUSH1 0x40 MLOAD DUP1 SWAP2 SUB SWAP1 REVERT JUMPDEST PUSH0 PUSH1 0x2 PUSH8 0xFFFFFFFFFFFFFFFF DUP2 GT ISZERO PUSH2 0xA17 JUMPI PUSH2 0xA16 PUSH2 0x29A1 JUMP JUMPDEST JUMPDEST PUSH1 0x40 MLOAD SWAP1 DUP1 DUP3 MSTORE DUP1 PUSH1 0x20 MUL PUSH1 0x20 ADD DUP3 ADD PUSH1 0x40 MSTORE DUP1 ISZERO PUSH2 0xA4A JUMPI DUP2 PUSH1 0x20 ADD JUMPDEST PUSH1 0x60 DUP2 MSTORE PUSH1 0x20 ADD SWAP1 PUSH1 0x1 SWAP1 SUB SWAP1 DUP2 PUSH2 0xA35 JUMPI SWAP1 POP JUMPDEST POP SWAP1 POP PUSH1 0x40 MLOAD DUP1 PUSH1 0x40 ADD PUSH1 0x40 MSTORE DUP1 PUSH1 0x4 DUP2 MSTORE PUSH1 0x20 ADD PUSH32 0x61746F6100000000000000000000000000000000000000000000000000000000 DUP2 MSTORE POP DUP2 PUSH0 DUP2 MLOAD DUP2 LT PUSH2 0xA96 JUMPI PUSH2 0xA95 PUSH2 0x325B JUMP JUMPDEST JUMPDEST PUSH1 0x20 MUL PUSH1 0x20 ADD ADD DUP2 SWAP1 MSTORE POP DUP6 PUSH1 0x40 MLOAD PUSH2 0xAAF SWAP2 SWAP1 PUSH2 0x313C JUMP JUMPDEST PUSH1 0x40 MLOAD DUP1 SWAP2 SUB SWAP1 KECCAK256 PUSH32 0x2E880E99C8EC365B5C6EBF33D629F356B595654B480D1AD1872023D6E3CC6094 DUP3 PUSH1 0x40 MLOAD PUSH2 0xAE6 SWAP2 SWAP1 PUSH2 0x2EF7 JUMP JUMPDEST PUSH1 0x40 MLOAD DUP1 SWAP2 SUB SWAP1 LOG2 PUSH1 0x1 SWAP3 POP POP POP SWAP4 SWAP3 POP POP POP JUMP JUMPDEST PUSH1 0x60 PUSH1 0x2 DUP1 SLOAD DUP1 PUSH1 0x20 MUL PUSH1 0x20 ADD PUSH1 0x40 MLOAD SWAP1 DUP2 ADD PUSH1 0x40 MSTORE DUP1 SWAP3 SWAP2 SWAP1 DUP2 DUP2 MSTORE PUSH1 0x20 ADD PUSH0 SWAP1 JUMPDEST DUP3 DUP3 LT ISZERO PUSH2 0xBC6 JUMPI DUP4 DUP3 SWAP1 PUSH0 MSTORE PUSH1 0x20 PUSH0 KECCAK256 ADD DUP1 SLOAD PUSH2 0xB3B SWAP1 PUSH2 0x30D2 JUMP JUMPDEST DUP1 PUSH1 0x1F ADD PUSH1 0x20 DUP1 SWAP2 DIV MUL PUSH1 0x20 ADD PUSH1 0x40 MLOAD SWAP1 DUP2 ADD PUSH1 0x40 MSTORE DUP1 SWAP3 SWAP2 SWAP1 DUP2 DUP2 MSTORE PUSH1 0x20 ADD DUP3 DUP1 SLOAD PUSH2 0xB67 SWAP1 PUSH2 0x30D2 JUMP JUMPDEST DUP1 ISZERO PUSH2 0xBB2 JUMPI DUP1 PUSH1 0x1F LT PUSH2 0xB89 JUMPI PUSH2 0x100 DUP1 DUP4 SLOAD DIV MUL DUP4 MSTORE SWAP2 PUSH1 0x20 ADD SWAP2 PUSH2 0xBB2 JUMP JUMPDEST DUP3 ADD SWAP2 SWAP1 PUSH0 MSTORE PUSH1 0x20 PUSH0 KECCAK256 SWAP1 JUMPDEST DUP2 SLOAD DUP2 MSTORE SWAP1 PUSH1 0x1 ADD SWAP1 PUSH1 0x20 ADD DUP1 DUP4 GT PUSH2 0xB95 JUMPI DUP3 SWAP1 SUB PUSH1 0x1F AND DUP3 ADD SWAP2 JUMPDEST POP POP POP POP POP DUP2 MSTORE PUSH1 0x20 ADD SWAP1 PUSH1 0x1 ADD SWAP1 PUSH2 0xB1E JUMP JUMPDEST POP POP POP POP SWAP1 POP SWAP1 JUMP JUMPDEST PUSH2 0xBD7 PUSH2 0x2288 JUMP JUMPDEST PUSH2 0xBE0 PUSH0 PUSH2 0x2450 JUMP JUMPDEST JUMP JUMPDEST PUSH0 PUSH2 0xBEB PUSH2 0x2288 JUMP JUMPDEST PUSH2 0xC2A PUSH1 0x40 MLOAD DUP1 PUSH1 0x40 ADD PUSH1 0x40 MSTORE DUP1 PUSH1 0xE DUP2 MSTORE PUSH1 0x20 ADD PUSH32 0x5772617020746F6B656E3A202573000000000000000000000000000000000000 DUP2 MSTORE POP DUP7 PUSH2 0x2511 JUMP JUMPDEST PUSH0 PUSH20 0xFFFFFFFFFFFFFFFFFFFFFFFFFFFFFFFFFFFFFFFF AND PUSH1 0x1 DUP5 PUSH1 0x40 MLOAD PUSH2 0xC51 SWAP2 SWAP1 PUSH2 0x313C JUMP JUMPDEST SWAP1 DUP2 MSTORE PUSH1 0x20 ADD PUSH1 0x40 MLOAD DUP1 SWAP2 SUB SWAP1 KECCAK256 PUSH0 ADD PUSH0 SWAP1 SLOAD SWAP1 PUSH2 0x100 EXP SWAP1 DIV PUSH20 0xFFFFFFFFFFFFFFFFFFFFFFFFFFFFFFFFFFFFFFFF AND PUSH20 0xFFFFFFFFFFFFFFFFFFFFFFFFFFFFFFFFFFFFFFFF AND EQ PUSH2 0xD17 JUMPI PUSH2 0xCDA PUSH1 0x40 MLOAD DUP1 PUSH1 0x40 ADD PUSH1 0x40 MSTORE DUP1 PUSH1 0x15 DUP2 MSTORE PUSH1 0x20 ADD PUSH32 0x546F6B656E20416C726561647920577261707065640000000000000000000000 DUP2 MSTORE POP PUSH2 0x25AD JUMP JUMPDEST DUP3 PUSH1 0x40 MLOAD PUSH32 0x67AB234400000000000000000000000000000000000000000000000000000000 DUP2 MSTORE PUSH1 0x4 ADD PUSH2 0xD0E SWAP2 SWAP1 PUSH2 0x3152 JUMP JUMPDEST PUSH1 0x40 MLOAD DUP1 SWAP2 SUB SWAP1 REVERT JUMPDEST PUSH1 0x40 MLOAD DUP1 PUSH1 0xA0 ADD PUSH1 0x40 MSTORE DUP1 DUP7 PUSH20 0xFFFFFFFFFFFFFFFFFFFFFFFFFFFFFFFFFFFFFFFF AND DUP2 MSTORE PUSH1 0x20 ADD DUP6 PUSH1 0x2 DUP2 GT ISZERO PUSH2 0xD51 JUMPI PUSH2 0xD50 PUSH2 0x2B4B JUMP JUMPDEST JUMPDEST DUP2 MSTORE PUSH1 0x20 ADD DUP5 DUP2 MSTORE PUSH1 0x20 ADD DUP4 PUSH20 0xFFFFFFFFFFFFFFFFFFFFFFFFFFFFFFFFFFFFFFFF AND DUP2 MSTORE PUSH1 0x20 ADD PUSH0 DUP2 MSTORE POP PUSH1 0x1 DUP5 PUSH1 0x40 MLOAD PUSH2 0xD8C SWAP2 SWAP1 PUSH2 0x313C JUMP JUMPDEST SWAP1 DUP2 MSTORE PUSH1 0x20 ADD PUSH1 0x40 MLOAD DUP1 SWAP2 SUB SWAP1 KECCAK256 PUSH0 DUP3 ADD MLOAD DUP2 PUSH0 ADD PUSH0 PUSH2 0x100 EXP DUP2 SLOAD DUP2 PUSH20 0xFFFFFFFFFFFFFFFFFFFFFFFFFFFFFFFFFFFFFFFF MUL NOT AND SWAP1 DUP4 PUSH20 0xFFFFFFFFFFFFFFFFFFFFFFFFFFFFFFFFFFFFFFFF AND MUL OR SWAP1 SSTORE POP PUSH1 0x20 DUP3 ADD MLOAD DUP2 PUSH0 ADD PUSH1 0x14 PUSH2 0x100 EXP DUP2 SLOAD DUP2 PUSH1 0xFF MUL NOT AND SWAP1 DUP4 PUSH1 0x2 DUP2 GT ISZERO PUSH2 0xE08 JUMPI PUSH2 0xE07 PUSH2 0x2B4B JUMP JUMPDEST JUMPDEST MUL OR SWAP1 SSTORE POP PUSH1 0x40 DUP3 ADD MLOAD DUP2 PUSH1 0x1 ADD SWAP1 DUP2 PUSH2 0xE22 SWAP2 SWAP1 PUSH2 0x352A JUMP JUMPDEST POP PUSH1 0x60 DUP3 ADD MLOAD DUP2 PUSH1 0x2 ADD PUSH0 PUSH2 0x100 EXP DUP2 SLOAD DUP2 PUSH20 0xFFFFFFFFFFFFFFFFFFFFFFFFFFFFFFFFFFFFFFFF MUL NOT AND SWAP1 DUP4 PUSH20 0xFFFFFFFFFFFFFFFFFFFFFFFFFFFFFFFFFFFFFFFF AND MUL OR SWAP1 SSTORE POP PUSH1 0x80 DUP3 ADD MLOAD DUP2 PUSH1 0x3 ADD SSTORE SWAP1 POP POP PUSH1 0x2 DUP4 SWAP1 DUP1 PUSH1 0x1 DUP2 SLOAD ADD DUP1 DUP3 SSTORE DUP1 SWAP2 POP POP PUSH1 0x1 SWAP1 SUB SWAP1 PUSH0 MSTORE PUSH1 0x20 PUSH0 KECCAK256 ADD PUSH0 SWAP1 SWAP2 SWAP1 SWAP2 SWAP1 SWAP2 POP SWAP1 DUP2 PUSH2 0xEA7 SWAP2 SWAP1 PUSH2 0x352A JUMP JUMPDEST POP PUSH1 0x1 SWAP1 POP SWAP5 SWAP4 POP POP POP POP JUMP JUMPDEST PUSH0 DUP1 PUSH0 SWAP1 SLOAD SWAP1 PUSH2 0x100 EXP SWAP1 DIV PUSH20 0xFFFFFFFFFFFFFFFFFFFFFFFFFFFFFFFFFFFFFFFF AND SWAP1 POP SWAP1 JUMP JUMPDEST PUSH0 PUSH2 0xEE4 PUSH2 0x2288 JUMP JUMPDEST PUSH2 0xF23 PUSH1 0x40 MLOAD DUP1 PUSH1 0x40 ADD PUSH1 0x40 MSTORE DUP1 PUSH1 0x10 DUP2 MSTORE PUSH1 0x20 ADD PUSH32 0x556E7772617020746F6B656E3A20257300000000000000000000000000000000 DUP2 MSTORE POP DUP4 PUSH2 0x2646 JUMP JUMPDEST PUSH0 PUSH20 0xFFFFFFFFFFFFFFFFFFFFFFFFFFFFFFFFFFFFFFFF AND PUSH1 0x1 DUP4 PUSH1 0x40 MLOAD PUSH2 0xF4A SWAP2 SWAP1 PUSH2 0x313C JUMP JUMPDEST SWAP1 DUP2 MSTORE PUSH1 0x20 ADD PUSH1 0x40 MLOAD DUP1 SWAP2 SUB SWAP1 KECCAK256 PUSH0 ADD PUSH0 SWAP1 SLOAD SWAP1 PUSH2 0x100 EXP SWAP1 DIV PUSH20 0xFFFFFFFFFFFFFFFFFFFFFFFFFFFFFFFFFFFFFFFF AND PUSH20 0xFFFFFFFFFFFFFFFFFFFFFFFFFFFFFFFFFFFFFFFF AND SUB PUSH2 0x1010 JUMPI PUSH2 0xFD3 PUSH1 0x40 MLOAD DUP1 PUSH1 0x40 ADD PUSH1 0x40 MSTORE DUP1 PUSH1 0x11 DUP2 MSTORE PUSH1 0x20 ADD PUSH32 0x546F6B656E206E6F742057726170706564000000000000000000000000000000 DUP2 MSTORE POP PUSH2 0x25AD JUMP JUMPDEST DUP2 PUSH1 0x40 MLOAD PUSH32 0xC0BAB25F00000000000000000000000000000000000000000000000000000000 DUP2 MSTORE PUSH1 0x4 ADD PUSH2 0x1007 SWAP2 SWAP1 PUSH2 0x3152 JUMP JUMPDEST PUSH1 0x40 MLOAD DUP1 SWAP2 SUB SWAP1 REVERT JUMPDEST PUSH0 PUSH1 0x1 DUP4 PUSH1 0x40 MLOAD PUSH2 0x1021 SWAP2 SWAP1 PUSH2 0x313C JUMP JUMPDEST SWAP1 DUP2 MSTORE PUSH1 0x20 ADD PUSH1 0x40 MLOAD DUP1 SWAP2 SUB SWAP1 KECCAK256 PUSH1 0x3 ADD SLOAD GT ISZERO PUSH2 0x10B4 JUMPI PUSH2 0x1077 PUSH1 0x40 MLOAD DUP1 PUSH1 0x40 ADD PUSH1 0x40 MSTORE DUP1 PUSH1 0xF DUP2 MSTORE PUSH1 0x20 ADD PUSH32 0x546F6B656E206973206C6F636B65640000000000000000000000000000000000 DUP2 MSTORE POP PUSH2 0x25AD JUMP JUMPDEST DUP2 PUSH1 0x40 MLOAD PUSH32 0xB7D2C10A00000000000000000000000000000000000000000000000000000000 DUP2 MSTORE PUSH1 0x4 ADD PUSH2 0x10AB SWAP2 SWAP1 PUSH2 0x3152 JUMP JUMPDEST PUSH1 0x40 MLOAD DUP1 SWAP2 SUB SWAP1 REVERT JUMPDEST PUSH2 0x1164 PUSH1 0x1 DUP4 PUSH1 0x40 MLOAD PUSH2 0x10C7 SWAP2 SWAP1 PUSH2 0x313C JUMP JUMPDEST SWAP1 DUP2 MSTORE PUSH1 0x20 ADD PUSH1 0x40 MLOAD DUP1 SWAP2 SUB SWAP1 KECCAK256 PUSH1 0x1 ADD DUP1 SLOAD PUSH2 0x10E3 SWAP1 PUSH2 0x30D2 JUMP JUMPDEST DUP1 PUSH1 0x1F ADD PUSH1 0x20 DUP1 SWAP2 DIV MUL PUSH1 0x20 ADD PUSH1 0x40 MLOAD SWAP1 DUP2 ADD PUSH1 0x40 MSTORE DUP1 SWAP3 SWAP2 SWAP1 DUP2 DUP2 MSTORE PUSH1 0x20 ADD DUP3 DUP1 SLOAD PUSH2 0x110F SWAP1 PUSH2 0x30D2 JUMP JUMPDEST DUP1 ISZERO PUSH2 0x115A JUMPI DUP1 PUSH1 0x1F LT PUSH2 0x1131 JUMPI PUSH2 0x100 DUP1 DUP4 SLOAD DIV MUL DUP4 MSTORE SWAP2 PUSH1 0x20 ADD SWAP2 PUSH2 0x115A JUMP JUMPDEST DUP3 ADD SWAP2 SWAP1 PUSH0 MSTORE PUSH1 0x20 PUSH0 KECCAK256 SWAP1 JUMPDEST DUP2 SLOAD DUP2 MSTORE SWAP1 PUSH1 0x1 ADD SWAP1 PUSH1 0x20 ADD DUP1 DUP4 GT PUSH2 0x113D JUMPI DUP3 SWAP1 SUB PUSH1 0x1F AND DUP3 ADD SWAP2 JUMPDEST POP POP POP POP POP PUSH2 0x26E2 JUMP JUMPDEST PUSH2 0x11A3 PUSH1 0x40 MLOAD DUP1 PUSH1 0x40 ADD PUSH1 0x40 MSTORE DUP1 PUSH1 0x1C DUP2 MSTORE PUSH1 0x20 ADD PUSH32 0x44656C657465642066726F6D20617272617920746F6B656E3A20257300000000 DUP2 MSTORE POP DUP4 PUSH2 0x2646 JUMP JUMPDEST PUSH1 0x1 DUP3 PUSH1 0x40 MLOAD PUSH2 0x11B3 SWAP2 SWAP1 PUSH2 0x313C JUMP JUMPDEST SWAP1 DUP2 MSTORE PUSH1 0x20 ADD PUSH1 0x40 MLOAD DUP1 SWAP2 SUB SWAP1 KECCAK256 PUSH0 DUP1 DUP3 ADD PUSH0 PUSH2 0x100 EXP DUP2 SLOAD SWAP1 PUSH20 0xFFFFFFFFFFFFFFFFFFFFFFFFFFFFFFFFFFFFFFFF MUL NOT AND SWAP1 SSTORE PUSH0 DUP3 ADD PUSH1 0x14 PUSH2 0x100 EXP DUP2 SLOAD SWAP1 PUSH1 0xFF MUL NOT AND SWAP1 SSTORE PUSH1 0x1 DUP3 ADD PUSH0 PUSH2 0x1209 SWAP2 SWAP1 PUSH2 0x28AD JUMP JUMPDEST PUSH1 0x2 DUP3 ADD PUSH0 PUSH2 0x100 EXP DUP2 SLOAD SWAP1 PUSH20 0xFFFFFFFFFFFFFFFFFFFFFFFFFFFFFFFFFFFFFFFF MUL NOT AND SWAP1 SSTORE PUSH1 0x3 DUP3 ADD PUSH0 SWAP1 SSTORE POP POP PUSH0 PUSH1 0x2 PUSH8 0xFFFFFFFFFFFFFFFF DUP2 GT ISZERO PUSH2 0x1254 JUMPI PUSH2 0x1253 PUSH2 0x29A1 JUMP JUMPDEST JUMPDEST PUSH1 0x40 MLOAD SWAP1 DUP1 DUP3 MSTORE DUP1 PUSH1 0x20 MUL PUSH1 0x20 ADD DUP3 ADD PUSH1 0x40 MSTORE DUP1 ISZERO PUSH2 0x1287 JUMPI DUP2 PUSH1 0x20 ADD JUMPDEST PUSH1 0x60 DUP2 MSTORE PUSH1 0x20 ADD SWAP1 PUSH1 0x1 SWAP1 SUB SWAP1 DUP2 PUSH2 0x1272 JUMPI SWAP1 POP JUMPDEST POP SWAP1 POP PUSH1 0x40 MLOAD DUP1 PUSH1 0x40 ADD PUSH1 0x40 MSTORE DUP1 PUSH1 0x4 DUP2 MSTORE PUSH1 0x20 ADD PUSH32 0x61746F6100000000000000000000000000000000000000000000000000000000 DUP2 MSTORE POP DUP2 PUSH0 DUP2 MLOAD DUP2 LT PUSH2 0x12D3 JUMPI PUSH2 0x12D2 PUSH2 0x325B JUMP JUMPDEST JUMPDEST PUSH1 0x20 MUL PUSH1 0x20 ADD ADD DUP2 SWAP1 MSTORE POP DUP3 PUSH1 0x40 MLOAD PUSH2 0x12EC SWAP2 SWAP1 PUSH2 0x313C JUMP JUMPDEST PUSH1 0x40 MLOAD DUP1 SWAP2 SUB SWAP1 KECCAK256 PUSH32 0x2E880E99C8EC365B5C6EBF33D629F356B595654B480D1AD1872023D6E3CC6094 DUP3 PUSH1 0x40 MLOAD PUSH2 0x1323 SWAP2 SWAP1 PUSH2 0x2EF7 JUMP JUMPDEST PUSH1 0x40 MLOAD DUP1 SWAP2 SUB SWAP1 LOG2 PUSH1 0x1 SWAP2 POP POP SWAP2 SWAP1 POP JUMP JUMPDEST PUSH0 PUSH2 0x133E PUSH2 0x2288 JUMP JUMPDEST PUSH2 0x1361 PUSH1 0x40 MLOAD DUP1 PUSH1 0x60 ADD PUSH1 0x40 MSTORE DUP1 PUSH1 0x21 DUP2 MSTORE PUSH1 0x20 ADD PUSH2 0x39E8 PUSH1 0x21 SWAP2 CODECOPY DUP5 DUP5 PUSH2 0x230F JUMP JUMPDEST DUP2 PUSH1 0x1 DUP5 PUSH1 0x40 MLOAD PUSH2 0x1372 SWAP2 SWAP1 PUSH2 0x313C JUMP JUMPDEST SWAP1 DUP2 MSTORE PUSH1 0x20 ADD PUSH1 0x40 MLOAD DUP1 SWAP2 SUB SWAP1 KECCAK256 PUSH1 0x3 ADD SLOAD LT ISZERO PUSH2 0x13C5 JUMPI PUSH1 0x40 MLOAD PUSH32 0x8C379A000000000000000000000000000000000000000000000000000000000 DUP2 MSTORE PUSH1 0x4 ADD PUSH2 0x13BC SWAP1 PUSH2 0x3643 JUMP JUMPDEST PUSH1 0x40 MLOAD DUP1 SWAP2 SUB SWAP1 REVERT JUMPDEST PUSH0 PUSH1 0x1 DUP5 PUSH1 0x40 MLOAD PUSH2 0x13D6 SWAP2 SWAP1 PUSH2 0x313C JUMP JUMPDEST SWAP1 DUP2 MSTORE PUSH1 0x20 ADD PUSH1 0x40 MLOAD DUP1 SWAP2 SUB SWAP1 KECCAK256 PUSH0 ADD PUSH0 SWAP1 SLOAD SWAP1 PUSH2 0x100 EXP SWAP1 DIV PUSH20 0xFFFFFFFFFFFFFFFFFFFFFFFFFFFFFFFFFFFFFFFF AND PUSH20 0xFFFFFFFFFFFFFFFFFFFFFFFFFFFFFFFFFFFFFFFF AND ADDRESS DUP5 PUSH1 0x40 MLOAD PUSH1 0x24 ADD PUSH2 0x142F SWAP3 SWAP2 SWAP1 PUSH2 0x3172 JUMP JUMPDEST PUSH1 0x40 MLOAD PUSH1 0x20 DUP2 DUP4 SUB SUB DUP2 MSTORE SWAP1 PUSH1 0x40 MSTORE PUSH32 0x9DC29FAC00000000000000000000000000000000000000000000000000000000 PUSH28 0xFFFFFFFFFFFFFFFFFFFFFFFFFFFFFFFFFFFFFFFFFFFFFFFFFFFFFFFF NOT AND PUSH1 0x20 DUP3 ADD DUP1 MLOAD PUSH28 0xFFFFFFFFFFFFFFFFFFFFFFFFFFFFFFFFFFFFFFFFFFFFFFFFFFFFFFFF DUP4 DUP2 DUP4 AND OR DUP4 MSTORE POP POP POP POP PUSH1 0x40 MLOAD PUSH2 0x14B9 SWAP2 SWAP1 PUSH2 0x31DD JUMP JUMPDEST PUSH0 PUSH1 0x40 MLOAD DUP1 DUP4 SUB DUP2 PUSH0 DUP7 GAS CALL SWAP2 POP POP RETURNDATASIZE DUP1 PUSH0 DUP2 EQ PUSH2 0x14F2 JUMPI PUSH1 0x40 MLOAD SWAP2 POP PUSH1 0x1F NOT PUSH1 0x3F RETURNDATASIZE ADD AND DUP3 ADD PUSH1 0x40 MSTORE RETURNDATASIZE DUP3 MSTORE RETURNDATASIZE PUSH0 PUSH1 0x20 DUP5 ADD RETURNDATACOPY PUSH2 0x14F7 JUMP JUMPDEST PUSH1 0x60 SWAP2 POP JUMPDEST POP POP SWAP1 POP DUP1 PUSH2 0x153B JUMPI PUSH1 0x40 MLOAD PUSH32 0x8C379A000000000000000000000000000000000000000000000000000000000 DUP2 MSTORE PUSH1 0x4 ADD PUSH2 0x1532 SWAP1 PUSH2 0x36AB JUMP JUMPDEST PUSH1 0x40 MLOAD DUP1 SWAP2 SUB SWAP1 REVERT JUMPDEST DUP3 PUSH1 0x1 DUP6 PUSH1 0x40 MLOAD PUSH2 0x154C SWAP2 SWAP1 PUSH2 0x313C JUMP JUMPDEST SWAP1 DUP2 MSTORE PUSH1 0x20 ADD PUSH1 0x40 MLOAD DUP1 SWAP2 SUB SWAP1 KECCAK256 PUSH1 0x3 ADD PUSH0 DUP3 DUP3 SLOAD PUSH2 0x156B SWAP2 SWAP1 PUSH2 0x36F6 JUMP JUMPDEST SWAP3 POP POP DUP2 SWAP1 SSTORE POP PUSH0 PUSH1 0x2 PUSH8 0xFFFFFFFFFFFFFFFF DUP2 GT ISZERO PUSH2 0x158E JUMPI PUSH2 0x158D PUSH2 0x29A1 JUMP JUMPDEST JUMPDEST PUSH1 0x40 MLOAD SWAP1 DUP1 DUP3 MSTORE DUP1 PUSH1 0x20 MUL PUSH1 0x20 ADD DUP3 ADD PUSH1 0x40 MSTORE DUP1 ISZERO PUSH2 0x15C1 JUMPI DUP2 PUSH1 0x20 ADD JUMPDEST PUSH1 0x60 DUP2 MSTORE PUSH1 0x20 ADD SWAP1 PUSH1 0x1 SWAP1 SUB SWAP1 DUP2 PUSH2 0x15AC JUMPI SWAP1 POP JUMPDEST POP SWAP1 POP PUSH1 0x40 MLOAD DUP1 PUSH1 0x40 ADD PUSH1 0x40 MSTORE DUP1 PUSH1 0x4 DUP2 MSTORE PUSH1 0x20 ADD PUSH32 0x61746F6100000000000000000000000000000000000000000000000000000000 DUP2 MSTORE POP DUP2 PUSH0 DUP2 MLOAD DUP2 LT PUSH2 0x160D JUMPI PUSH2 0x160C PUSH2 0x325B JUMP JUMPDEST JUMPDEST PUSH1 0x20 MUL PUSH1 0x20 ADD ADD DUP2 SWAP1 MSTORE POP DUP5 PUSH1 0x40 MLOAD PUSH2 0x1626 SWAP2 SWAP1 PUSH2 0x313C JUMP JUMPDEST PUSH1 0x40 MLOAD DUP1 SWAP2 SUB SWAP1 KECCAK256 PUSH32 0x2E880E99C8EC365B5C6EBF33D629F356B595654B480D1AD1872023D6E3CC6094 DUP3 PUSH1 0x40 MLOAD PUSH2 0x165D SWAP2 SWAP1 PUSH2 0x2EF7 JUMP JUMPDEST PUSH1 0x40 MLOAD DUP1 SWAP2 SUB SWAP1 LOG2 PUSH1 0x1 SWAP3 POP POP POP SWAP3 SWAP2 POP POP JUMP JUMPDEST PUSH2 0x1679 PUSH2 0x28EA JUMP JUMPDEST PUSH1 0x1 DUP3 PUSH1 0x40 MLOAD PUSH2 0x1689 SWAP2 SWAP1 PUSH2 0x313C JUMP JUMPDEST SWAP1 DUP2 MSTORE PUSH1 0x20 ADD PUSH1 0x40 MLOAD DUP1 SWAP2 SUB SWAP1 KECCAK256 PUSH1 0x40 MLOAD DUP1 PUSH1 0xA0 ADD PUSH1 0x40 MSTORE SWAP1 DUP2 PUSH0 DUP3 ADD PUSH0 SWAP1 SLOAD SWAP1 PUSH2 0x100 EXP SWAP1 DIV PUSH20 0xFFFFFFFFFFFFFFFFFFFFFFFFFFFFFFFFFFFFFFFF AND PUSH20 0xFFFFFFFFFFFFFFFFFFFFFFFFFFFFFFFFFFFFFFFF AND PUSH20 0xFFFFFFFFFFFFFFFFFFFFFFFFFFFFFFFFFFFFFFFF AND DUP2 MSTORE PUSH1 0x20 ADD PUSH0 DUP3 ADD PUSH1 0x14 SWAP1 SLOAD SWAP1 PUSH2 0x100 EXP SWAP1 DIV PUSH1 0xFF AND PUSH1 0x2 DUP2 GT ISZERO PUSH2 0x171A JUMPI PUSH2 0x1719 PUSH2 0x2B4B JUMP JUMPDEST JUMPDEST PUSH1 0x2 DUP2 GT ISZERO PUSH2 0x172C JUMPI PUSH2 0x172B PUSH2 0x2B4B JUMP JUMPDEST JUMPDEST DUP2 MSTORE PUSH1 0x20 ADD PUSH1 0x1 DUP3 ADD DUP1 SLOAD PUSH2 0x1740 SWAP1 PUSH2 0x30D2 JUMP JUMPDEST DUP1 PUSH1 0x1F ADD PUSH1 0x20 DUP1 SWAP2 DIV MUL PUSH1 0x20 ADD PUSH1 0x40 MLOAD SWAP1 DUP2 ADD PUSH1 0x40 MSTORE DUP1 SWAP3 SWAP2 SWAP1 DUP2 DUP2 MSTORE PUSH1 0x20 ADD DUP3 DUP1 SLOAD PUSH2 0x176C SWAP1 PUSH2 0x30D2 JUMP JUMPDEST DUP1 ISZERO PUSH2 0x17B7 JUMPI DUP1 PUSH1 0x1F LT PUSH2 0x178E JUMPI PUSH2 0x100 DUP1 DUP4 SLOAD DIV MUL DUP4 MSTORE SWAP2 PUSH1 0x20 ADD SWAP2 PUSH2 0x17B7 JUMP JUMPDEST DUP3 ADD SWAP2 SWAP1 PUSH0 MSTORE PUSH1 0x20 PUSH0 KECCAK256 SWAP1 JUMPDEST DUP2 SLOAD DUP2 MSTORE SWAP1 PUSH1 0x1 ADD SWAP1 PUSH1 0x20 ADD DUP1 DUP4 GT PUSH2 0x179A JUMPI DUP3 SWAP1 SUB PUSH1 0x1F AND DUP3 ADD SWAP2 JUMPDEST POP POP POP POP POP DUP2 MSTORE PUSH1 0x20 ADD PUSH1 0x2 DUP3 ADD PUSH0 SWAP1 SLOAD SWAP1 PUSH2 0x100 EXP SWAP1 DIV PUSH20 0xFFFFFFFFFFFFFFFFFFFFFFFFFFFFFFFFFFFFFFFF AND PUSH20 0xFFFFFFFFFFFFFFFFFFFFFFFFFFFFFFFFFFFFFFFF AND PUSH20 0xFFFFFFFFFFFFFFFFFFFFFFFFFFFFFFFFFFFFFFFF AND DUP2 MSTORE PUSH1 0x20 ADD PUSH1 0x3 DUP3 ADD SLOAD DUP2 MSTORE POP POP SWAP1 POP SWAP2 SWAP1 POP JUMP JUMPDEST PUSH0 PUSH2 0x182F PUSH2 0x2288 JUMP JUMPDEST PUSH2 0x186F PUSH1 0x40 MLOAD DUP1 PUSH1 0x40 ADD PUSH1 0x40 MSTORE DUP1 PUSH1 0x1C DUP2 MSTORE PUSH1 0x20 ADD PUSH32 0x556E6C6F636B20746F6B656E3A2025730A20616D6F756E743A20257300000000 DUP2 MSTORE POP DUP5 DUP5 PUSH2 0x230F JUMP JUMPDEST PUSH0 PUSH20 0xFFFFFFFFFFFFFFFFFFFFFFFFFFFFFFFFFFFFFFFF AND PUSH1 0x1 DUP5 PUSH1 0x40 MLOAD PUSH2 0x1896 SWAP2 SWAP1 PUSH2 0x313C JUMP JUMPDEST SWAP1 DUP2 MSTORE PUSH1 0x20 ADD PUSH1 0x40 MLOAD DUP1 SWAP2 SUB SWAP1 KECCAK256 PUSH0 ADD PUSH0 SWAP1 SLOAD SWAP1 PUSH2 0x100 EXP SWAP1 DIV PUSH20 0xFFFFFFFFFFFFFFFFFFFFFFFFFFFFFFFFFFFFFFFF AND PUSH20 0xFFFFFFFFFFFFFFFFFFFFFFFFFFFFFFFFFFFFFFFF AND SUB PUSH2 0x191E JUMPI DUP3 PUSH1 0x40 MLOAD PUSH32 0xC0BAB25F00000000000000000000000000000000000000000000000000000000 DUP2 MSTORE PUSH1 0x4 ADD PUSH2 0x1915 SWAP2 SWAP1 PUSH2 0x3152 JUMP JUMPDEST PUSH1 0x40 MLOAD DUP1 SWAP2 SUB SWAP1 REVERT JUMPDEST DUP2 PUSH1 0x1 DUP5 PUSH1 0x40 MLOAD PUSH2 0x192F SWAP2 SWAP1 PUSH2 0x313C JUMP JUMPDEST SWAP1 DUP2 MSTORE PUSH1 0x20 ADD PUSH1 0x40 MLOAD DUP1 SWAP2 SUB SWAP1 KECCAK256 PUSH1 0x3 ADD SLOAD LT ISZERO PUSH2 0x1986 JUMPI DUP3 DUP3 PUSH1 0x40 MLOAD PUSH32 0xED579E6000000000000000000000000000000000000000000000000000000000 DUP2 MSTORE PUSH1 0x4 ADD PUSH2 0x197D SWAP3 SWAP2 SWAP1 PUSH2 0x3729 JUMP JUMPDEST PUSH1 0x40 MLOAD DUP1 SWAP2 SUB SWAP1 REVERT JUMPDEST PUSH0 PUSH1 0x1 DUP5 PUSH1 0x40 MLOAD PUSH2 0x1997 SWAP2 SWAP1 PUSH2 0x313C JUMP JUMPDEST SWAP1 DUP2 MSTORE PUSH1 0x20 ADD PUSH1 0x40 MLOAD DUP1 SWAP2 SUB SWAP1 KECCAK256 PUSH0 ADD PUSH0 SWAP1 SLOAD SWAP1 PUSH2 0x100 EXP SWAP1 DIV PUSH20 0xFFFFFFFFFFFFFFFFFFFFFFFFFFFFFFFFFFFFFFFF AND PUSH20 0xFFFFFFFFFFFFFFFFFFFFFFFFFFFFFFFFFFFFFFFF AND ADDRESS DUP5 PUSH1 0x40 MLOAD PUSH1 0x24 ADD PUSH2 0x19F0 SWAP3 SWAP2 SWAP1 PUSH2 0x3172 JUMP JUMPDEST PUSH1 0x40 MLOAD PUSH1 0x20 DUP2 DUP4 SUB SUB DUP2 MSTORE SWAP1 PUSH1 0x40 MSTORE PUSH32 0x95EA7B300000000000000000000000000000000000000000000000000000000 PUSH28 0xFFFFFFFFFFFFFFFFFFFFFFFFFFFFFFFFFFFFFFFFFFFFFFFFFFFFFFFF NOT AND PUSH1 0x20 DUP3 ADD DUP1 MLOAD PUSH28 0xFFFFFFFFFFFFFFFFFFFFFFFFFFFFFFFFFFFFFFFFFFFFFFFFFFFFFFFF DUP4 DUP2 DUP4 AND OR DUP4 MSTORE POP POP POP POP PUSH1 0x40 MLOAD PUSH2 0x1A7A SWAP2 SWAP1 PUSH2 0x31DD JUMP JUMPDEST PUSH0 PUSH1 0x40 MLOAD DUP1 DUP4 SUB DUP2 PUSH0 DUP7 GAS CALL SWAP2 POP POP RETURNDATASIZE DUP1 PUSH0 DUP2 EQ PUSH2 0x1AB3 JUMPI PUSH1 0x40 MLOAD SWAP2 POP PUSH1 0x1F NOT PUSH1 0x3F RETURNDATASIZE ADD AND DUP3 ADD PUSH1 0x40 MSTORE RETURNDATASIZE DUP3 MSTORE RETURNDATASIZE PUSH0 PUSH1 0x20 DUP5 ADD RETURNDATACOPY PUSH2 0x1AB8 JUMP JUMPDEST PUSH1 0x60 SWAP2 POP JUMPDEST POP POP SWAP1 POP DUP1 PUSH2 0x1AFE JUMPI DUP4 PUSH1 0x40 MLOAD PUSH32 0x58300FE700000000000000000000000000000000000000000000000000000000 DUP2 MSTORE PUSH1 0x4 ADD PUSH2 0x1AF5 SWAP2 SWAP1 PUSH2 0x3152 JUMP JUMPDEST PUSH1 0x40 MLOAD DUP1 SWAP2 SUB SWAP1 REVERT JUMPDEST PUSH0 PUSH1 0x1 DUP6 PUSH1 0x40 MLOAD PUSH2 0x1B0F SWAP2 SWAP1 PUSH2 0x313C JUMP JUMPDEST SWAP1 DUP2 MSTORE PUSH1 0x20 ADD PUSH1 0x40 MLOAD DUP1 SWAP2 SUB SWAP1 KECCAK256 PUSH0 ADD PUSH0 SWAP1 SLOAD SWAP1 PUSH2 0x100 EXP SWAP1 DIV PUSH20 0xFFFFFFFFFFFFFFFFFFFFFFFFFFFFFFFFFFFFFFFF AND PUSH20 0xFFFFFFFFFFFFFFFFFFFFFFFFFFFFFFFFFFFFFFFF AND ADDRESS PUSH1 0x1 DUP8 PUSH1 0x40 MLOAD PUSH2 0x1B66 SWAP2 SWAP1 PUSH2 0x313C JUMP JUMPDEST SWAP1 DUP2 MSTORE PUSH1 0x20 ADD PUSH1 0x40 MLOAD DUP1 SWAP2 SUB SWAP1 KECCAK256 PUSH1 0x2 ADD PUSH0 SWAP1 SLOAD SWAP1 PUSH2 0x100 EXP SWAP1 DIV PUSH20 0xFFFFFFFFFFFFFFFFFFFFFFFFFFFFFFFFFFFFFFFF AND PUSH1 0x1 DUP9 PUSH1 0x40 MLOAD PUSH2 0x1BA7 SWAP2 SWAP1 PUSH2 0x313C JUMP JUMPDEST SWAP1 DUP2 MSTORE PUSH1 0x20 ADD PUSH1 0x40 MLOAD DUP1 SWAP2 SUB SWAP1 KECCAK256 PUSH1 0x3 ADD SLOAD PUSH1 0x40 MLOAD PUSH1 0x24 ADD PUSH2 0x1BCB SWAP4 SWAP3 SWAP2 SWAP1 PUSH2 0x32F0 JUMP JUMPDEST PUSH1 0x40 MLOAD PUSH1 0x20 DUP2 DUP4 SUB SUB DUP2 MSTORE SWAP1 PUSH1 0x40 MSTORE PUSH32 0xBEABACC800000000000000000000000000000000000000000000000000000000 PUSH28 0xFFFFFFFFFFFFFFFFFFFFFFFFFFFFFFFFFFFFFFFFFFFFFFFFFFFFFFFF NOT AND PUSH1 0x20 DUP3 ADD DUP1 MLOAD PUSH28 0xFFFFFFFFFFFFFFFFFFFFFFFFFFFFFFFFFFFFFFFFFFFFFFFFFFFFFFFF DUP4 DUP2 DUP4 AND OR DUP4 MSTORE POP POP POP POP PUSH1 0x40 MLOAD PUSH2 0x1C55 SWAP2 SWAP1 PUSH2 0x31DD JUMP JUMPDEST PUSH0 PUSH1 0x40 MLOAD DUP1 DUP4 SUB DUP2 PUSH0 DUP7 GAS CALL SWAP2 POP POP RETURNDATASIZE DUP1 PUSH0 DUP2 EQ PUSH2 0x1C8E JUMPI PUSH1 0x40 MLOAD SWAP2 POP PUSH1 0x1F NOT PUSH1 0x3F RETURNDATASIZE ADD AND DUP3 ADD PUSH1 0x40 MSTORE RETURNDATASIZE DUP3 MSTORE RETURNDATASIZE PUSH0 PUSH1 0x20 DUP5 ADD RETURNDATACOPY PUSH2 0x1C93 JUMP JUMPDEST PUSH1 0x60 SWAP2 POP JUMPDEST POP POP SWAP1 POP DUP1 ISZERO PUSH2 0x1DD3 JUMPI DUP4 PUSH1 0x1 DUP7 PUSH1 0x40 MLOAD PUSH2 0x1CAE SWAP2 SWAP1 PUSH2 0x313C JUMP JUMPDEST SWAP1 DUP2 MSTORE PUSH1 0x20 ADD PUSH1 0x40 MLOAD DUP1 SWAP2 SUB SWAP1 KECCAK256 PUSH1 0x3 ADD PUSH0 DUP3 DUP3 SLOAD PUSH2 0x1CCD SWAP2 SWAP1 PUSH2 0x36F6 JUMP JUMPDEST SWAP3 POP POP DUP2 SWAP1 SSTORE POP PUSH0 PUSH1 0x2 PUSH8 0xFFFFFFFFFFFFFFFF DUP2 GT ISZERO PUSH2 0x1CF0 JUMPI PUSH2 0x1CEF PUSH2 0x29A1 JUMP JUMPDEST JUMPDEST PUSH1 0x40 MLOAD SWAP1 DUP1 DUP3 MSTORE DUP1 PUSH1 0x20 MUL PUSH1 0x20 ADD DUP3 ADD PUSH1 0x40 MSTORE DUP1 ISZERO PUSH2 0x1D23 JUMPI DUP2 PUSH1 0x20 ADD JUMPDEST PUSH1 0x60 DUP2 MSTORE PUSH1 0x20 ADD SWAP1 PUSH1 0x1 SWAP1 SUB SWAP1 DUP2 PUSH2 0x1D0E JUMPI SWAP1 POP JUMPDEST POP SWAP1 POP PUSH1 0x40 MLOAD DUP1 PUSH1 0x40 ADD PUSH1 0x40 MSTORE DUP1 PUSH1 0x4 DUP2 MSTORE PUSH1 0x20 ADD PUSH32 0x61746F6100000000000000000000000000000000000000000000000000000000 DUP2 MSTORE POP DUP2 PUSH0 DUP2 MLOAD DUP2 LT PUSH2 0x1D6F JUMPI PUSH2 0x1D6E PUSH2 0x325B JUMP JUMPDEST JUMPDEST PUSH1 0x20 MUL PUSH1 0x20 ADD ADD DUP2 SWAP1 MSTORE POP DUP6 PUSH1 0x40 MLOAD PUSH2 0x1D88 SWAP2 SWAP1 PUSH2 0x313C JUMP JUMPDEST PUSH1 0x40 MLOAD DUP1 SWAP2 SUB SWAP1 KECCAK256 PUSH32 0x2E880E99C8EC365B5C6EBF33D629F356B595654B480D1AD1872023D6E3CC6094 DUP3 PUSH1 0x40 MLOAD PUSH2 0x1DBF SWAP2 SWAP1 PUSH2 0x2EF7 JUMP JUMPDEST PUSH1 0x40 MLOAD DUP1 SWAP2 SUB SWAP1 LOG2 PUSH1 0x1 SWAP4 POP POP POP POP PUSH2 0x1E10 JUMP JUMPDEST DUP5 PUSH1 0x40 MLOAD PUSH32 0x58300FE700000000000000000000000000000000000000000000000000000000 DUP2 MSTORE PUSH1 0x4 ADD PUSH2 0x1E07 SWAP2 SWAP1 PUSH2 0x3152 JUMP JUMPDEST PUSH1 0x40 MLOAD DUP1 SWAP2 SUB SWAP1 REVERT JUMPDEST SWAP3 SWAP2 POP POP JUMP JUMPDEST PUSH0 PUSH2 0x1E1F PUSH2 0x2288 JUMP JUMPDEST PUSH2 0x1E5F PUSH1 0x40 MLOAD DUP1 PUSH1 0x40 ADD PUSH1 0x40 MSTORE DUP1 PUSH1 0x1A DUP2 MSTORE PUSH1 0x20 ADD PUSH32 0x4C6F636B20746F6B656E3A2025730A20616D6F756E743A202573000000000000 DUP2 MSTORE POP DUP5 DUP5 PUSH2 0x230F JUMP JUMPDEST PUSH0 PUSH20 0xFFFFFFFFFFFFFFFFFFFFFFFFFFFFFFFFFFFFFFFF AND PUSH1 0x1 DUP5 PUSH1 0x40 MLOAD PUSH2 0x1E86 SWAP2 SWAP1 PUSH2 0x313C JUMP JUMPDEST SWAP1 DUP2 MSTORE PUSH1 0x20 ADD PUSH1 0x40 MLOAD DUP1 SWAP2 SUB SWAP1 KECCAK256 PUSH0 ADD PUSH0 SWAP1 SLOAD SWAP1 PUSH2 0x100 EXP SWAP1 DIV PUSH20 0xFFFFFFFFFFFFFFFFFFFFFFFFFFFFFFFFFFFFFFFF AND PUSH20 0xFFFFFFFFFFFFFFFFFFFFFFFFFFFFFFFFFFFFFFFF AND SUB PUSH2 0x1F0E JUMPI DUP3 PUSH1 0x40 MLOAD PUSH32 0xC0BAB25F00000000000000000000000000000000000000000000000000000000 DUP2 MSTORE PUSH1 0x4 ADD PUSH2 0x1F05 SWAP2 SWAP1 PUSH2 0x3152 JUMP JUMPDEST PUSH1 0x40 MLOAD DUP1 SWAP2 SUB SWAP1 REVERT JUMPDEST PUSH0 PUSH1 0x1 DUP5 PUSH1 0x40 MLOAD PUSH2 0x1F1F SWAP2 SWAP1 PUSH2 0x313C JUMP JUMPDEST SWAP1 DUP2 MSTORE PUSH1 0x20 ADD PUSH1 0x40 MLOAD DUP1 SWAP2 SUB SWAP1 KECCAK256 PUSH0 ADD PUSH0 SWAP1 SLOAD SWAP1 PUSH2 0x100 EXP SWAP1 DIV PUSH20 0xFFFFFFFFFFFFFFFFFFFFFFFFFFFFFFFFFFFFFFFF AND PUSH20 0xFFFFFFFFFFFFFFFFFFFFFFFFFFFFFFFFFFFFFFFF AND PUSH1 0x1 DUP6 PUSH1 0x40 MLOAD PUSH2 0x1F75 SWAP2 SWAP1 PUSH2 0x313C JUMP JUMPDEST SWAP1 DUP2 MSTORE PUSH1 0x20 ADD PUSH1 0x40 MLOAD DUP1 SWAP2 SUB SWAP1 KECCAK256 PUSH1 0x2 ADD PUSH0 SWAP1 SLOAD SWAP1 PUSH2 0x100 EXP SWAP1 DIV PUSH20 0xFFFFFFFFFFFFFFFFFFFFFFFFFFFFFFFFFFFFFFFF AND ADDRESS DUP6 PUSH1 0x40 MLOAD PUSH1 0x24 ADD PUSH2 0x1FBA SWAP4 SWAP3 SWAP2 SWAP1 PUSH2 0x32F0 JUMP JUMPDEST PUSH1 0x40 MLOAD PUSH1 0x20 DUP2 DUP4 SUB SUB DUP2 MSTORE SWAP1 PUSH1 0x40 MSTORE PUSH32 0xBEABACC800000000000000000000000000000000000000000000000000000000 PUSH28 0xFFFFFFFFFFFFFFFFFFFFFFFFFFFFFFFFFFFFFFFFFFFFFFFFFFFFFFFF NOT AND PUSH1 0x20 DUP3 ADD DUP1 MLOAD PUSH28 0xFFFFFFFFFFFFFFFFFFFFFFFFFFFFFFFFFFFFFFFFFFFFFFFFFFFFFFFF DUP4 DUP2 DUP4 AND OR DUP4 MSTORE POP POP POP POP PUSH1 0x40 MLOAD PUSH2 0x2044 SWAP2 SWAP1 PUSH2 0x31DD JUMP JUMPDEST PUSH0 PUSH1 0x40 MLOAD DUP1 DUP4 SUB DUP2 PUSH0 DUP7 GAS CALL SWAP2 POP POP RETURNDATASIZE DUP1 PUSH0 DUP2 EQ PUSH2 0x207D JUMPI PUSH1 0x40 MLOAD SWAP2 POP PUSH1 0x1F NOT PUSH1 0x3F RETURNDATASIZE ADD AND DUP3 ADD PUSH1 0x40 MSTORE RETURNDATASIZE DUP3 MSTORE RETURNDATASIZE PUSH0 PUSH1 0x20 DUP5 ADD RETURNDATACOPY PUSH2 0x2082 JUMP JUMPDEST PUSH1 0x60 SWAP2 POP JUMPDEST POP POP SWAP1 POP DUP1 ISZERO PUSH2 0x21C1 JUMPI DUP3 PUSH1 0x1 DUP6 PUSH1 0x40 MLOAD PUSH2 0x209D SWAP2 SWAP1 PUSH2 0x313C JUMP JUMPDEST SWAP1 DUP2 MSTORE PUSH1 0x20 ADD PUSH1 0x40 MLOAD DUP1 SWAP2 SUB SWAP1 KECCAK256 PUSH1 0x3 ADD PUSH0 DUP3 DUP3 SLOAD PUSH2 0x20BC SWAP2 SWAP1 PUSH2 0x3757 JUMP JUMPDEST SWAP3 POP POP DUP2 SWAP1 SSTORE POP PUSH0 PUSH1 0x2 PUSH8 0xFFFFFFFFFFFFFFFF DUP2 GT ISZERO PUSH2 0x20DF JUMPI PUSH2 0x20DE PUSH2 0x29A1 JUMP JUMPDEST JUMPDEST PUSH1 0x40 MLOAD SWAP1 DUP1 DUP3 MSTORE DUP1 PUSH1 0x20 MUL PUSH1 0x20 ADD DUP3 ADD PUSH1 0x40 MSTORE DUP1 ISZERO PUSH2 0x2112 JUMPI DUP2 PUSH1 0x20 ADD JUMPDEST PUSH1 0x60 DUP2 MSTORE PUSH1 0x20 ADD SWAP1 PUSH1 0x1 SWAP1 SUB SWAP1 DUP2 PUSH2 0x20FD JUMPI SWAP1 POP JUMPDEST POP SWAP1 POP PUSH1 0x40 MLOAD DUP1 PUSH1 0x40 ADD PUSH1 0x40 MSTORE DUP1 PUSH1 0x4 DUP2 MSTORE PUSH1 0x20 ADD PUSH32 0x61746F6100000000000000000000000000000000000000000000000000000000 DUP2 MSTORE POP DUP2 PUSH0 DUP2 MLOAD DUP2 LT PUSH2 0x215E JUMPI PUSH2 0x215D PUSH2 0x325B JUMP JUMPDEST JUMPDEST PUSH1 0x20 MUL PUSH1 0x20 ADD ADD DUP2 SWAP1 MSTORE POP DUP5 PUSH1 0x40 MLOAD PUSH2 0x2177 SWAP2 SWAP1 PUSH2 0x313C JUMP JUMPDEST PUSH1 0x40 MLOAD DUP1 SWAP2 SUB SWAP1 KECCAK256 PUSH32 0x2E880E99C8EC365B5C6EBF33D629F356B595654B480D1AD1872023D6E3CC6094 DUP3 PUSH1 0x40 MLOAD PUSH2 0x21AE SWAP2 SWAP1 PUSH2 0x2EF7 JUMP JUMPDEST PUSH1 0x40 MLOAD DUP1 SWAP2 SUB SWAP1 LOG2 PUSH1 0x1 SWAP3 POP POP POP PUSH2 0x21FE JUMP JUMPDEST DUP4 PUSH1 0x40 MLOAD PUSH32 0x8244096A00000000000000000000000000000000000000000000000000000000 DUP2 MSTORE PUSH1 0x4 ADD PUSH2 0x21F5 SWAP2 SWAP1 PUSH2 0x3152 JUMP JUMPDEST PUSH1 0x40 MLOAD DUP1 SWAP2 SUB SWAP1 REVERT JUMPDEST SWAP3 SWAP2 POP POP JUMP JUMPDEST PUSH2 0x220C PUSH2 0x2288 JUMP JUMPDEST PUSH0 PUSH20 0xFFFFFFFFFFFFFFFFFFFFFFFFFFFFFFFFFFFFFFFF AND DUP2 PUSH20 0xFFFFFFFFFFFFFFFFFFFFFFFFFFFFFFFFFFFFFFFF AND SUB PUSH2 0x227C JUMPI PUSH0 PUSH1 0x40 MLOAD PUSH32 0x1E4FBDF700000000000000000000000000000000000000000000000000000000 DUP2 MSTORE PUSH1 0x4 ADD PUSH2 0x2273 SWAP2 SWAP1 PUSH2 0x2D45 JUMP JUMPDEST PUSH1 0x40 MLOAD DUP1 SWAP2 SUB SWAP1 REVERT JUMPDEST PUSH2 0x2285 DUP2 PUSH2 0x2450 JUMP JUMPDEST POP JUMP JUMPDEST PUSH2 0x2290 PUSH2 0x283B JUMP JUMPDEST PUSH20 0xFFFFFFFFFFFFFFFFFFFFFFFFFFFFFFFFFFFFFFFF AND PUSH2 0x22AE PUSH2 0xEB4 JUMP JUMPDEST PUSH20 0xFFFFFFFFFFFFFFFFFFFFFFFFFFFFFFFFFFFFFFFF AND EQ PUSH2 0x230D JUMPI PUSH2 0x22D1 PUSH2 0x283B JUMP JUMPDEST PUSH1 0x40 MLOAD PUSH32 0x118CDAA700000000000000000000000000000000000000000000000000000000 DUP2 MSTORE PUSH1 0x4 ADD PUSH2 0x2304 SWAP2 SWAP1 PUSH2 0x2D45 JUMP JUMPDEST PUSH1 0x40 MLOAD DUP1 SWAP2 SUB SWAP1 REVERT JUMPDEST JUMP JUMPDEST PUSH2 0x23A9 DUP4 DUP4 DUP4 PUSH1 0x40 MLOAD PUSH1 0x24 ADD PUSH2 0x2327 SWAP4 SWAP3 SWAP2 SWAP1 PUSH2 0x378A JUMP JUMPDEST PUSH1 0x40 MLOAD PUSH1 0x20 DUP2 DUP4 SUB SUB DUP2 MSTORE SWAP1 PUSH1 0x40 MSTORE PUSH32 0x5821EFA100000000000000000000000000000000000000000000000000000000 PUSH28 0xFFFFFFFFFFFFFFFFFFFFFFFFFFFFFFFFFFFFFFFFFFFFFFFFFFFFFFFF NOT AND PUSH1 0x20 DUP3 ADD DUP1 MLOAD PUSH28 0xFFFFFFFFFFFFFFFFFFFFFFFFFFFFFFFFFFFFFFFFFFFFFFFFFFFFFFFF DUP4 DUP2 DUP4 AND OR DUP4 MSTORE POP POP POP POP PUSH2 0x2842 JUMP JUMPDEST POP POP POP JUMP JUMPDEST PUSH2 0x244A DUP5 DUP5 DUP5 DUP5 PUSH1 0x40 MLOAD PUSH1 0x24 ADD PUSH2 0x23C8 SWAP5 SWAP4 SWAP3 SWAP2 SWAP1 PUSH2 0x37CD JUMP JUMPDEST PUSH1 0x40 MLOAD PUSH1 0x20 DUP2 DUP4 SUB SUB DUP2 MSTORE SWAP1 PUSH1 0x40 MSTORE PUSH32 0x7CC3C60700000000000000000000000000000000000000000000000000000000 PUSH28 0xFFFFFFFFFFFFFFFFFFFFFFFFFFFFFFFFFFFFFFFFFFFFFFFFFFFFFFFF NOT AND PUSH1 0x20 DUP3 ADD DUP1 MLOAD PUSH28 0xFFFFFFFFFFFFFFFFFFFFFFFFFFFFFFFFFFFFFFFFFFFFFFFFFFFFFFFF DUP4 DUP2 DUP4 AND OR DUP4 MSTORE POP POP POP POP PUSH2 0x2842 JUMP JUMPDEST POP POP POP POP JUMP JUMPDEST PUSH0 DUP1 PUSH0 SWAP1 SLOAD SWAP1 PUSH2 0x100 EXP SWAP1 DIV PUSH20 0xFFFFFFFFFFFFFFFFFFFFFFFFFFFFFFFFFFFFFFFF AND SWAP1 POP DUP2 PUSH0 DUP1 PUSH2 0x100 EXP DUP2 SLOAD DUP2 PUSH20 0xFFFFFFFFFFFFFFFFFFFFFFFFFFFFFFFFFFFFFFFF MUL NOT AND SWAP1 DUP4 PUSH20 0xFFFFFFFFFFFFFFFFFFFFFFFFFFFFFFFFFFFFFFFF AND MUL OR SWAP1 SSTORE POP DUP2 PUSH20 0xFFFFFFFFFFFFFFFFFFFFFFFFFFFFFFFFFFFFFFFF AND DUP2 PUSH20 0xFFFFFFFFFFFFFFFFFFFFFFFFFFFFFFFFFFFFFFFF AND PUSH32 0x8BE0079C531659141344CD1FD0A4F28419497F9722A3DAAFE3B4186F6B6457E0 PUSH1 0x40 MLOAD PUSH1 0x40 MLOAD DUP1 SWAP2 SUB SWAP1 LOG3 POP POP JUMP JUMPDEST PUSH2 0x25A9 DUP3 DUP3 PUSH1 0x40 MLOAD PUSH1 0x24 ADD PUSH2 0x2527 SWAP3 SWAP2 SWAP1 PUSH2 0x381E JUMP JUMPDEST PUSH1 0x40 MLOAD PUSH1 0x20 DUP2 DUP4 SUB SUB DUP2 MSTORE SWAP1 PUSH1 0x40 MSTORE PUSH32 0x319AF33300000000000000000000000000000000000000000000000000000000 PUSH28 0xFFFFFFFFFFFFFFFFFFFFFFFFFFFFFFFFFFFFFFFFFFFFFFFFFFFFFFFF NOT AND PUSH1 0x20 DUP3 ADD DUP1 MLOAD PUSH28 0xFFFFFFFFFFFFFFFFFFFFFFFFFFFFFFFFFFFFFFFFFFFFFFFFFFFFFFFF DUP4 DUP2 DUP4 AND OR DUP4 MSTORE POP POP POP POP PUSH2 0x2842 JUMP JUMPDEST POP POP JUMP JUMPDEST PUSH2 0x2643 DUP2 PUSH1 0x40 MLOAD PUSH1 0x24 ADD PUSH2 0x25C1 SWAP2 SWAP1 PUSH2 0x3152 JUMP JUMPDEST PUSH1 0x40 MLOAD PUSH1 0x20 DUP2 DUP4 SUB SUB DUP2 MSTORE SWAP1 PUSH1 0x40 MSTORE PUSH32 0x41304FAC00000000000000000000000000000000000000000000000000000000 PUSH28 0xFFFFFFFFFFFFFFFFFFFFFFFFFFFFFFFFFFFFFFFFFFFFFFFFFFFFFFFF NOT AND PUSH1 0x20 DUP3 ADD DUP1 MLOAD PUSH28 0xFFFFFFFFFFFFFFFFFFFFFFFFFFFFFFFFFFFFFFFFFFFFFFFFFFFFFFFF DUP4 DUP2 DUP4 AND OR DUP4 MSTORE POP POP POP POP PUSH2 0x2842 JUMP JUMPDEST POP JUMP JUMPDEST PUSH2 0x26DE DUP3 DUP3 PUSH1 0x40 MLOAD PUSH1 0x24 ADD PUSH2 0x265C SWAP3 SWAP2 SWAP1 PUSH2 0x384C JUMP JUMPDEST PUSH1 0x40 MLOAD PUSH1 0x20 DUP2 DUP4 SUB SUB DUP2 MSTORE SWAP1 PUSH1 0x40 MSTORE PUSH32 0x4B5C427700000000000000000000000000000000000000000000000000000000 PUSH28 0xFFFFFFFFFFFFFFFFFFFFFFFFFFFFFFFFFFFFFFFFFFFFFFFFFFFFFFFF NOT AND PUSH1 0x20 DUP3 ADD DUP1 MLOAD PUSH28 0xFFFFFFFFFFFFFFFFFFFFFFFFFFFFFFFFFFFFFFFFFFFFFFFFFFFFFFFF DUP4 DUP2 DUP4 AND OR DUP4 MSTORE POP POP POP POP PUSH2 0x2842 JUMP JUMPDEST POP POP JUMP JUMPDEST PUSH0 JUMPDEST PUSH1 0x2 DUP1 SLOAD SWAP1 POP DUP2 LT ISZERO PUSH2 0x2837 JUMPI PUSH2 0x279D PUSH1 0x2 DUP3 DUP2 SLOAD DUP2 LT PUSH2 0x2708 JUMPI PUSH2 0x2707 PUSH2 0x325B JUMP JUMPDEST JUMPDEST SWAP1 PUSH0 MSTORE PUSH1 0x20 PUSH0 KECCAK256 ADD DUP1 SLOAD PUSH2 0x271B SWAP1 PUSH2 0x30D2 JUMP JUMPDEST DUP1 PUSH1 0x1F ADD PUSH1 0x20 DUP1 SWAP2 DIV MUL PUSH1 0x20 ADD PUSH1 0x40 MLOAD SWAP1 DUP2 ADD PUSH1 0x40 MSTORE DUP1 SWAP3 SWAP2 SWAP1 DUP2 DUP2 MSTORE PUSH1 0x20 ADD DUP3 DUP1 SLOAD PUSH2 0x2747 SWAP1 PUSH2 0x30D2 JUMP JUMPDEST DUP1 ISZERO PUSH2 0x2792 JUMPI DUP1 PUSH1 0x1F LT PUSH2 0x2769 JUMPI PUSH2 0x100 DUP1 DUP4 SLOAD DIV MUL DUP4 MSTORE SWAP2 PUSH1 0x20 ADD SWAP2 PUSH2 0x2792 JUMP JUMPDEST DUP3 ADD SWAP2 SWAP1 PUSH0 MSTORE PUSH1 0x20 PUSH0 KECCAK256 SWAP1 JUMPDEST DUP2 SLOAD DUP2 MSTORE SWAP1 PUSH1 0x1 ADD SWAP1 PUSH1 0x20 ADD DUP1 DUP4 GT PUSH2 0x2775 JUMPI DUP3 SWAP1 SUB PUSH1 0x1F AND DUP3 ADD SWAP2 JUMPDEST POP POP POP POP POP DUP4 PUSH2 0x285C JUMP JUMPDEST ISZERO PUSH2 0x282A JUMPI PUSH1 0x2 PUSH1 0x1 PUSH1 0x2 DUP1 SLOAD SWAP1 POP PUSH2 0x27B6 SWAP2 SWAP1 PUSH2 0x36F6 JUMP JUMPDEST DUP2 SLOAD DUP2 LT PUSH2 0x27C7 JUMPI PUSH2 0x27C6 PUSH2 0x325B JUMP JUMPDEST JUMPDEST SWAP1 PUSH0 MSTORE PUSH1 0x20 PUSH0 KECCAK256 ADD PUSH1 0x2 DUP3 DUP2 SLOAD DUP2 LT PUSH2 0x27E3 JUMPI PUSH2 0x27E2 PUSH2 0x325B JUMP JUMPDEST JUMPDEST SWAP1 PUSH0 MSTORE PUSH1 0x20 PUSH0 KECCAK256 ADD SWAP1 DUP2 PUSH2 0x27F7 SWAP2 SWAP1 PUSH2 0x38A8 JUMP JUMPDEST POP PUSH1 0x2 DUP1 SLOAD DUP1 PUSH2 0x280A JUMPI PUSH2 0x2809 PUSH2 0x398D JUMP JUMPDEST JUMPDEST PUSH1 0x1 SWAP1 SUB DUP2 DUP2 SWAP1 PUSH0 MSTORE PUSH1 0x20 PUSH0 KECCAK256 ADD PUSH0 PUSH2 0x2823 SWAP2 SWAP1 PUSH2 0x28AD JUMP JUMPDEST SWAP1 SSTORE PUSH2 0x2837 JUMP JUMPDEST DUP1 DUP1 PUSH1 0x1 ADD SWAP2 POP POP PUSH2 0x26E4 JUMP JUMPDEST POP POP JUMP JUMPDEST PUSH0 CALLER SWAP1 POP SWAP1 JUMP JUMPDEST PUSH2 0x2859 DUP2 PUSH2 0x2851 PUSH2 0x2883 PUSH2 0x28A2 JUMP JUMPDEST PUSH4 0xFFFFFFFF AND JUMP JUMPDEST POP JUMP JUMPDEST PUSH0 DUP2 MLOAD DUP4 MLOAD EQ DUP1 ISZERO PUSH2 0x287B JUMPI POP DUP2 DUP1 MLOAD SWAP1 PUSH1 0x20 ADD KECCAK256 DUP4 DUP1 MLOAD SWAP1 PUSH1 0x20 ADD KECCAK256 EQ JUMPDEST SWAP1 POP SWAP3 SWAP2 POP POP JUMP JUMPDEST PUSH0 PUSH11 0x636F6E736F6C652E6C6F67 SWAP1 POP PUSH0 DUP1 DUP4 MLOAD PUSH1 0x20 DUP6 ADD DUP5 GAS STATICCALL POP POP POP JUMP JUMPDEST PUSH2 0x2953 DUP2 SWAP1 POP SWAP2 SWAP1 POP JUMP JUMPDEST POP DUP1 SLOAD PUSH2 0x28B9 SWAP1 PUSH2 0x30D2 JUMP JUMPDEST PUSH0 DUP3 SSTORE DUP1 PUSH1 0x1F LT PUSH2 0x28CA JUMPI POP PUSH2 0x28E7 JUMP JUMPDEST PUSH1 0x1F ADD PUSH1 0x20 SWAP1 DIV SWAP1 PUSH0 MSTORE PUSH1 0x20 PUSH0 KECCAK256 SWAP1 DUP2 ADD SWAP1 PUSH2 0x28E6 SWAP2 SWAP1 PUSH2 0x295D JUMP JUMPDEST JUMPDEST POP JUMP JUMPDEST PUSH1 0x40 MLOAD DUP1 PUSH1 0xA0 ADD PUSH1 0x40 MSTORE DUP1 PUSH0 PUSH20 0xFFFFFFFFFFFFFFFFFFFFFFFFFFFFFFFFFFFFFFFF AND DUP2 MSTORE PUSH1 0x20 ADD PUSH0 PUSH1 0x2 DUP2 GT ISZERO PUSH2 0x2924 JUMPI PUSH2 0x2923 PUSH2 0x2B4B JUMP JUMPDEST JUMPDEST DUP2 MSTORE PUSH1 0x20 ADD PUSH1 0x60 DUP2 MSTORE PUSH1 0x20 ADD PUSH0 PUSH20 0xFFFFFFFFFFFFFFFFFFFFFFFFFFFFFFFFFFFFFFFF AND DUP2 MSTORE PUSH1 0x20 ADD PUSH0 DUP2 MSTORE POP SWAP1 JUMP JUMPDEST PUSH2 0x295B PUSH2 0x39BA JUMP JUMPDEST JUMP JUMPDEST JUMPDEST DUP1 DUP3 GT ISZERO PUSH2 0x2974 JUMPI PUSH0 DUP2 PUSH0 SWAP1 SSTORE POP PUSH1 0x1 ADD PUSH2 0x295E JUMP JUMPDEST POP SWAP1 JUMP JUMPDEST PUSH0 PUSH1 0x40 MLOAD SWAP1 POP SWAP1 JUMP JUMPDEST PUSH0 DUP1 REVERT JUMPDEST PUSH0 DUP1 REVERT JUMPDEST PUSH0 DUP1 REVERT JUMPDEST PUSH0 DUP1 REVERT JUMPDEST PUSH0 PUSH1 0x1F NOT PUSH1 0x1F DUP4 ADD AND SWAP1 POP SWAP2 SWAP1 POP JUMP JUMPDEST PUSH32 0x4E487B7100000000000000000000000000000000000000000000000000000000 PUSH0 MSTORE PUSH1 0x41 PUSH1 0x4 MSTORE PUSH1 0x24 PUSH0 REVERT JUMPDEST PUSH2 0x29D7 DUP3 PUSH2 0x2991 JUMP JUMPDEST DUP2 ADD DUP2 DUP2 LT PUSH8 0xFFFFFFFFFFFFFFFF DUP3 GT OR ISZERO PUSH2 0x29F6 JUMPI PUSH2 0x29F5 PUSH2 0x29A1 JUMP JUMPDEST JUMPDEST DUP1 PUSH1 0x40 MSTORE POP POP POP JUMP JUMPDEST PUSH0 PUSH2 0x2A08 PUSH2 0x2978 JUMP JUMPDEST SWAP1 POP PUSH2 0x2A14 DUP3 DUP3 PUSH2 0x29CE JUMP JUMPDEST SWAP2 SWAP1 POP JUMP JUMPDEST PUSH0 PUSH8 0xFFFFFFFFFFFFFFFF DUP3 GT ISZERO PUSH2 0x2A33 JUMPI PUSH2 0x2A32 PUSH2 0x29A1 JUMP JUMPDEST JUMPDEST PUSH2 0x2A3C DUP3 PUSH2 0x2991 JUMP JUMPDEST SWAP1 POP PUSH1 0x20 DUP2 ADD SWAP1 POP SWAP2 SWAP1 POP JUMP JUMPDEST DUP3 DUP2 DUP4 CALLDATACOPY PUSH0 DUP4 DUP4 ADD MSTORE POP POP POP JUMP JUMPDEST PUSH0 PUSH2 0x2A69 PUSH2 0x2A64 DUP5 PUSH2 0x2A19 JUMP JUMPDEST PUSH2 0x29FF JUMP JUMPDEST SWAP1 POP DUP3 DUP2 MSTORE PUSH1 0x20 DUP2 ADD DUP5 DUP5 DUP5 ADD GT ISZERO PUSH2 0x2A85 JUMPI PUSH2 0x2A84 PUSH2 0x298D JUMP JUMPDEST JUMPDEST PUSH2 0x2A90 DUP5 DUP3 DUP6 PUSH2 0x2A49 JUMP JUMPDEST POP SWAP4 SWAP3 POP POP POP JUMP JUMPDEST PUSH0 DUP3 PUSH1 0x1F DUP4 ADD SLT PUSH2 0x2AAC JUMPI PUSH2 0x2AAB PUSH2 0x2989 JUMP JUMPDEST JUMPDEST DUP2 CALLDATALOAD PUSH2 0x2ABC DUP5 DUP3 PUSH1 0x20 DUP7 ADD PUSH2 0x2A57 JUMP JUMPDEST SWAP2 POP POP SWAP3 SWAP2 POP POP JUMP JUMPDEST PUSH0 PUSH1 0x20 DUP3 DUP5 SUB SLT ISZERO PUSH2 0x2ADA JUMPI PUSH2 0x2AD9 PUSH2 0x2981 JUMP JUMPDEST JUMPDEST PUSH0 DUP3 ADD CALLDATALOAD PUSH8 0xFFFFFFFFFFFFFFFF DUP2 GT ISZERO PUSH2 0x2AF7 JUMPI PUSH2 0x2AF6 PUSH2 0x2985 JUMP JUMPDEST JUMPDEST PUSH2 0x2B03 DUP5 DUP3 DUP6 ADD PUSH2 0x2A98 JUMP JUMPDEST SWAP2 POP POP SWAP3 SWAP2 POP POP JUMP JUMPDEST PUSH0 PUSH20 0xFFFFFFFFFFFFFFFFFFFFFFFFFFFFFFFFFFFFFFFF DUP3 AND SWAP1 POP SWAP2 SWAP1 POP JUMP JUMPDEST PUSH0 PUSH2 0x2B35 DUP3 PUSH2 0x2B0C JUMP JUMPDEST SWAP1 POP SWAP2 SWAP1 POP JUMP JUMPDEST PUSH2 0x2B45 DUP2 PUSH2 0x2B2B JUMP JUMPDEST DUP3 MSTORE POP POP JUMP JUMPDEST PUSH32 0x4E487B7100000000000000000000000000000000000000000000000000000000 PUSH0 MSTORE PUSH1 0x21 PUSH1 0x4 MSTORE PUSH1 0x24 PUSH0 REVERT JUMPDEST PUSH1 0x3 DUP2 LT PUSH2 0x2B89 JUMPI PUSH2 0x2B88 PUSH2 0x2B4B JUMP JUMPDEST JUMPDEST POP JUMP JUMPDEST PUSH0 DUP2 SWAP1 POP PUSH2 0x2B99 DUP3 PUSH2 0x2B78 JUMP JUMPDEST SWAP2 SWAP1 POP JUMP JUMPDEST PUSH0 PUSH2 0x2BA8 DUP3 PUSH2 0x2B8C JUMP JUMPDEST SWAP1 POP SWAP2 SWAP1 POP JUMP JUMPDEST PUSH2 0x2BB8 DUP2 PUSH2 0x2B9E JUMP JUMPDEST DUP3 MSTORE POP POP JUMP JUMPDEST PUSH0 DUP2 MLOAD SWAP1 POP SWAP2 SWAP1 POP JUMP JUMPDEST PUSH0 DUP3 DUP3 MSTORE PUSH1 0x20 DUP3 ADD SWAP1 POP SWAP3 SWAP2 POP POP JUMP JUMPDEST DUP3 DUP2 DUP4 MCOPY PUSH0 DUP4 DUP4 ADD MSTORE POP POP POP JUMP JUMPDEST PUSH0 PUSH2 0x2BF0 DUP3 PUSH2 0x2BBE JUMP JUMPDEST PUSH2 0x2BFA DUP2 DUP6 PUSH2 0x2BC8 JUMP JUMPDEST SWAP4 POP PUSH2 0x2C0A DUP2 DUP6 PUSH1 0x20 DUP7 ADD PUSH2 0x2BD8 JUMP JUMPDEST PUSH2 0x2C13 DUP2 PUSH2 0x2991 JUMP JUMPDEST DUP5 ADD SWAP2 POP POP SWAP3 SWAP2 POP POP JUMP JUMPDEST PUSH0 DUP2 SWAP1 POP SWAP2 SWAP1 POP JUMP JUMPDEST PUSH2 0x2C30 DUP2 PUSH2 0x2C1E JUMP JUMPDEST DUP3 MSTORE POP POP JUMP JUMPDEST PUSH0 PUSH1 0xA0 DUP3 ADD SWAP1 POP PUSH2 0x2C49 PUSH0 DUP4 ADD DUP9 PUSH2 0x2B3C JUMP JUMPDEST PUSH2 0x2C56 PUSH1 0x20 DUP4 ADD DUP8 PUSH2 0x2BAF JUMP JUMPDEST DUP2 DUP2 SUB PUSH1 0x40 DUP4 ADD MSTORE PUSH2 0x2C68 DUP2 DUP7 PUSH2 0x2BE6 JUMP JUMPDEST SWAP1 POP PUSH2 0x2C77 PUSH1 0x60 DUP4 ADD DUP6 PUSH2 0x2B3C JUMP JUMPDEST PUSH2 0x2C84 PUSH1 0x80 DUP4 ADD DUP5 PUSH2 0x2C27 JUMP JUMPDEST SWAP7 SWAP6 POP POP POP POP POP POP JUMP JUMPDEST PUSH2 0x2C97 DUP2 PUSH2 0x2C1E JUMP JUMPDEST DUP2 EQ PUSH2 0x2CA1 JUMPI PUSH0 DUP1 REVERT JUMPDEST POP JUMP JUMPDEST PUSH0 DUP2 CALLDATALOAD SWAP1 POP PUSH2 0x2CB2 DUP2 PUSH2 0x2C8E JUMP JUMPDEST SWAP3 SWAP2 POP POP JUMP JUMPDEST PUSH0 DUP1 PUSH1 0x40 DUP4 DUP6 SUB SLT ISZERO PUSH2 0x2CCE JUMPI PUSH2 0x2CCD PUSH2 0x2981 JUMP JUMPDEST JUMPDEST PUSH0 DUP4 ADD CALLDATALOAD PUSH8 0xFFFFFFFFFFFFFFFF DUP2 GT ISZERO PUSH2 0x2CEB JUMPI PUSH2 0x2CEA PUSH2 0x2985 JUMP JUMPDEST JUMPDEST PUSH2 0x2CF7 DUP6 DUP3 DUP7 ADD PUSH2 0x2A98 JUMP JUMPDEST SWAP3 POP POP PUSH1 0x20 PUSH2 0x2D08 DUP6 DUP3 DUP7 ADD PUSH2 0x2CA4 JUMP JUMPDEST SWAP2 POP POP SWAP3 POP SWAP3 SWAP1 POP JUMP JUMPDEST PUSH0 DUP2 ISZERO ISZERO SWAP1 POP SWAP2 SWAP1 POP JUMP JUMPDEST PUSH2 0x2D26 DUP2 PUSH2 0x2D12 JUMP JUMPDEST DUP3 MSTORE POP POP JUMP JUMPDEST PUSH0 PUSH1 0x20 DUP3 ADD SWAP1 POP PUSH2 0x2D3F PUSH0 DUP4 ADD DUP5 PUSH2 0x2D1D JUMP JUMPDEST SWAP3 SWAP2 POP POP JUMP JUMPDEST PUSH0 PUSH1 0x20 DUP3 ADD SWAP1 POP PUSH2 0x2D58 PUSH0 DUP4 ADD DUP5 PUSH2 0x2B3C JUMP JUMPDEST SWAP3 SWAP2 POP POP JUMP JUMPDEST PUSH2 0x2D67 DUP2 PUSH2 0x2B2B JUMP JUMPDEST DUP2 EQ PUSH2 0x2D71 JUMPI PUSH0 DUP1 REVERT JUMPDEST POP JUMP JUMPDEST PUSH0 DUP2 CALLDATALOAD SWAP1 POP PUSH2 0x2D82 DUP2 PUSH2 0x2D5E JUMP JUMPDEST SWAP3 SWAP2 POP POP JUMP JUMPDEST PUSH0 DUP1 PUSH0 PUSH1 0x60 DUP5 DUP7 SUB SLT ISZERO PUSH2 0x2D9F JUMPI PUSH2 0x2D9E PUSH2 0x2981 JUMP JUMPDEST JUMPDEST PUSH0 DUP5 ADD CALLDATALOAD PUSH8 0xFFFFFFFFFFFFFFFF DUP2 GT ISZERO PUSH2 0x2DBC JUMPI PUSH2 0x2DBB PUSH2 0x2985 JUMP JUMPDEST JUMPDEST PUSH2 0x2DC8 DUP7 DUP3 DUP8 ADD PUSH2 0x2A98 JUMP JUMPDEST SWAP4 POP POP PUSH1 0x20 PUSH2 0x2DD9 DUP7 DUP3 DUP8 ADD PUSH2 0x2D74 JUMP JUMPDEST SWAP3 POP POP PUSH1 0x40 PUSH2 0x2DEA DUP7 DUP3 DUP8 ADD PUSH2 0x2CA4 JUMP JUMPDEST SWAP2 POP POP SWAP3 POP SWAP3 POP SWAP3 JUMP JUMPDEST PUSH0 DUP2 MLOAD SWAP1 POP SWAP2 SWAP1 POP JUMP JUMPDEST PUSH0 DUP3 DUP3 MSTORE PUSH1 0x20 DUP3 ADD SWAP1 POP SWAP3 SWAP2 POP POP JUMP JUMPDEST PUSH0 DUP2 SWAP1 POP PUSH1 0x20 DUP3 ADD SWAP1 POP SWAP2 SWAP1 POP JUMP JUMPDEST PUSH0 DUP3 DUP3 MSTORE PUSH1 0x20 DUP3 ADD SWAP1 POP SWAP3 SWAP2 POP POP JUMP JUMPDEST PUSH0 PUSH2 0x2E37 DUP3 PUSH2 0x2BBE JUMP JUMPDEST PUSH2 0x2E41 DUP2 DUP6 PUSH2 0x2E1D JUMP JUMPDEST SWAP4 POP PUSH2 0x2E51 DUP2 DUP6 PUSH1 0x20 DUP7 ADD PUSH2 0x2BD8 JUMP JUMPDEST PUSH2 0x2E5A DUP2 PUSH2 0x2991 JUMP JUMPDEST DUP5 ADD SWAP2 POP POP SWAP3 SWAP2 POP POP JUMP JUMPDEST PUSH0 PUSH2 0x2E70 DUP4 DUP4 PUSH2 0x2E2D JUMP JUMPDEST SWAP1 POP SWAP3 SWAP2 POP POP JUMP JUMPDEST PUSH0 PUSH1 0x20 DUP3 ADD SWAP1 POP SWAP2 SWAP1 POP JUMP JUMPDEST PUSH0 PUSH2 0x2E8E DUP3 PUSH2 0x2DF4 JUMP JUMPDEST PUSH2 0x2E98 DUP2 DUP6 PUSH2 0x2DFE JUMP JUMPDEST SWAP4 POP DUP4 PUSH1 0x20 DUP3 MUL DUP6 ADD PUSH2 0x2EAA DUP6 PUSH2 0x2E0E JUMP JUMPDEST DUP1 PUSH0 JUMPDEST DUP6 DUP2 LT ISZERO PUSH2 0x2EE5 JUMPI DUP5 DUP5 SUB DUP10 MSTORE DUP2 MLOAD PUSH2 0x2EC6 DUP6 DUP3 PUSH2 0x2E65 JUMP JUMPDEST SWAP5 POP PUSH2 0x2ED1 DUP4 PUSH2 0x2E78 JUMP JUMPDEST SWAP3 POP PUSH1 0x20 DUP11 ADD SWAP10 POP POP PUSH1 0x1 DUP2 ADD SWAP1 POP PUSH2 0x2EAD JUMP JUMPDEST POP DUP3 SWAP8 POP DUP8 SWAP6 POP POP POP POP POP POP SWAP3 SWAP2 POP POP JUMP JUMPDEST PUSH0 PUSH1 0x20 DUP3 ADD SWAP1 POP DUP2 DUP2 SUB PUSH0 DUP4 ADD MSTORE PUSH2 0x2F0F DUP2 DUP5 PUSH2 0x2E84 JUMP JUMPDEST SWAP1 POP SWAP3 SWAP2 POP POP JUMP JUMPDEST PUSH1 0x3 DUP2 LT PUSH2 0x2F23 JUMPI PUSH0 DUP1 REVERT JUMPDEST POP JUMP JUMPDEST PUSH0 DUP2 CALLDATALOAD SWAP1 POP PUSH2 0x2F34 DUP2 PUSH2 0x2F17 JUMP JUMPDEST SWAP3 SWAP2 POP POP JUMP JUMPDEST PUSH0 DUP1 PUSH0 DUP1 PUSH1 0x80 DUP6 DUP8 SUB SLT ISZERO PUSH2 0x2F52 JUMPI PUSH2 0x2F51 PUSH2 0x2981 JUMP JUMPDEST JUMPDEST PUSH0 PUSH2 0x2F5F DUP8 DUP3 DUP9 ADD PUSH2 0x2D74 JUMP JUMPDEST SWAP5 POP POP PUSH1 0x20 PUSH2 0x2F70 DUP8 DUP3 DUP9 ADD PUSH2 0x2F26 JUMP JUMPDEST SWAP4 POP POP PUSH1 0x40 DUP6 ADD CALLDATALOAD PUSH8 0xFFFFFFFFFFFFFFFF DUP2 GT ISZERO PUSH2 0x2F91 JUMPI PUSH2 0x2F90 PUSH2 0x2985 JUMP JUMPDEST JUMPDEST PUSH2 0x2F9D DUP8 DUP3 DUP9 ADD PUSH2 0x2A98 JUMP JUMPDEST SWAP3 POP POP PUSH1 0x60 PUSH2 0x2FAE DUP8 DUP3 DUP9 ADD PUSH2 0x2D74 JUMP JUMPDEST SWAP2 POP POP SWAP3 SWAP6 SWAP2 SWAP5 POP SWAP3 POP JUMP JUMPDEST PUSH2 0x2FC3 DUP2 PUSH2 0x2B2B JUMP JUMPDEST DUP3 MSTORE POP POP JUMP JUMPDEST PUSH2 0x2FD2 DUP2 PUSH2 0x2B9E JUMP JUMPDEST DUP3 MSTORE POP POP JUMP JUMPDEST PUSH2 0x2FE1 DUP2 PUSH2 0x2C1E JUMP JUMPDEST DUP3 MSTORE POP POP JUMP JUMPDEST PUSH0 PUSH1 0xA0 DUP4 ADD PUSH0 DUP4 ADD MLOAD PUSH2 0x2FFC PUSH0 DUP7 ADD DUP3 PUSH2 0x2FBA JUMP JUMPDEST POP PUSH1 0x20 DUP4 ADD MLOAD PUSH2 0x300F PUSH1 0x20 DUP7 ADD DUP3 PUSH2 0x2FC9 JUMP JUMPDEST POP PUSH1 0x40 DUP4 ADD MLOAD DUP5 DUP3 SUB PUSH1 0x40 DUP7 ADD MSTORE PUSH2 0x3027 DUP3 DUP3 PUSH2 0x2E2D JUMP JUMPDEST SWAP2 POP POP PUSH1 0x60 DUP4 ADD MLOAD PUSH2 0x303C PUSH1 0x60 DUP7 ADD DUP3 PUSH2 0x2FBA JUMP JUMPDEST POP PUSH1 0x80 DUP4 ADD MLOAD PUSH2 0x304F PUSH1 0x80 DUP7 ADD DUP3 PUSH2 0x2FD8 JUMP JUMPDEST POP DUP1 SWAP2 POP POP SWAP3 SWAP2 POP POP JUMP JUMPDEST PUSH0 PUSH1 0x20 DUP3 ADD SWAP1 POP DUP2 DUP2 SUB PUSH0 DUP4 ADD MSTORE PUSH2 0x3072 DUP2 DUP5 PUSH2 0x2FE7 JUMP JUMPDEST SWAP1 POP SWAP3 SWAP2 POP POP JUMP JUMPDEST PUSH0 PUSH1 0x20 DUP3 DUP5 SUB SLT ISZERO PUSH2 0x308F JUMPI PUSH2 0x308E PUSH2 0x2981 JUMP JUMPDEST JUMPDEST PUSH0 PUSH2 0x309C DUP5 DUP3 DUP6 ADD PUSH2 0x2D74 JUMP JUMPDEST SWAP2 POP POP SWAP3 SWAP2 POP POP JUMP JUMPDEST PUSH32 0x4E487B7100000000000000000000000000000000000000000000000000000000 PUSH0 MSTORE PUSH1 0x22 PUSH1 0x4 MSTORE PUSH1 0x24 PUSH0 REVERT JUMPDEST PUSH0 PUSH1 0x2 DUP3 DIV SWAP1 POP PUSH1 0x1 DUP3 AND DUP1 PUSH2 0x30E9 JUMPI PUSH1 0x7F DUP3 AND SWAP2 POP JUMPDEST PUSH1 0x20 DUP3 LT DUP2 SUB PUSH2 0x30FC JUMPI PUSH2 0x30FB PUSH2 0x30A5 JUMP JUMPDEST JUMPDEST POP SWAP2 SWAP1 POP JUMP JUMPDEST PUSH0 DUP2 SWAP1 POP SWAP3 SWAP2 POP POP JUMP JUMPDEST PUSH0 PUSH2 0x3116 DUP3 PUSH2 0x2BBE JUMP JUMPDEST PUSH2 0x3120 DUP2 DUP6 PUSH2 0x3102 JUMP JUMPDEST SWAP4 POP PUSH2 0x3130 DUP2 DUP6 PUSH1 0x20 DUP7 ADD PUSH2 0x2BD8 JUMP JUMPDEST DUP1 DUP5 ADD SWAP2 POP POP SWAP3 SWAP2 POP POP JUMP JUMPDEST PUSH0 PUSH2 0x3147 DUP3 DUP5 PUSH2 0x310C JUMP JUMPDEST SWAP2 POP DUP2 SWAP1 POP SWAP3 SWAP2 POP POP JUMP JUMPDEST PUSH0 PUSH1 0x20 DUP3 ADD SWAP1 POP DUP2 DUP2 SUB PUSH0 DUP4 ADD MSTORE PUSH2 0x316A DUP2 DUP5 PUSH2 0x2BE6 JUMP JUMPDEST SWAP1 POP SWAP3 SWAP2 POP POP JUMP JUMPDEST PUSH0 PUSH1 0x40 DUP3 ADD SWAP1 POP PUSH2 0x3185 PUSH0 DUP4 ADD DUP6 PUSH2 0x2B3C JUMP JUMPDEST PUSH2 0x3192 PUSH1 0x20 DUP4 ADD DUP5 PUSH2 0x2C27 JUMP JUMPDEST SWAP4 SWAP3 POP POP POP JUMP JUMPDEST PUSH0 DUP2 MLOAD SWAP1 POP SWAP2 SWAP1 POP JUMP JUMPDEST PUSH0 DUP2 SWAP1 POP SWAP3 SWAP2 POP POP JUMP JUMPDEST PUSH0 PUSH2 0x31B7 DUP3 PUSH2 0x3199 JUMP JUMPDEST PUSH2 0x31C1 DUP2 DUP6 PUSH2 0x31A3 JUMP JUMPDEST SWAP4 POP PUSH2 0x31D1 DUP2 DUP6 PUSH1 0x20 DUP7 ADD PUSH2 0x2BD8 JUMP JUMPDEST DUP1 DUP5 ADD SWAP2 POP POP SWAP3 SWAP2 POP POP JUMP JUMPDEST PUSH0 PUSH2 0x31E8 DUP3 DUP5 PUSH2 0x31AD JUMP JUMPDEST SWAP2 POP DUP2 SWAP1 POP SWAP3 SWAP2 POP POP JUMP JUMPDEST PUSH32 0x6D696E742061737365742063616C6C206661696C656400000000000000000000 PUSH0 DUP3 ADD MSTORE POP JUMP JUMPDEST PUSH0 PUSH2 0x3227 PUSH1 0x16 DUP4 PUSH2 0x2BC8 JUMP JUMPDEST SWAP2 POP PUSH2 0x3232 DUP3 PUSH2 0x31F3 JUMP JUMPDEST PUSH1 0x20 DUP3 ADD SWAP1 POP SWAP2 SWAP1 POP JUMP JUMPDEST PUSH0 PUSH1 0x20 DUP3 ADD SWAP1 POP DUP2 DUP2 SUB PUSH0 DUP4 ADD MSTORE PUSH2 0x3254 DUP2 PUSH2 0x321B JUMP JUMPDEST SWAP1 POP SWAP2 SWAP1 POP JUMP JUMPDEST PUSH32 0x4E487B7100000000000000000000000000000000000000000000000000000000 PUSH0 MSTORE PUSH1 0x32 PUSH1 0x4 MSTORE PUSH1 0x24 PUSH0 REVERT JUMPDEST PUSH32 0x61737369676E206173736574206173736574206973206E6F74206C6F636B6564 PUSH0 DUP3 ADD MSTORE POP JUMP JUMPDEST PUSH0 PUSH2 0x32BC PUSH1 0x20 DUP4 PUSH2 0x2BC8 JUMP JUMPDEST SWAP2 POP PUSH2 0x32C7 DUP3 PUSH2 0x3288 JUMP JUMPDEST PUSH1 0x20 DUP3 ADD SWAP1 POP SWAP2 SWAP1 POP JUMP JUMPDEST PUSH0 PUSH1 0x20 DUP3 ADD SWAP1 POP DUP2 DUP2 SUB PUSH0 DUP4 ADD MSTORE PUSH2 0x32E9 DUP2 PUSH2 0x32B0 JUMP JUMPDEST SWAP1 POP SWAP2 SWAP1 POP JUMP JUMPDEST PUSH0 PUSH1 0x60 DUP3 ADD SWAP1 POP PUSH2 0x3303 PUSH0 DUP4 ADD DUP7 PUSH2 0x2B3C JUMP JUMPDEST PUSH2 0x3310 PUSH1 0x20 DUP4 ADD DUP6 PUSH2 0x2B3C JUMP JUMPDEST PUSH2 0x331D PUSH1 0x40 DUP4 ADD DUP5 PUSH2 0x2C27 JUMP JUMPDEST SWAP5 SWAP4 POP POP POP POP JUMP JUMPDEST PUSH32 0x61737369676E2061737365742063616C6C206661696C65640000000000000000 PUSH0 DUP3 ADD MSTORE POP JUMP JUMPDEST PUSH0 PUSH2 0x3359 PUSH1 0x18 DUP4 PUSH2 0x2BC8 JUMP JUMPDEST SWAP2 POP PUSH2 0x3364 DUP3 PUSH2 0x3325 JUMP JUMPDEST PUSH1 0x20 DUP3 ADD SWAP1 POP SWAP2 SWAP1 POP JUMP JUMPDEST PUSH0 PUSH1 0x20 DUP3 ADD SWAP1 POP DUP2 DUP2 SUB PUSH0 DUP4 ADD MSTORE PUSH2 0x3386 DUP2 PUSH2 0x334D JUMP JUMPDEST SWAP1 POP SWAP2 SWAP1 POP JUMP JUMPDEST PUSH0 DUP2 SWAP1 POP DUP2 PUSH0 MSTORE PUSH1 0x20 PUSH0 KECCAK256 SWAP1 POP SWAP2 SWAP1 POP JUMP JUMPDEST PUSH0 PUSH1 0x20 PUSH1 0x1F DUP4 ADD DIV SWAP1 POP SWAP2 SWAP1 POP JUMP JUMPDEST PUSH0 DUP3 DUP3 SHL SWAP1 POP SWAP3 SWAP2 POP POP JUMP JUMPDEST PUSH0 PUSH1 0x8 DUP4 MUL PUSH2 0x33E9 PUSH32 0xFFFFFFFFFFFFFFFFFFFFFFFFFFFFFFFFFFFFFFFFFFFFFFFFFFFFFFFFFFFFFFFF DUP3 PUSH2 0x33AE JUMP JUMPDEST PUSH2 0x33F3 DUP7 DUP4 PUSH2 0x33AE JUMP JUMPDEST SWAP6 POP DUP1 NOT DUP5 AND SWAP4 POP DUP1 DUP7 AND DUP5 OR SWAP3 POP POP POP SWAP4 SWAP3 POP POP POP JUMP JUMPDEST PUSH0 DUP2 SWAP1 POP SWAP2 SWAP1 POP JUMP JUMPDEST PUSH0 PUSH2 0x342E PUSH2 0x3429 PUSH2 0x3424 DUP5 PUSH2 0x2C1E JUMP JUMPDEST PUSH2 0x340B JUMP JUMPDEST PUSH2 0x2C1E JUMP JUMPDEST SWAP1 POP SWAP2 SWAP1 POP JUMP JUMPDEST PUSH0 DUP2 SWAP1 POP SWAP2 SWAP1 POP JUMP JUMPDEST PUSH2 0x3447 DUP4 PUSH2 0x3414 JUMP JUMPDEST PUSH2 0x345B PUSH2 0x3453 DUP3 PUSH2 0x3435 JUMP JUMPDEST DUP5 DUP5 SLOAD PUSH2 0x33BA JUMP JUMPDEST DUP3 SSTORE POP POP POP POP JUMP JUMPDEST PUSH0 SWAP1 JUMP JUMPDEST PUSH2 0x346F PUSH2 0x3463 JUMP JUMPDEST PUSH2 0x347A DUP2 DUP5 DUP5 PUSH2 0x343E JUMP JUMPDEST POP POP POP JUMP JUMPDEST JUMPDEST DUP2 DUP2 LT ISZERO PUSH2 0x349D JUMPI PUSH2 0x3492 PUSH0 DUP3 PUSH2 0x3467 JUMP JUMPDEST PUSH1 0x1 DUP2 ADD SWAP1 POP PUSH2 0x3480 JUMP JUMPDEST POP POP JUMP JUMPDEST PUSH1 0x1F DUP3 GT ISZERO PUSH2 0x34E2 JUMPI PUSH2 0x34B3 DUP2 PUSH2 0x338D JUMP JUMPDEST PUSH2 0x34BC DUP5 PUSH2 0x339F JUMP JUMPDEST DUP2 ADD PUSH1 0x20 DUP6 LT ISZERO PUSH2 0x34CB JUMPI DUP2 SWAP1 POP JUMPDEST PUSH2 0x34DF PUSH2 0x34D7 DUP6 PUSH2 0x339F JUMP JUMPDEST DUP4 ADD DUP3 PUSH2 0x347F JUMP JUMPDEST POP POP JUMPDEST POP POP POP JUMP JUMPDEST PUSH0 DUP3 DUP3 SHR SWAP1 POP SWAP3 SWAP2 POP POP JUMP JUMPDEST PUSH0 PUSH2 0x3502 PUSH0 NOT DUP5 PUSH1 0x8 MUL PUSH2 0x34E7 JUMP JUMPDEST NOT DUP1 DUP4 AND SWAP2 POP POP SWAP3 SWAP2 POP POP JUMP JUMPDEST PUSH0 PUSH2 0x351A DUP4 DUP4 PUSH2 0x34F3 JUMP JUMPDEST SWAP2 POP DUP3 PUSH1 0x2 MUL DUP3 OR SWAP1 POP SWAP3 SWAP2 POP POP JUMP JUMPDEST PUSH2 0x3533 DUP3 PUSH2 0x2BBE JUMP JUMPDEST PUSH8 0xFFFFFFFFFFFFFFFF DUP2 GT ISZERO PUSH2 0x354C JUMPI PUSH2 0x354B PUSH2 0x29A1 JUMP JUMPDEST JUMPDEST PUSH2 0x3556 DUP3 SLOAD PUSH2 0x30D2 JUMP JUMPDEST PUSH2 0x3561 DUP3 DUP3 DUP6 PUSH2 0x34A1 JUMP JUMPDEST PUSH0 PUSH1 0x20 SWAP1 POP PUSH1 0x1F DUP4 GT PUSH1 0x1 DUP2 EQ PUSH2 0x3592 JUMPI PUSH0 DUP5 ISZERO PUSH2 0x3580 JUMPI DUP3 DUP8 ADD MLOAD SWAP1 POP JUMPDEST PUSH2 0x358A DUP6 DUP3 PUSH2 0x350F JUMP JUMPDEST DUP7 SSTORE POP PUSH2 0x35F1 JUMP JUMPDEST PUSH1 0x1F NOT DUP5 AND PUSH2 0x35A0 DUP7 PUSH2 0x338D JUMP JUMPDEST PUSH0 JUMPDEST DUP3 DUP2 LT ISZERO PUSH2 0x35C7 JUMPI DUP5 DUP10 ADD MLOAD DUP3 SSTORE PUSH1 0x1 DUP3 ADD SWAP2 POP PUSH1 0x20 DUP6 ADD SWAP5 POP PUSH1 0x20 DUP2 ADD SWAP1 POP PUSH2 0x35A2 JUMP JUMPDEST DUP7 DUP4 LT ISZERO PUSH2 0x35E4 JUMPI DUP5 DUP10 ADD MLOAD PUSH2 0x35E0 PUSH1 0x1F DUP10 AND DUP3 PUSH2 0x34F3 JUMP JUMPDEST DUP4 SSTORE POP JUMPDEST PUSH1 0x1 PUSH1 0x2 DUP9 MUL ADD DUP9 SSTORE POP POP POP JUMPDEST POP POP POP POP POP POP JUMP JUMPDEST PUSH32 0x6275726E206173736574206173736574206973206E6F74206C6F636B65640000 PUSH0 DUP3 ADD MSTORE POP JUMP JUMPDEST PUSH0 PUSH2 0x362D PUSH1 0x1E DUP4 PUSH2 0x2BC8 JUMP JUMPDEST SWAP2 POP PUSH2 0x3638 DUP3 PUSH2 0x35F9 JUMP JUMPDEST PUSH1 0x20 DUP3 ADD SWAP1 POP SWAP2 SWAP1 POP JUMP JUMPDEST PUSH0 PUSH1 0x20 DUP3 ADD SWAP1 POP DUP2 DUP2 SUB PUSH0 DUP4 ADD MSTORE PUSH2 0x365A DUP2 PUSH2 0x3621 JUMP JUMPDEST SWAP1 POP SWAP2 SWAP1 POP JUMP JUMPDEST PUSH32 0x6275726E2061737365742063616C6C206661696C656400000000000000000000 PUSH0 DUP3 ADD MSTORE POP JUMP JUMPDEST PUSH0 PUSH2 0x3695 PUSH1 0x16 DUP4 PUSH2 0x2BC8 JUMP JUMPDEST SWAP2 POP PUSH2 0x36A0 DUP3 PUSH2 0x3661 JUMP JUMPDEST PUSH1 0x20 DUP3 ADD SWAP1 POP SWAP2 SWAP1 POP JUMP JUMPDEST PUSH0 PUSH1 0x20 DUP3 ADD SWAP1 POP DUP2 DUP2 SUB PUSH0 DUP4 ADD MSTORE PUSH2 0x36C2 DUP2 PUSH2 0x3689 JUMP JUMPDEST SWAP1 POP SWAP2 SWAP1 POP JUMP JUMPDEST PUSH32 0x4E487B7100000000000000000000000000000000000000000000000000000000 PUSH0 MSTORE PUSH1 0x11 PUSH1 0x4 MSTORE PUSH1 0x24 PUSH0 REVERT JUMPDEST PUSH0 PUSH2 0x3700 DUP3 PUSH2 0x2C1E JUMP JUMPDEST SWAP2 POP PUSH2 0x370B DUP4 PUSH2 0x2C1E JUMP JUMPDEST SWAP3 POP DUP3 DUP3 SUB SWAP1 POP DUP2 DUP2 GT ISZERO PUSH2 0x3723 JUMPI PUSH2 0x3722 PUSH2 0x36C9 JUMP JUMPDEST JUMPDEST SWAP3 SWAP2 POP POP JUMP JUMPDEST PUSH0 PUSH1 0x40 DUP3 ADD SWAP1 POP DUP2 DUP2 SUB PUSH0 DUP4 ADD MSTORE PUSH2 0x3741 DUP2 DUP6 PUSH2 0x2BE6 JUMP JUMPDEST SWAP1 POP PUSH2 0x3750 PUSH1 0x20 DUP4 ADD DUP5 PUSH2 0x2C27 JUMP JUMPDEST SWAP4 SWAP3 POP POP POP JUMP JUMPDEST PUSH0 PUSH2 0x3761 DUP3 PUSH2 0x2C1E JUMP JUMPDEST SWAP2 POP PUSH2 0x376C DUP4 PUSH2 0x2C1E JUMP JUMPDEST SWAP3 POP DUP3 DUP3 ADD SWAP1 POP DUP1 DUP3 GT ISZERO PUSH2 0x3784 JUMPI PUSH2 0x3783 PUSH2 0x36C9 JUMP JUMPDEST JUMPDEST SWAP3 SWAP2 POP POP JUMP JUMPDEST PUSH0 PUSH1 0x60 DUP3 ADD SWAP1 POP DUP2 DUP2 SUB PUSH0 DUP4 ADD MSTORE PUSH2 0x37A2 DUP2 DUP7 PUSH2 0x2BE6 JUMP JUMPDEST SWAP1 POP DUP2 DUP2 SUB PUSH1 0x20 DUP4 ADD MSTORE PUSH2 0x37B6 DUP2 DUP6 PUSH2 0x2BE6 JUMP JUMPDEST SWAP1 POP PUSH2 0x37C5 PUSH1 0x40 DUP4 ADD DUP5 PUSH2 0x2C27 JUMP JUMPDEST SWAP5 SWAP4 POP POP POP POP JUMP JUMPDEST PUSH0 PUSH1 0x80 DUP3 ADD SWAP1 POP DUP2 DUP2 SUB PUSH0 DUP4 ADD MSTORE PUSH2 0x37E5 DUP2 DUP8 PUSH2 0x2BE6 JUMP JUMPDEST SWAP1 POP DUP2 DUP2 SUB PUSH1 0x20 DUP4 ADD MSTORE PUSH2 0x37F9 DUP2 DUP7 PUSH2 0x2BE6 JUMP JUMPDEST SWAP1 POP PUSH2 0x3808 PUSH1 0x40 DUP4 ADD DUP6 PUSH2 0x2B3C JUMP JUMPDEST PUSH2 0x3815 PUSH1 0x60 DUP4 ADD DUP5 PUSH2 0x2C27 JUMP JUMPDEST SWAP6 SWAP5 POP POP POP POP POP JUMP JUMPDEST PUSH0 PUSH1 0x40 DUP3 ADD SWAP1 POP DUP2 DUP2 SUB PUSH0 DUP4 ADD MSTORE PUSH2 0x3836 DUP2 DUP6 PUSH2 0x2BE6 JUMP JUMPDEST SWAP1 POP PUSH2 0x3845 PUSH1 0x20 DUP4 ADD DUP5 PUSH2 0x2B3C JUMP JUMPDEST SWAP4 SWAP3 POP POP POP JUMP JUMPDEST PUSH0 PUSH1 0x40 DUP3 ADD SWAP1 POP DUP2 DUP2 SUB PUSH0 DUP4 ADD MSTORE PUSH2 0x3864 DUP2 DUP6 PUSH2 0x2BE6 JUMP JUMPDEST SWAP1 POP DUP2 DUP2 SUB PUSH1 0x20 DUP4 ADD MSTORE PUSH2 0x3878 DUP2 DUP5 PUSH2 0x2BE6 JUMP JUMPDEST SWAP1 POP SWAP4 SWAP3 POP POP POP JUMP JUMPDEST PUSH0 DUP2 SLOAD SWAP1 POP PUSH2 0x388F DUP2 PUSH2 0x30D2 JUMP JUMPDEST SWAP1 POP SWAP2 SWAP1 POP JUMP JUMPDEST PUSH0 DUP2 SWAP1 POP DUP2 PUSH0 MSTORE PUSH1 0x20 PUSH0 KECCAK256 SWAP1 POP SWAP2 SWAP1 POP JUMP JUMPDEST DUP2 DUP2 SUB PUSH2 0x38B6 JUMPI POP POP PUSH2 0x398B JUMP JUMPDEST PUSH2 0x38BF DUP3 PUSH2 0x3881 JUMP JUMPDEST PUSH8 0xFFFFFFFFFFFFFFFF DUP2 GT ISZERO PUSH2 0x38D8 JUMPI PUSH2 0x38D7 PUSH2 0x29A1 JUMP JUMPDEST JUMPDEST PUSH2 0x38E2 DUP3 SLOAD PUSH2 0x30D2 JUMP JUMPDEST PUSH2 0x38ED DUP3 DUP3 DUP6 PUSH2 0x34A1 JUMP JUMPDEST PUSH0 PUSH1 0x1F DUP4 GT PUSH1 0x1 DUP2 EQ PUSH2 0x391A JUMPI PUSH0 DUP5 ISZERO PUSH2 0x3908 JUMPI DUP3 DUP8 ADD SLOAD SWAP1 POP JUMPDEST PUSH2 0x3912 DUP6 DUP3 PUSH2 0x350F JUMP JUMPDEST DUP7 SSTORE POP PUSH2 0x3984 JUMP JUMPDEST PUSH1 0x1F NOT DUP5 AND PUSH2 0x3928 DUP8 PUSH2 0x3896 JUMP JUMPDEST SWAP7 POP PUSH2 0x3933 DUP7 PUSH2 0x338D JUMP JUMPDEST PUSH0 JUMPDEST DUP3 DUP2 LT ISZERO PUSH2 0x395A JUMPI DUP5 DUP10 ADD SLOAD DUP3 SSTORE PUSH1 0x1 DUP3 ADD SWAP2 POP PUSH1 0x1 DUP6 ADD SWAP5 POP PUSH1 0x20 DUP2 ADD SWAP1 POP PUSH2 0x3935 JUMP JUMPDEST DUP7 DUP4 LT ISZERO PUSH2 0x3977 JUMPI DUP5 DUP10 ADD SLOAD PUSH2 0x3973 PUSH1 0x1F DUP10 AND DUP3 PUSH2 0x34F3 JUMP JUMPDEST DUP4 SSTORE POP JUMPDEST PUSH1 0x1 PUSH1 0x2 DUP9 MUL ADD DUP9 SSTORE POP POP POP JUMPDEST POP POP POP POP POP POP JUMPDEST JUMP JUMPDEST PUSH32 0x4E487B7100000000000000000000000000000000000000000000000000000000 PUSH0 MSTORE PUSH1 0x31 PUSH1 0x4 MSTORE PUSH1 0x24 PUSH0 REVERT JUMPDEST PUSH32 0x4E487B7100000000000000000000000000000000000000000000000000000000 PUSH0 MSTORE PUSH1 0x51 PUSH1 0x4 MSTORE PUSH1 0x24 PUSH0 REVERT INVALID JUMPI PUSH19 0x6170706572204275726E2066726F6D3A202573 EXP KECCAK256 PUSH2 0x6D6F PUSH22 0x6E743A202573577261707065722041737369676E2066 PUSH19 0x6F6D3A2025730A20746F3A2025730A20616D6F PUSH22 0x6E743A202573A264697066735822122012A6DB600B79 0xDC DUP14 0xB5 0xCC PUSH26 0xE6A4E0F06D0D1B5F604BD0E8B0F6557EF5CBC0E4564736F6C63 NUMBER STOP ADDMOD BYTE STOP CALLER "
		},
		"gasEstimates": {
			"creation": {
				"codeDepositCost": "2990600",
				"executionCost": "infinite",
				"totalCost": "infinite"
			},
			"external": {
				"assign(string,address,uint256)": "infinite",
				"bridge_address()": "2576",
				"burn(string,uint256)": "infinite",
				"getAllAssetsIDs()": "infinite",
				"getToken(string)": "infinite",
				"lock(string,uint256)": "infinite",
				"mint(string,uint256)": "infinite",
				"owner()": "2538",
				"renounceOwnership()": "infinite",
				"tokens(string)": "infinite",
				"transferOwnership(address)": "infinite",
				"unlock(string,uint256)": "infinite",
				"unwrap(string)": "infinite",
				"wrap(address,uint8,string,address)": "infinite"
			},
			"internal": {
				"deleteFromArray(string memory)": "infinite"
			}
		},
		"methodIdentifiers": {
			"assign(string,address,uint256)": "4534ba17",
			"bridge_address()": "1255c189",
			"burn(string,uint256)": "b48272cc",
			"getAllAssetsIDs()": "5137b8a7",
			"getToken(string)": "c1733f68",
			"lock(string,uint256)": "e1efb596",
			"mint(string,uint256)": "056b01ce",
			"owner()": "8da5cb5b",
			"renounceOwnership()": "715018a6",
			"tokens(string)": "04c2320b",
			"transferOwnership(address)": "f2fde38b",
			"unlock(string,uint256)": "d9cf884c",
			"unwrap(string)": "a1bc17c5",
			"wrap(address,uint8,string,address)": "72d4c33b"
		}
	},
	"abi": [
		{
			"inputs": [
				{
					"internalType": "address",
					"name": "_bridge_address",
					"type": "address"
				}
			],
			"stateMutability": "nonpayable",
			"type": "constructor"
		},
		{
			"inputs": [
				{
					"internalType": "string",
					"name": "tokenId",
					"type": "string"
				},
				{
					"internalType": "uint256",
					"name": "amount",
					"type": "uint256"
				}
			],
			"name": "InsuficientAmountLocked",
			"type": "error"
		},
		{
			"inputs": [
				{
					"internalType": "address",
					"name": "owner",
					"type": "address"
				}
			],
			"name": "OwnableInvalidOwner",
			"type": "error"
		},
		{
			"inputs": [
				{
					"internalType": "address",
					"name": "account",
					"type": "address"
				}
			],
			"name": "OwnableUnauthorizedAccount",
			"type": "error"
		},
		{
			"inputs": [
				{
					"internalType": "string",
					"name": "tokenId",
					"type": "string"
				}
			],
			"name": "TokenAlreadyWrapped",
			"type": "error"
		},
		{
			"inputs": [
				{
					"internalType": "string",
					"name": "tokenId",
					"type": "string"
				}
			],
			"name": "TokenLocked",
			"type": "error"
		},
		{
			"inputs": [
				{
					"internalType": "string",
					"name": "tokenId",
					"type": "string"
				}
			],
			"name": "TokenNotAvailable",
			"type": "error"
		},
		{
			"inputs": [
				{
					"internalType": "string",
					"name": "tokenId",
					"type": "string"
				}
			],
			"name": "TokenNotLocked",
			"type": "error"
		},
		{
			"inputs": [
				{
					"internalType": "string",
					"name": "tokenId",
					"type": "string"
				}
			],
			"name": "TokenNotUnlocked",
			"type": "error"
		},
		{
			"anonymous": false,
			"inputs": [
				{
					"indexed": true,
					"internalType": "string",
					"name": "id",
					"type": "string"
				},
				{
					"indexed": false,
					"internalType": "string[]",
					"name": "value",
					"type": "string[]"
				}
			],
			"name": "Changed",
			"type": "event"
		},
		{
			"anonymous": false,
			"inputs": [
				{
					"indexed": true,
					"internalType": "address",
					"name": "previousOwner",
					"type": "address"
				},
				{
					"indexed": true,
					"internalType": "address",
					"name": "newOwner",
					"type": "address"
				}
			],
			"name": "OwnershipTransferred",
			"type": "event"
		},
		{
			"inputs": [
				{
					"internalType": "string",
					"name": "tokenId",
					"type": "string"
				},
				{
					"internalType": "address",
					"name": "receiver_account",
					"type": "address"
				},
				{
					"internalType": "uint256",
					"name": "amount",
					"type": "uint256"
				}
			],
			"name": "assign",
			"outputs": [
				{
					"internalType": "bool",
					"name": "success",
					"type": "bool"
				}
			],
			"stateMutability": "nonpayable",
			"type": "function"
		},
		{
			"inputs": [],
			"name": "bridge_address",
			"outputs": [
				{
					"internalType": "address",
					"name": "",
					"type": "address"
				}
			],
			"stateMutability": "view",
			"type": "function"
		},
		{
			"inputs": [
				{
					"internalType": "string",
					"name": "tokenId",
					"type": "string"
				},
				{
					"internalType": "uint256",
					"name": "amount",
					"type": "uint256"
				}
			],
			"name": "burn",
			"outputs": [
				{
					"internalType": "bool",
					"name": "success",
					"type": "bool"
				}
			],
			"stateMutability": "nonpayable",
			"type": "function"
		},
		{
			"inputs": [],
			"name": "getAllAssetsIDs",
			"outputs": [
				{
					"internalType": "string[]",
					"name": "",
					"type": "string[]"
				}
			],
			"stateMutability": "view",
			"type": "function"
		},
		{
			"inputs": [
				{
					"internalType": "string",
					"name": "tokenId",
					"type": "string"
				}
			],
			"name": "getToken",
			"outputs": [
				{
					"components": [
						{
							"internalType": "address",
							"name": "assetContract",
							"type": "address"
						},
						{
							"internalType": "enum TokenType",
							"name": "tokenType",
							"type": "uint8"
						},
						{
							"internalType": "string",
							"name": "tokenId",
							"type": "string"
						},
						{
							"internalType": "address",
							"name": "owner",
							"type": "address"
						},
						{
							"internalType": "uint256",
							"name": "amount",
							"type": "uint256"
						}
					],
					"internalType": "struct Token",
					"name": "token",
					"type": "tuple"
				}
			],
			"stateMutability": "view",
			"type": "function"
		},
		{
			"inputs": [
				{
					"internalType": "string",
					"name": "tokenId",
					"type": "string"
				},
				{
					"internalType": "uint256",
					"name": "amount",
					"type": "uint256"
				}
			],
			"name": "lock",
			"outputs": [
				{
					"internalType": "bool",
					"name": "success",
					"type": "bool"
				}
			],
			"stateMutability": "nonpayable",
			"type": "function"
		},
		{
			"inputs": [
				{
					"internalType": "string",
					"name": "tokenId",
					"type": "string"
				},
				{
					"internalType": "uint256",
					"name": "amount",
					"type": "uint256"
				}
			],
			"name": "mint",
			"outputs": [
				{
					"internalType": "bool",
					"name": "success",
					"type": "bool"
				}
			],
			"stateMutability": "nonpayable",
			"type": "function"
		},
		{
			"inputs": [],
			"name": "owner",
			"outputs": [
				{
					"internalType": "address",
					"name": "",
					"type": "address"
				}
			],
			"stateMutability": "view",
			"type": "function"
		},
		{
			"inputs": [],
			"name": "renounceOwnership",
			"outputs": [],
			"stateMutability": "nonpayable",
			"type": "function"
		},
		{
			"inputs": [
				{
					"internalType": "string",
					"name": "",
					"type": "string"
				}
			],
			"name": "tokens",
			"outputs": [
				{
					"internalType": "address",
					"name": "assetContract",
					"type": "address"
				},
				{
					"internalType": "enum TokenType",
					"name": "tokenType",
					"type": "uint8"
				},
				{
					"internalType": "string",
					"name": "tokenId",
					"type": "string"
				},
				{
					"internalType": "address",
					"name": "owner",
					"type": "address"
				},
				{
					"internalType": "uint256",
					"name": "amount",
					"type": "uint256"
				}
			],
			"stateMutability": "view",
			"type": "function"
		},
		{
			"inputs": [
				{
					"internalType": "address",
					"name": "newOwner",
					"type": "address"
				}
			],
			"name": "transferOwnership",
			"outputs": [],
			"stateMutability": "nonpayable",
			"type": "function"
		},
		{
			"inputs": [
				{
					"internalType": "string",
					"name": "tokenId",
					"type": "string"
				},
				{
					"internalType": "uint256",
					"name": "amount",
					"type": "uint256"
				}
			],
			"name": "unlock",
			"outputs": [
				{
					"internalType": "bool",
					"name": "success",
					"type": "bool"
				}
			],
			"stateMutability": "nonpayable",
			"type": "function"
		},
		{
			"inputs": [
				{
					"internalType": "string",
					"name": "tokenId",
					"type": "string"
				}
			],
			"name": "unwrap",
			"outputs": [
				{
					"internalType": "bool",
					"name": "success",
					"type": "bool"
				}
			],
			"stateMutability": "nonpayable",
			"type": "function"
		},
		{
			"inputs": [
				{
					"internalType": "address",
					"name": "assetContract",
					"type": "address"
				},
				{
					"internalType": "enum TokenType",
					"name": "tokenType",
					"type": "uint8"
				},
				{
					"internalType": "string",
					"name": "tokenId",
					"type": "string"
				},
				{
					"internalType": "address",
					"name": "owner",
					"type": "address"
				}
			],
			"name": "wrap",
			"outputs": [
				{
					"internalType": "bool",
					"name": "success",
					"type": "bool"
				}
			],
			"stateMutability": "nonpayable",
			"type": "function"
		}
	]
}